:020000040800F2
:100000000000012081140008551300085B1300084C
:1000100061130008671300086D130008000000005A
:10002000000000000000000000000000B17B00089C
:100030007313000800000000017E0008994A0008C0
:10004000D1140008D1140008D1140008D1140008FC
:10005000D1140008D1140008D1140008D1140008EC
:10006000D1140008D1140008D1140008811300082D
:10007000D1140008D1140008D1140008D1140008CC
:1000800095130008A9130008D1140008000000000F
:10009000000000000000000000000000D114000873
:1000A000D1140008D1140008D1140008D11400089C
:1000B000BD130008D1130008D1140008D1140008A2
:1000C000D1140008D1140008D1140008D11400087C
:1000D000D1140008E5130008F9130008000000001F
:1000E000D1140008D1140008D11400080000000049
:1000F000000000000000000000000000D114000813
:1001000000000000D1140008D1140008D114000828
:1001100000000000000000000000000000000000DF
:10012000D11400080D14000821140008D11400088F
:10013000D1140008000000000000000000000000D2
:10014000000000000000000000000000D1140008C2
:10015000D114000835140008D1140008491400080F
:10016000D1140008D11400080000000000000000B5
:10017000000000000000000000000000000000007F
:1001800000000000D1140008000000000000000082
:04019000D11400087E
:1001A00010B5054C237833B9044B13B10448AFF3B1
:1001B00000800123237010BD6000002000000000BB
:1001C0004085000808B5034B1BB103490348AFF352
:1001D000008008BD00000000640000204085000889
:1001E000034613F8012B002AFBD1181A0138704777
:1001F00053B94AB9002908BF00281CBF4FF0FF318E
:100200004FF0FF3000F070B9ADF1080C6DE904CE8D
:1002100000F006F8DDF804E0DDE9022304B07047E1
:100220002DE9F047089E0D4604460F46002B4AD1A3
:100230008A42944665D9B2FA82F343B102FA03FCCA
:10024000C3F120029F4020FA02F217439C404FEA7C
:100250001C4E1FFA8CF5B7FBFEF1220C0EFB11773A
:1002600042EA074201FB05F090420AD91CEB020268
:1002700001F1FF3780F01C81904240F21981023970
:100280006244121AA4B2B2FBFEF00EFB102244EA42
:10029000024400FB05F5A5420AD91CEB040400F159
:1002A000FF3280F00781A54240F2048164440238A5
:1002B00040EA0140641B00211EB1DC400023C6E976
:1002C0000043BDE8F0878B4208D9002E00F0ED8096
:1002D0000021C6E900050846BDE8F087B3FA83F1BE
:1002E000002949D1AB4202D3824200F2F880841A3D
:1002F00065EB030201201746002EE2D0C6E9004755
:10030000DFE702B9FFDEB2FA82F3002B40F0908003
:100310008A1A4FEA1C471FFA8CFE0121B2FBF7F53F
:1003200007FB1520220C42EA00420EFB05F090422A
:1003300008D91CEB020205F1FF3802D2904200F20C
:10034000CB804546121AA4B2B2FBF7F007FB10228D
:1003500044EA02440EFB00FEA64508D91CEB040447
:1003600000F1FF3202D2A64500F2BB801046A4EB9A
:100370000E0440EA05409FE7C1F120078B4022FAB6
:1003800007FC4CEA030C05FA01F420FA07F3FD40E0
:100390004FEA1C492343B5FBF9F81FFA8CFE09FB11
:1003A00018551C0C44EA054408FB0EF5A54202FA58
:1003B00001F200FA01F00BD91CEB040408F1FF3A3A
:1003C00080F08880A54240F28580A8F1020864444C
:1003D000641B9DB2B4FBF9F309FB134445EA0444E2
:1003E00003FB0EFEA64508D91CEB040403F1FF3500
:1003F0006CD2A6456AD9023B644443EA0843A3FB96
:100400000295A4EB0E04AC42C846AE4656D353D078
:1004100056B1B0EB080264EB0E0404FA07F7CA40C9
:10042000CC401743C6E9007418460021BDE8F087A8
:10043000C3F1200102FA03FC20FA01F225FA01F1CE
:100440009D402A434FEA1C471FFA8CFEB1FBF7F090
:1004500007FB1015110C41EA054100FB0EF58D421A
:1004600004FA03F408D91CEB010100F1FF382FD284
:100470008D422DD902386144491B92B2B1FBF7F588
:1004800007FB151142EA014205FB0EF1914208D922
:100490001CEB020205F1FF3816D2914214D9023D3D
:1004A0006244521A45EA004138E73146304608E7CF
:1004B0003946E6E61046FBE64845A9D2B9EB020804
:1004C00065EB0C0E013BA3E74546EAE72B4694E7B4
:1004D0004046D1E7D0467BE7023D624432E708461A
:1004E0000AE76444023842E7704700BF80B485B031
:1004F00000AFF860B9607A60074AFB681360074A8A
:100500007B681360064ABB68136000BF1437BD46A2
:100510005DF8047B704700BF7C0000208000002055
:100520008400002080B485B000AFF860B9607A60C4
:10053000074AFB681360074ABB681360064A7B687A
:10054000136000BF1437BD465DF8047B704700BFE1
:10055000880000208C00002090000020B0B592B0F0
:1005600000AF7860174B07F10C041D460FCD0FC488
:100570000FCD0FC40FCD0FC42B682380002387F845
:10058000473097F847305A1C87F84720194607F13B
:100590000C020B469B000B445B0013443B6497F832
:1005A0004730042B02D9002387F84730064B1B68DD
:1005B000186800230022396C04F012FD052004F0B5
:1005C00061FBDEE7788500088800002090B589B0DF
:1005D00000AF7860184B1B681B68184604F0BEFD1E
:1005E0000346FB77144B1B68186807F10C014FF0AA
:1005F000FF33002204F054FDB861BB69002B16D113
:100600000E4B1B681B684FF0FF31184604F0DEFBF1
:100610000B4B1C6807F10C031846FFF7E1FD03467E
:100620009AB207F10C031946204603F077FA0F201F
:1006300004F028FBCEE700BF880000208C000020DB
:100640009000002080B500AF034B1B681B68184664
:1006500004F00EFC00BF80BD8C00002080B500AF10
:1006600000F038FF00F06EF800F052FA00F0FAF9EE
:1006700000F0F6F800F0CCF900F0C4F800F074F9DE
:1006800000F09CF904F022FA1E4A0121012004F036
:1006900014FB03461C4A13601C4A0121012004F08C
:1006A0000CFB03461A4A13601A4A6421322004F0F4
:1006B00023FC0346184A1360184A15491648FFF7E9
:1006C00031FF174A0021174804F04AFA0346164A38
:1006D0001360164A0021164804F042FA0346154AF0
:1006E0001360154A0021154804F03AFA0346144AEB
:1006F00013600A4A06490848FFF7F8FE04F00AFAB0
:10070000FEE700BFF08600085804002000870008BC
:100710005C040020D886000854040020D801002082
:100720006C860008AD0B0008480400209086000885
:100730005D0500084C040020B4860008CD050008C3
:100740005004002080B594B000AF07F120033022A0
:100750000021184607F00EFE07F10C0300221A6074
:100760005A609A60DA601A610023BB60234B1B6CED
:10077000224A43F080531364204B1B6C03F08053D8
:10078000BB60BB6800237B601D4B1B6823F44043A8
:100790001B4A43F400431360194B1B6803F44043A6
:1007A0007B607B6802233B620123FB6210233B6377
:1007B0000023BB6307F12003184601F0F3FD034655
:1007C000002B01D000F009FA0F23FB6000233B61EE
:1007D00000237B610023BB610023FB6107F10C0355
:1007E0000021184602F056F80346002B01D000F015
:1007F000F4F900BF5037BD4680BD00BF003802404D
:100800000070004080B500AF124B134A1A60114BC4
:10081000124A5A600F4B00229A600E4B0022DA6097
:100820000C4B4FF480421A610A4B00225A61094B6B
:1008300000229A61074B0022DA61064B00221A62FD
:10084000044801F06BFC0346002B01D000F0C5F911
:1008500000BF80BD9400002000540040A08601002D
:1008600080B58EB000AF07F1280300221A605A60ED
:100870009A60DA6007F1200300221A605A603B1D7B
:1008800000221A605A609A60DA601A615A619A61AD
:10089000334B344A1A60324B0F225A60304B0022DD
:1008A0009A602F4B4FF6FF72DA602D4B00221A61CF
:1008B0002B4B80229A612A4802F0FEF90346002B56
:1008C00001D000F08AF94FF48053BB6207F128038E
:1008D0001946234802F0AEFC0346002B01D000F07D
:1008E0007CF91F4802F09AFA0346002B01D000F071
:1008F00074F900233B6200237B6207F12003194651
:10090000174803F039F80346002B01D000F065F9D1
:1009100060237B600023BB600023FB6000237B61BE
:100920003B1D002219460E4802F0C2FB0346002B75
:1009300001D000F052F91823BB603B1D0422194678
:10094000074802F0B5FB0346002B01D000F045F943
:10095000034800F031FA00BF3837BD4680BD00BF04
:10096000480100200004004080B500AF114B124A3E
:100970001A60104B4FF4E1325A600E4B00229A601D
:100980000C4B0022DA600B4B00221A61094B0C223F
:100990005A61084B00229A61064B0022DA61054831
:1009A00003F06CF80346002B01D000F016F900BFED
:1009B00080BD00BF900100200010014080B500AF55
:1009C000114B124A1A60104B4FF416525A600E4BDC
:1009D00000229A600C4B0022DA600B4B00221A6155
:1009E000094B0C225A61084B00229A61064B0022E7
:1009F000DA61054803F042F80346002B01D000F00D
:100A0000ECF800BF80BD00BFD801002000440040CA
:100A100080B500AF114B124A1A60104B4FF41652BA
:100A20005A600E4B00229A600C4B0022DA600B4B8E
:100A300000221A61094B0C225A61084B00229A616C
:100A4000064B0022DA61054803F018F80346002B34
:100A500001D000F0C2F800BF80BD00BF200200201E
:100A60000014014080B582B000AF00237B60274BAB
:100A70001B6B264A43F480031363244B1B6B03F464
:100A800080037B607B6800233B60204B1B6B1F4A0D
:100A900043F4001313631D4B1B6B03F400133B6003
:100AA0003B68002205210B2000F00EFE0B2000F019
:100AB00027FE00220521102000F006FE102000F085
:100AC0001FFE00220521112000F0FEFD112000F084
:100AD00017FE00220521392000F0F6FD392000F034
:100AE0000FFE002205213A2000F0EEFD3A2000F032
:100AF00007FE00220521452000F0E6FD452000F01C
:100B0000FFFD00BF0837BD4680BD00BF0038024072
:100B100080B483B000AF00237B60104B1B6B0F4A87
:100B200043F0010313630D4B1B6B03F001037B6068
:100B30007B6800233B60094B1B6B084A43F00203B0
:100B40001363064B1B6B03F002033B603B6800BF63
:100B50000C37BD465DF8047B704700BF003802408B
:100B600080B582B000AF78607B681B680B4A934207
:100B70000FD07B681B680A4A934202D1FFF762FDDF
:100B800007E07B681B68074A934202D1064803F0DE
:100B90001FFF00BF0837BD4680BD00BF00100140E9
:100BA00000440040001401406004002080B582B081
:100BB00000AF7860012004F065F8FBE780B582B0F3
:100BC00000AF78607B681B68B3F1804F01D100F003
:100BD000A3FC00BF0837BD4680BD80B400AF72B62D
:100BE00000BFFEE780B582B000AF00237B60124BF0
:100BF0005B6C114A43F4804353640F4B5B6C03F40A
:100C000080437B607B6800233B600B4B1B6C0A4A74
:100C100043F080531364084B1B6C03F080533B601C
:100C20003B6800220F216FF0010000F04DFD00BF76
:100C30000837BD4680BD00BF0038024080B58AB08D
:100C400000AF786007F1140300221A605A609A60BE
:100C5000DA601A617B681B683C4A934272D10023B8
:100C60003B613B4B1B6B3A4A43F400131363384B15
:100C70001B6B03F400133B613B690023FB60344BA7
:100C80001B6B334A43F002031363314B1B6B03F0BE
:100C90000203FB60FB68C0237B611223BB6100235E
:100CA000FB6103233B6204237B6207F114031946B3
:100CB000284801F0AFF80023BB60254B1B6C244A89
:100CC00043F400131364224B1B6C03F40013BB604A
:100CD000BB68214B214A1A601F4B4FF000725A60CB
:100CE0001D4B00229A601C4B0022DA601A4B4FF415
:100CF00080621A61184B00225A61174B4FF4005260
:100D00009A61154B0022DA61134B4FF480321A625C
:100D1000114B04225A62104B00229A620E4B0022A1
:100D2000DA620D4B00221A630B4800F0F7FC034611
:100D3000002B01D0FFF751FF7B68074A9A63064AF0
:100D40007B68936300BF2837BD4680BD00540040D8
:100D50000038024000040240E80000201060024019
:100D600080B584B000AF78607B681B680F4A9342FF
:100D700018D10023FB600E4B1B6C0D4A43F002039D
:100D800013640B4B1B6C03F00203FB60FB68002237
:100D900005211D2000F098FC1D2000F0B1FC054845
:100DA00000F00AF800BF1037BD4680BD00040040C7
:100DB000003802404801002080B58AB000AF78605A
:100DC00007F1140300221A605A609A60DA601A610F
:100DD0007B681B68214A93423BD100233B61204B37
:100DE0001B6B1F4A43F0010313631D4B1B6B03F086
:100DF00001033B613B690023FB60194B1B6B184AE5
:100E000043F002031363164B1B6B03F00203FB60FA
:100E1000FB6840237B610223BB610023FB6100234D
:100E20003B6202237B6207F1140319460D4800F070
:100E3000F1FF20237B610223BB610023FB610023C0
:100E40003B6202237B6207F114031946064800F057
:100E5000E1FF00BF2837BD4680BD00BF0004004051
:100E600000380240000002400004024080B58EB00D
:100E700000AF786007F1240300221A605A609A607C
:100E8000DA601A617B681B688E4A93426ED1002338
:100E90003B628D4B5B6C8C4A43F0100353648A4B6E
:100EA0005B6C03F010033B623B6A0023FB61864BE3
:100EB0001B6B854A43F001031363834B1B6B03F0E9
:100EC0000103FB61FB694FF4C0637B620223BB62D9
:100ED0000023FB6203233B6307237B6307F12403A7
:100EE00019467A4800F096FF794B7A4A1A60784B97
:100EF0004FF000625A60764B00229A60744B0022D9
:100F0000DA60734B4FF480621A61714B00225A61B0
:100F10006F4B4FF400529A616D4B0022DA616C4BBB
:100F20004FF480321A626A4B04225A62684B0022E4
:100F30009A62674B0022DA62654B00221A636448AA
:100F400000F0ECFB0346002B01D0FFF746FE7B6868
:100F50005F4ADA635E4A7B6893630022052125209D
:100F600000F0B2FB252000F0CBFB64E17B681B683E
:100F7000594A934240F0BA800023BB61524B1B6C2C
:100F8000514A43F4003313644F4B1B6C03F400339A
:100F9000BB61BB6900237B614B4B1B6B4A4A43F02F
:100FA00001031363484B1B6B03F001037B617B69F7
:100FB0000C237B620223BB620023FB6203233B639F
:100FC00007237B6307F124031946404800F022FF02
:100FD000424B434A1A60414B4FF000625A603F4B0C
:100FE00040229A603D4B0022DA603C4B4FF4806215
:100FF0001A613A4B00225A61384B4FF400529A6101
:10100000364B0022DA61354B00221A62334B042240
:101010005A62324B00229A62304B0022DA622F4B26
:1010200000221A632D4800F079FB0346002B01D003
:10103000FFF7D3FD7B68294A9A63284A7B6893634C
:10104000284B294A1A60274B4FF000625A60254B03
:1010500000229A60234B0022DA60224B4FF4806218
:101060001A61204B00225A611E4B4FF480429A6154
:101070001C4B0022DA611B4B00221A62194B04221E
:101080005A62184B01229A62164B0022DA62154B03
:1010900000221A63134800F041FB0346002B01D0E5
:1010A000FFF79BFD7B680F4ADA630E4A7B68936308
:1010B00000220521262000F007FB262000F020FB5F
:1010C000B9E000BF001001400038024000000240BB
:1010D000680200204064024000440040C802002032
:1010E000A060024028030020886002407B681B68E3
:1010F000534A934240F09F8000233B61514B1B6B4E
:10110000504A43F4800313634E4B1B6B03F480037C
:101110003B613B690023FB604A4B5B6C494A43F0EF
:1011200020035364474B5B6C03F02003FB60FB68B8
:101130000023BB60434B1B6B424A43F00103136324
:10114000404B1B6B03F00103BB60BB684FF4C05303
:101150007B620223BB620023FB6203233B63082301
:101160007B6307F124031946374800F053FE374BE1
:10117000374A1A60354B4FF020625A60334B402299
:101180009A60324B0022DA60304B4FF480621A6171
:101190002E4B00225A612D4B00229A612B4B0022CC
:1011A000DA612A4B00221A62284B00225A62274831
:1011B00000F0B4FA0346002B01D0FFF70EFD7B6868
:1011C000224A9A63214A7B689363224B224A1A601F
:1011D000204B4FF020625A601E4B00229A601D4B3C
:1011E0000022DA601B4B4FF480621A61194B002217
:1011F0005A61184B00229A61164B0022DA61154B96
:1012000000221A62134B00225A62124800F086FA3A
:101210000346002B01D0FFF7E0FC7B680D4ADA6340
:101220000C4A7B68936300220521472000F04CFAAA
:10123000472000F065FA00BF3837BD4680BD00BFCB
:1012400000140140003802400000024088030020E2
:10125000A0640240E80300202864024080B58EB0FC
:1012600000AF78600023FB620023BB620023FB60B9
:10127000344B1B6C334A43F001031364314B1B6C3A
:1012800003F00103FB60FB6807F1100207F1140390
:101290001146184601F0DEFC3B6AFB62FB6A002B3C
:1012A00003D101F0AFFC786304E001F0ABFC03462E
:1012B0005B007B637B6B244AA2FB03239B0C013BFB
:1012C000BB62224B4FF080421A60204B40F2E73263
:1012D000DA601E4ABB6A53601C4B00221A611B4B2A
:1012E00000229A60194B00229A61184801F0E4FC30
:1012F000034687F8333097F83330002B1BD113485F
:1013000001F02AFD034687F8333097F83330002B7D
:1013100011D11C2000F0F4F97B680F2B08D80022B3
:1013200079681C2000F0D0F9094A7B68136002E05C
:10133000012387F8333097F8333018463837BD46E5
:1013400080BD00BF0038024083DE1B437C040020C8
:101350000400002080B400AFFEE780B400AFFEE7D9
:1013600080B400AFFEE780B400AFFEE780B400AF0A
:10137000FEE780B400AF00BFBD465DF8047B704758
:1013800080B500AF024800F009FB00BF80BD00BF80
:10139000E800002080B500AF024800F0FFFA00BF6F
:1013A00080BD00BF2803002080B500AF024800F0D8
:1013B000F5FA00BF80BD00BFC802002080B500AFB5
:1013C000024801F084FD00BF80BD00BF7C04002006
:1013D00080B500AF024801F07AFD00BF80BD00BFBC
:1013E0004801002080B500AF024802F0F3FB00BFC7
:1013F00080BD00BF9001002080B500AF024802F020
:10140000E9FB00BF80BD00BFD801002080B500AF60
:10141000024800F0C3FA00BF80BD00BFE80300200F
:1014200080B500AF024800F0B9FA00BF80BD00BF30
:101430006802002080B500AF024800F0AFFA00BF9C
:1014400080BD00BF8803002080B500AF024802F0D5
:10145000C1FB00BF80BD00BF2002002080B400AFF0
:10146000064BD3F88830054A43F47003C2F888303D
:1014700000BFBD465DF8047B704700BF00ED00E093
:10148000DFF834D0FFF7EAFF0C480D490D4A00237E
:1014900002E0D458C4500433C4188C42F9D30A4A29
:1014A0000A4C002301E013600432A242FBD306F091
:1014B000BFFFFFF7D3F870470000012000000020B5
:1014C000600000204087000860000020F44F0020EA
:1014D000FEE7000080B500AF0E4B1B680D4A43F4D9
:1014E000007313600B4B1B680A4A43F4806313605C
:1014F000084B1B68074A43F480731360032000F015
:10150000D8F80F20FFF7AAFEFFF76CFB0023184660
:1015100080BD00BF003C024080B400AF064B1B788A
:101520001A46064B1B681344044A136000BFBD46AD
:101530005DF8047B704700BF08000020C404002051
:1015400080B400AF034B1B681846BD465DF8047BB2
:10155000704700BFC404002080B485B000AF78603D
:101560007B6803F00703FB600C4BDB68BB60BA6869
:101570004FF6FF031340BB60FB681A02BB681343BE
:1015800043F0BF6343F40033BB60044ABB68D360DD
:1015900000BF1437BD465DF8047B704700ED00E0E6
:1015A00080B400AF044BDB681B0A03F00703184646
:1015B000BD465DF8047B704700ED00E080B483B069
:1015C00000AF0346FB7197F90730002B0BDBFB796B
:1015D00003F01F02074997F907305B09012000FA61
:1015E00002F241F8232000BF0C37BD465DF8047BB2
:1015F000704700BF00E100E080B483B000AF034655
:101600003960FB7197F90730002B0ADB3B68DAB2CF
:101610000C4997F907301201D2B20B4483F800232A
:101620000AE03B68DAB20849FB7903F00F03043B98
:101630001201D2B20B441A7600BF0C37BD465DF8DA
:10164000047B704700E100E000ED00E080B489B069
:1016500000AFF860B9607A60FB6803F00703FB61D4
:10166000FB69C3F10703042B28BF0423BB61FB699B
:101670000433062B02D9FB69033B00E000237B61A6
:101680004FF0FF32BB6902FA03F3DA43BB681A403A
:101690007B699A404FF0FF317B6901FA03F3D9432C
:1016A0007B680B40134318462437BD465DF8047B26
:1016B000704780B582B000AF78607868FFF74CFF64
:1016C00000BF0837BD4680BD80B586B000AF034679
:1016D000B9607A60FB7300237B61FFF761FF78617B
:1016E0007A68B9687869FFF7B1FF024697F90F3059
:1016F00011461846FFF780FF00BF1837BD4680BD72
:1017000080B582B000AF0346FB7197F907301846E9
:10171000FFF754FF00BF0837BD4680BD80B586B0D7
:1017200000AF786000237B61FFF70AFF38617B68B8
:10173000002B01D1012399E07B68022283F8352038
:101740007B68002283F834207B681B681A687B68FA
:101750001B6822F001021A600FE0FFF7F1FE02465B
:101760003B69D31A052B08D97B6820225A657B6810
:10177000032283F83520032378E07B681B681B680D
:1017800003F00103002BE8D17B681B681B687B61B9
:101790007A69384B13407B617B685A687B689B6829
:1017A0001A437B68DB681A437B681B691A437B68B2
:1017B0005B691A437B689B691A437B68DB691A4340
:1017C0007B681B6A13437A6913437B617B685B6A9E
:1017D000042B07D17B68DA6A7B681B6B13437A6939
:1017E00013437B617B681B687A691A607B681B689E
:1017F0005B697B617B6923F007037B617B685B6AC4
:101800007A6913437B617B685B6A042B17D17B6821
:101810009B6A7A6913437B617B68DB6A002B0ED07D
:10182000786800F07BFA0346002B08D07B684022E2
:101830005A657B68012283F83520012316E07B6816
:101840001B687A695A61786800F032FA0346FB60D7
:101850007B68DB6D3F229A40FB689A607B680022C0
:101860005A657B68012283F8352000231846183713
:10187000BD4680BD3F8010F080B584B000AF786079
:101880007B689B6DFB60FFF75BFEB8607B6893F83D
:101890003530DBB2022B08D07B6880225A657B682A
:1018A000002283F83420012352E07B681B681A6809
:1018B0007B681B6822F016021A607B681B685A69F5
:1018C0007B681B6822F080025A617B681B6C002BCE
:1018D00003D17B689B6C002B07D07B681B681A6860
:1018E0007B681B6822F008021A607B681B681A6814
:1018F0007B681B6822F001021A6013E0FFF720FEEC
:101900000246BB68D31A052B0CD97B6820225A6586
:101910007B68032283F835207B68002283F834201B
:10192000032315E07B681B681B6803F00103002B91
:10193000E4D17B68DB6D3F229A40FB689A607B684C
:10194000012283F835207B68002283F834200023AD
:1019500018461037BD4680BD80B483B000AF7860B4
:101960007B6893F83530DBB2022B04D07B68802291
:101970005A6501230CE07B68052283F835207B68DB
:101980001B681A687B681B6822F001021A6000233A
:1019900018460C37BD465DF8047B704780B586B0AD
:1019A00000AF78600023BB608E4B1B688E4AA2FBA1
:1019B00003239B0A7B617B689B6D3B613B691B68D2
:1019C000FB607B68DB6D08229A40FB681340002BAC
:1019D0001AD07B681B681B6803F00403002B13D02C
:1019E0007B681B681A687B681B6822F004021A6017
:1019F0007B68DB6D08229A403B699A607B685B6D6F
:101A000043F001027B685A657B68DB6D01229A40D6
:101A1000FB681340002B12D07B681B685B6903F0E6
:101A20008003002B0BD07B68DB6D01229A403B6961
:101A30009A607B685B6D43F002027B685A657B6845
:101A4000DB6D04229A40FB681340002B12D07B68A8
:101A50001B681B6803F00203002B0BD07B68DB6D57
:101A600004229A403B699A607B685B6D43F00402F4
:101A70007B685A657B68DB6D10229A40FB681340D7
:101A8000002B43D07B681B681B6803F00803002B06
:101A90003CD07B68DB6D10229A403B699A607B6882
:101AA0001B681B6803F48023002B18D07B681B681D
:101AB0001B6803F40023002B08D17B681B6C002BF0
:101AC00024D07B681B6C786898471FE07B689B6C10
:101AD000002B1BD07B689B6C7868984716E07B686E
:101AE0001B681B6803F48073002B07D17B681B689D
:101AF0001A687B681B6822F008021A607B681B6CFE
:101B0000002B03D07B681B6C786898477B68DB6D83
:101B100020229A40FB681340002B00F08F807B68E6
:101B20001B681B6803F01003002B00F087807B68A4
:101B3000DB6D20229A403B699A607B6893F83530D0
:101B4000DBB2052B36D17B681B681A687B681B6883
:101B500022F016021A607B681B685A697B681B6852
:101B600022F080025A617B681B6C002B03D17B68DA
:101B70009B6C002B07D07B681B681A687B681B680E
:101B800022F008021A607B68DB6D3F229A403B69B5
:101B90009A607B68012283F835207B68002283F8F5
:101BA00034207B681B6D002B7ED07B681B6D7868B2
:101BB000984779E07B681B681B6803F48023002B3F
:101BC0001DD07B681B681B6803F40023002B0DD11C
:101BD0007B685B6C002B31D07B685B6C78689847C6
:101BE0002CE000BF00000020B5814E1B7B68DB6B42
:101BF000002B23D07B68DB6B786898471EE07B68FE
:101C00001B681B6803F48073002B0FD17B681B6873
:101C10001A687B681B6822F010021A607B68012238
:101C200083F835207B68002283F834207B68DB6BE7
:101C3000002B03D07B68DB6B786898477B685B6D13
:101C4000002B32D07B685B6D03F00103002B22D0A8
:101C50007B68052283F835207B681B681A687B68DF
:101C60001B6822F001021A60BB680133BB607A690D
:101C70009A4207D37B681B681B6803F00103002BA3
:101C8000F2D100E000BF7B68012283F835207B6839
:101C9000002283F834207B68DB6C002B05D07B6846
:101CA000DB6C7868984700E000BF1837BD4680BD00
:101CB00080B485B000AF78607B681B68DBB2103BF6
:101CC000144AA2FB03231B09FB60134AFB6813445D
:101CD0001B781A467B68DA65FB68032B09D97B6899
:101CE0001B6823F47F7323F003031A1D7B689A6536
:101CF00007E07B681B6823F47F7323F003037A6893
:101D000093657B689B6D18461437BD465DF8047B70
:101D1000704700BFABAAAAAA2887000880B485B084
:101D200000AF78600023FB737B689B6ABB607B68B5
:101D30009B69002B1FD1BB68032B56D801A252F818
:101D400023F000BF551D0008671D0008551D000841
:101D5000EB1D00087B68DB6A03F08073002B46D024
:101D60000123FB7343E07B68DB6AB3F1C07F40D1A2
:101D70000123FB733DE07B689B69B3F5005F21D1D4
:101D8000BB68032B37D801A252F823F09D1D000831
:101D9000A31D00089D1D0008B51D00080123FB734D
:101DA00030E07B68DB6A03F08073002B25D00123D1
:101DB000FB7322E07B68DB6AB3F1C07F1FD1012394
:101DC000FB731CE0BB68022B03D9BB68032B03D059
:101DD00018E00123FB7315E07B68DB6A03F0807376
:101DE000002B0ED00123FB730BE000BF0AE000BF05
:101DF00008E000BF06E000BF04E000BF02E000BF53
:101E000000E000BFFB7B18461437BD465DF8047B3D
:101E1000704700BF80B489B000AF7860396000239C
:101E20007B6100233B610023BB610023FB6159E11F
:101E30000122FB6902FA03F37B613B681B687A6944
:101E400013403B613A697B699A4240F048813B68A4
:101E50005B6803F00303012B05D03B685B6803F06C
:101E60000303022B30D17B689B68BB61FB695B007D
:101E7000032202FA03F3DB43BA691340BB613B68F8
:101E8000DA68FB695B0002FA03F3BA691343BB61CA
:101E90007B68BA699A607B685B68BB610122FB69F9
:101EA00002FA03F3DB43BA691340BB613B685B682A
:101EB0001B0903F00102FB6902FA03F3BA69134339
:101EC000BB617B68BA695A603B685B6803F00303D7
:101ED000032B17D07B68DB68BB61FB695B000322C7
:101EE00002FA03F3DB43BA691340BB613B689A68AB
:101EF000FB695B0002FA03F3BA691343BB617B68B9
:101F0000BA69DA603B685B6803F00303022B23D1F4
:101F1000FB69DA087B68083253F82230BB61FB6941
:101F200003F007039B000F2202FA03F3DB43BA69B5
:101F30001340BB613B681A69FB6903F007039B0010
:101F400002FA03F3BA691343BB61FB69DA087B68E1
:101F50000832B96943F822107B681B68BB61FB69D2
:101F60005B00032202FA03F3DB43BA691340BB614F
:101F70003B685B6803F00302FB695B0002FA03F352
:101F8000BA691343BB617B68BA691A603B685B68D6
:101F900003F44033002B00F0A2800023FB60574B7A
:101FA0005B6C564A43F480435364544B5B6C03F4BC
:101FB0008043FB60FB68524AFB699B08023352F87E
:101FC0002330BB61FB6903F003039B000F2202FA7D
:101FD00003F3DB43BA691340BB617B68494A934210
:101FE00019D07B68484A934213D07B68474A934292
:101FF0000DD07B68464A934207D07B68454A93429E
:1020000001D1042308E0072306E0032304E00223B0
:1020100002E0012300E00023FA6902F003029200CB
:102020009340BA691343BB613549FB699B0802338E
:10203000BA6941F82320384B9B68BB613B69DB439D
:10204000BA691340BB613B685B6803F48013002BE3
:1020500003D0BA693B691343BB612F4ABB699360E4
:102060002D4BDB68BB613B69DB43BA691340BB6145
:102070003B685B6803F40013002B03D0BA693B692B
:102080001343BB61244ABB69D360234B5B68BB61CC
:102090003B69DB43BA691340BB613B685B6803F48F
:1020A0000033002B03D0BA693B691343BB611A4A62
:1020B000BB695360184B1B68BB613B69DB43BA6962
:1020C0001340BB613B685B6803F48033002B03D093
:1020D000BA693B691343BB610F4ABB691360FB6973
:1020E0000133FB61FB690F2B7FF6A2AE00BF00BF7F
:1020F0002437BD465DF8047B704700BF00380240BE
:102100000038014000000240000402400008024084
:10211000000C024000100240003C014080B584B039
:1021200000AF78607B68002B01D101232BE17B6835
:1021300093F83D30DBB2002B06D17B68002283F898
:102140003C207868FEF77AFD7B68242283F83D20E6
:102150007B681B681A687B681B6822F001021A60A2
:102160007B681B681A687B681B6842F400421A602F
:102170007B681B681A687B681B6822F400421A603F
:1021800000F040FDF8607B685B68814A934207D8A5
:10219000FB68804A934294BF01230023DBB206E030
:1021A000FB687D4A934294BF01230023DBB2002BDE
:1021B00001D00123E7E0FB68784AA2FB03239B0CD4
:1021C000BB607B681B685B6823F03F017B681B6812
:1021D000BA680A435A607B681B681B6A23F03F0198
:1021E0007B685B686A4A934202D8BB68013309E0A6
:1021F000BB684FF4967202FB03F3694AA2FB032308
:102200009B0901337A6812680B4313627B681B6871
:10221000DB6923F44F4222F0FF027B685B685C4974
:102220008B4219D8FB68591E7B685B685B00B1FB69
:10223000F3F3591C40F6FC730B40002B0AD0FB68EB
:10224000591E7B685B685B00B1FBF3F30133C3F39A
:102250000B0351E004234FE07B689B68002B11D1F6
:10226000FB68581E7B6859680B465B000B44B0FB4B
:10227000F3F30133C3F30B03002B0CBF0123002343
:10228000DBB212E0FB68581E7B6859680B469B0066
:102290000B4499000B44B0FBF3F30133C3F30B037E
:1022A000002B0CBF01230023DBB2002B01D0012344
:1022B00022E07B689B68002B0ED1FB68581E7B6870
:1022C00059680B465B000B44B0FBF3F30133C3F3D7
:1022D0000B0343F400430FE0FB68581E7B6859680A
:1022E0000B469B000B4499000B44B0FBF3F3013306
:1022F000C3F30B0343F44043796809681343CB618C
:102300007B681B681B6823F0C0017B68DA697B6807
:102310001B6A1A437B681B680A431A607B681B6848
:102320009B6823F4034323F0FF037A6811697A68FA
:10233000D26811437A6812680B4393607B681B680C
:10234000DB6823F0FF017B685A697B689B691A434D
:102350007B681B680A43DA607B681B681A687B68C5
:102360001B6842F001021A607B6800221A647B68D5
:10237000202283F83D207B6800221A637B680022BC
:1023800083F83E20002318461037BD4680BD00BFAD
:10239000A08601007F841E00FF083D0083DE1B43F2
:1023A000D34D621080B586B000AF78607B68002B9B
:1023B00001D1012367E27B681B6803F00103002B56
:1023C00075D0884B9B6803F00C03042B0CD0854B15
:1023D0009B6803F00C03082B12D1824B5B6803F45B
:1023E0008003B3F5800F0BD17E4B1B6803F40033E1
:1023F000002B5BD07B685B68002B57D1012342E246
:102400007B685B68B3F5803F06D1764B1B68754AE5
:1024100043F4803313601DE07B685B68B3F5A02F45
:102420000CD1704B1B686F4A43F4802313606D4BD3
:102430001B686C4A43F4803313600BE0694B1B68E4
:10244000684A23F480331360664B1B68654A23F4A3
:10245000802313607B685B68002B13D0FFF770F854
:10246000386108E0FFF76CF802463B69D31A642B29
:1024700001D9032307E25B4B1B6803F40033002BF5
:10248000F0D014E0FFF75CF8386108E0FFF758F887
:1024900002463B69D31A642B01D90323F3E1514B64
:1024A0001B6803F40033002BF0D100E000BF7B6811
:1024B0001B6803F00203002B63D04A4B9B6803F0B8
:1024C0000C03002B0BD0474B9B6803F00C03082B2D
:1024D0001CD1444B5B6803F48003002B16D1414BA5
:1024E0001B6803F00203002B05D07B68DB68012B1F
:1024F00001D00123C7E13B4B1B6823F0F8027B6846
:102500001B69DB00374913430B603AE07B68DB68EB
:10251000002B20D0344B01221A60FFF711F83861EC
:1025200008E0FFF70DF802463B69D31A022B01D9E8
:102530000323A8E12B4B1B6803F00203002BF0D010
:10254000284B1B6823F0F8027B681B69DB002549D8
:1025500013430B6015E0244B00221A60FEF7F0FFD6
:10256000386108E0FEF7ECFF02463B69D31A022B04
:1025700001D9032387E11B4B1B6803F00203002BE7
:10258000F0D17B681B6803F00803002B36D07B6812
:102590005B69002B16D0154B01221A60FEF7D0FFA5
:1025A000386108E0FEF7CCFF02463B69D31A022BE4
:1025B00001D9032367E10B4B5B6F03F00203002B90
:1025C000F0D01BE0094B00221A60FEF7B9FF38611A
:1025D0000EE0FEF7B5FF02463B69D31A022B07D97E
:1025E000032350E10038024000004742800E47427A
:1025F000884B5B6F03F00203002BEAD17B681B68FA
:1026000003F00403002B00F097800023FB75814B3F
:102610001B6C03F08053002B0FD10023BB607D4B5C
:102620001B6C7C4A43F0805313647A4B1B6C03F0A1
:102630008053BB60BB680123FB75774B1B6803F4B9
:102640008073002B18D1744B1B68734A43F480735A
:102650001360FEF775FF386108E0FEF771FF024670
:102660003B69D31A022B01D903230CE16A4B1B6887
:1026700003F48073002BF0D07B689B68012B06D19C
:10268000644B1B6F634A43F0010313671CE07B68D4
:102690009B68052B0CD15F4B1B6F5E4A43F0040314
:1026A00013675C4B1B6F5B4A43F0010313670BE03E
:1026B000584B1B6F574A23F001031367554B1B6F91
:1026C000544A23F0040313677B689B68002B15D0E2
:1026D000FEF736FF38610AE0FEF732FF02463B693B
:1026E000D31A41F28832934201D90323CBE0494BFC
:1026F0001B6F03F00203002BEED014E0FEF720FF67
:1027000038610AE0FEF71CFF02463B69D31A41F22A
:102710008832934201D90323B5E03E4B1B6F03F08F
:102720000203002BEED1FB7D012B05D1394B1B6C35
:10273000384A23F0805313647B689B69002B00F0B8
:10274000A180344B9B6803F00C03082B5CD07B68A2
:102750009B69022B41D1314B00221A60FEF7F0FE3B
:10276000386108E0FEF7ECFE02463B69D31A022B03
:1027700001D9032387E0274B1B6803F00073002B6C
:10278000F0D17B68DA697B681B6A1A437B685B6AF5
:102790009B011A437B689B6A5B08013B1B041A433D
:1027A0007B68DB6A1B061B4913434B601B4B0122F2
:1027B0001A60FEF7C5FE386108E0FEF7C1FE02466A
:1027C0003B69D31A022B01D903235CE0114B1B6830
:1027D00003F00073002BF0D054E0104B00221A607D
:1027E000FEF7AEFE386108E0FEF7AAFE02463B693E
:1027F000D31A022B01D9032345E0064B1B6803F0D3
:102800000073002BF0D13DE07B689B69012B07D161
:10281000012338E000380240007000406000474269
:102820001B4B5B68FB607B689B69012B28D0FB68B6
:1028300003F480027B68DB699A4221D1FB6803F0D4
:102840003F027B681B6A9A421AD1FA6847F6C07346
:1028500013407A68526A9201934211D1FB6803F4E3
:1028600040327B689B6A5B08013B1B049A4207D19C
:10287000FB6803F070627B68DB6A1B069A4201D03A
:10288000012300E0002318461837BD4680BD00BF75
:102890000038024080B584B000AF786039607B6852
:1028A000002B01D10123CCE0684B1B6803F0070328
:1028B0003A689A420CD9654B3A68D2B21A70634BA7
:1028C0001B6803F007033A689A4201D00123B8E07D
:1028D0007B681B6803F00203002B20D07B681B6819
:1028E00003F00403002B05D0594B9B68584A43F46E
:1028F000E05393607B681B6803F00803002B05D04E
:10290000534B9B68524A43F460439360504B9B681F
:1029100023F0F0027B689B684D4913438B607B6812
:102920001B6803F00103002B44D07B685B68012B1C
:1029300007D1474B1B6803F40033002B19D1012347
:102940007FE07B685B68022B03D07B685B68032BAE
:1029500007D13F4B1B6803F00073002B09D1012303
:102960006FE03B4B1B6803F00203002B01D10123F6
:1029700067E0374B9B6823F003027B685B68344950
:1029800013438B60FEF7DCFDF8600AE0FEF7D8FD2C
:102990000246FB68D31A41F28832934201D90323DD
:1029A0004FE02B4B9B6803F00C027B685B689B003D
:1029B0009A42EBD1254B1B6803F007033A689A4211
:1029C0000CD2224B3A68D2B21A70204B1B6803F02B
:1029D00007033A689A4201D0012332E07B681B6802
:1029E00003F00403002B08D0194B9B6823F4E0523A
:1029F0007B68DB68164913438B607B681B6803F0B8
:102A00000803002B09D0124B9B6823F460427B68BB
:102A10001B69DB000E4913438B6000F021F802466E
:102A20000B4B9B681B0903F00F030A49CB5C22FA8E
:102A300003F3094A1360094B1B681846FEF70EFCA6
:102A4000002318461037BD4680BD00BF003C024041
:102A50000038024010870008000000200400002019
:102A60002DE9B04F90B000AF00237B630023FB63E0
:102A700000233B630023BB63594B9B6803F00C03AB
:102A8000082B0DD0082B00F2A180002B02D0042BC4
:102A900003D09BE0534BBB639BE0534BBB6398E07D
:102AA0004F4B5B6803F03F037B634D4B5B6803F464
:102AB0008003002B28D04A4B5B689B0900223B62B5
:102AC0007A623B6AC3F308000021474B03FB01F223
:102AD000002300FB03F31344434AA0FB0212FA62F3
:102AE0000A46BA62FA6A1344FB627B6B0022BB613E
:102AF000FA61D7E90623D7E90A01FDF779FB024617
:102B00000B461346FB6353E0354B5B689B09002281
:102B10003B617A613B69C3F3080A4FF0000B5246F0
:102B20005B464FF000004FF00001590141EAD261CD
:102B3000500102460B46B2EB0A0863EB0B094FF05B
:102B400000024FF000034FEA891343EA98634FEA0B
:102B50008812B2EB080463EB09054FF000024FF056
:102B60000003EB0043EA5473E20014461D4614EBE5
:102B70000A033B6045EB0B037B604FF000024FF014
:102B80000003D7E9004529468B02214643EA9153C9
:102B900021468A02104619467B6B0022BB60FA6010
:102BA000D7E90223FDF724FB02460B461346FB63DD
:102BB0000B4B5B681B0C03F0030301335B003B63AF
:102BC000FA6B3B6BB2FBF3F3BB6302E0054BBB63F9
:102BD00000BFBB6B18464037BD46BDE8B08F00BF95
:102BE000003802400024F40040787D0180B400AF3A
:102BF000034B1B681846BD465DF8047B704700BF59
:102C00000000002080B500AFFFF7F0FF0246054B43
:102C10009B689B0A03F007030349CB5C22FA03F38A
:102C2000184680BD003802402087000880B500AFFC
:102C3000FFF7DCFF0246054B9B685B0B03F00703C5
:102C40000349CB5C22FA03F3184680BD00380240EA
:102C50002087000880B483B000AF786039607B685B
:102C60000F221A60124B9B6803F003027B685A60C4
:102C70000F4B9B6803F0F0027B689A600C4B9B68DB
:102C800003F4E0527B68DA60094B9B68DB0803F4CD
:102C9000E0527B681A61074B1B6803F007023B6830
:102CA0001A6000BF0C37BD465DF8047B704700BF5B
:102CB00000380240003C024080B582B000AF78602E
:102CC0007B68002B01D1012341E07B6893F83D3004
:102CD000DBB2002B06D17B68002283F83C207868A9
:102CE000FEF73EF87B68022283F83D207B681A6875
:102CF0007B6804331946104600F08CFB7B68012288
:102D000083F846207B68012283F83E207B680122FD
:102D100083F83F207B68012283F840207B680122F2
:102D200083F841207B68012283F842207B680122DE
:102D300083F843207B68012283F844207B680122CA
:102D400083F845207B68012283F83D200023184644
:102D50000837BD4680BD000080B485B000AF786004
:102D60007B6893F83D30DBB2012B01D0012344E0B6
:102D70007B68022283F83D207B681B68DA687B68E9
:102D80001B6842F00102DA607B681B681E4A9342AE
:102D900018D07B681B68B3F1804F13D07B681B6829
:102DA0001A4A93420ED07B681B68194A934209D095
:102DB0007B681B68174A934204D07B681B68164ADD
:102DC000934211D17B681B689B6803F00703FB608B
:102DD000FB68062B10D07B681B681A687B681B6831
:102DE00042F001021A6007E07B681B681A687B6882
:102DF0001B6842F001021A60002318461437BD46D2
:102E00005DF8047B704700BF0000014000040040F3
:102E100000080040000C00400040014080B582B036
:102E200000AF78607B68002B01D1012341E07B6813
:102E300093F83D30DBB2002B06D17B68002283F88B
:102E40003C20786800F039F87B68022283F83D2046
:102E50007B681A687B6804331946104600F0DAFA7A
:102E60007B68012283F846207B68012283F83E209C
:102E70007B68012283F83F207B68012283F8402091
:102E80007B68012283F841207B68012283F842207D
:102E90007B68012283F843207B68012283F8442069
:102EA0007B68012283F845207B68012283F83D205E
:102EB000002318460837BD4680BD80B483B000AFFC
:102EC000786000BF0C37BD465DF8047B704780B565
:102ED00084B000AF78607B681B68DB68FB607B6850
:102EE0001B681B69BB60BB6803F00203002B20D08A
:102EF000FB6803F00203002B1BD07B681B686FF09C
:102F000002021A617B6801221A777B681B689B6941
:102F100003F00303002B03D0786800F05CFA05E0AF
:102F2000786800F04EFA786800F05FFA7B6800225B
:102F30001A77BB6803F00403002B20D0FB6803F072
:102F40000403002B1BD07B681B686FF004021A611E
:102F50007B6802221A777B681B689B6903F44073C5
:102F6000002B03D0786800F036FA05E0786800F0AE
:102F700028FA786800F039FA7B6800221A77BB6873
:102F800003F00803002B20D0FB6803F00803002B9C
:102F90001BD07B681B686FF008021A617B680422F3
:102FA0001A777B681B68DB6903F00303002B03D0EF
:102FB000786800F010FA05E0786800F002FA7868A6
:102FC00000F013FA7B6800221A77BB6803F0100345
:102FD000002B20D0FB6803F01003002B1BD07B6874
:102FE0001B686FF010021A617B6808221A777B68F1
:102FF0001B68DB6903F44073002B03D0786800F092
:10300000EAF905E0786800F0DCF9786800F0EDF99D
:103010007B6800221A77BB6803F00103002B0CD0F9
:10302000FB6803F00103002B07D07B681B686FF07F
:1030300001021A617868FDF7C1FDBB6803F08003E7
:10304000002B0CD0FB6803F08003002B07D07B68BB
:103050001B686FF080021A61786800F005FDBB689C
:1030600003F04003002B0CD0FB6803F04003002B5F
:1030700007D07B681B686FF040021A61786800F027
:10308000BEF9BB6803F02003002B0CD0FB6803F0F3
:103090002003002B07D07B681B686FF020021A61A9
:1030A000786800F0D7FC00BF1037BD4680BD000037
:1030B00080B586B000AFF860B9607A600023FB7518
:1030C000FB6893F83C30012B01D10223AEE0FB6892
:1030D000012283F83C207B680C2B00F29F8001A228
:1030E00052F823F0193100081D3200081D32000883
:1030F0001D320008593100081D3200081D32000839
:103100001D3200089B3100081D3200081D320008E6
:103110001D320008DB310008FB681B68B9681846DF
:1031200000F004FAFB681B689A69FB681B6842F0B0
:1031300008029A61FB681B689A69FB681B6822F0A9
:1031400004029A61FB681B689969BB681A69FB688D
:103150001B680A439A6164E0FB681B68B9681846FB
:1031600000F04AFAFB681B689A69FB681B6842F426
:1031700000629A61FB681B689A69FB681B6822F40D
:1031800080629A61FB681B689969BB681B691A02B7
:10319000FB681B680A439A6143E0FB681B68B968D7
:1031A000184600F095FAFB681B68DA69FB681B6833
:1031B00042F00802DA61FB681B68DA69FB681B6889
:1031C00022F00402DA61FB681B68D969BB681A69DE
:1031D000FB681B680A43DA6123E0FB681B68B96877
:1031E000184600F0DFFAFB681B68DA69FB681B68A9
:1031F00042F40062DA61FB681B68DA69FB681B68ED
:1032000022F48062DA61FB681B68D969BB681B69BC
:103210001A02FB681B680A43DA6102E00123FB75AE
:1032200000BFFB68002283F83C20FB7D184618375E
:10323000BD4680BD80B584B000AF786039600023A2
:10324000FB737B6893F83C30012B01D10223B4E07F
:103250007B68012283F83C207B68022283F83D20B2
:103260007B681B689B68BB60BB6823F07703BB600F
:10327000BB6823F47F43BB607B681B68BA689A60B5
:103280003B681B68B3F5005F3ED0B3F5005F00F20A
:103290008780B3F5805F00F08680B3F5805F7FD8CC
:1032A000702B1AD0702B7BD8602B50D0602B77D826
:1032B000502B3CD0502B73D8402B58D0402B6FD87C
:1032C000302B64D0302B6BD8202B60D0202B67D8CC
:1032D000002B5CD0102B5AD062E07B6818683B68EA
:1032E00099683B685A683B68DB6800F025FB7B689F
:1032F0001B689B68BB60BB6843F07703BB607B685F
:103300001B68BA689A604FE07B6818683B689968E8
:103310003B685A683B68DB6800F00EFB7B681B6803
:103320009A687B681B6842F480429A603CE07B6844
:1033300018683B6859683B68DB681A4600F082FAF7
:103340007B681B685021184600F0DBFA2CE07B6894
:1033500018683B6859683B68DB681A4600F0A1FAB8
:103360007B681B686021184600F0CBFA1CE07B6884
:1033700018683B6859683B68DB681A4600F062FAD7
:103380007B681B684021184600F0BBFA0CE07B68A4
:103390001A683B681B681946104600F0B2FA03E051
:1033A0000123FB7300E000BF7B68012283F83D200E
:1033B0007B68002283F83C20FB7B18461037BD4613
:1033C00080BD80B483B000AF786000BF0C37BD46CD
:1033D0005DF8047B704780B483B000AF786000BFB5
:1033E0000C37BD465DF8047B704780B483B000AFF6
:1033F000786000BF0C37BD465DF8047B704780B431
:1034000083B000AF786000BF0C37BD465DF8047B29
:103410007047000080B485B000AF786039607B6889
:103420001B68FB607B683A4A93420FD07B68B3F11C
:10343000804F0BD07B68374A934207D07B68364A6F
:10344000934203D07B68354A934208D1FB6823F04E
:103450007003FB603B685B68FA681343FB607B6842
:103460002B4A93421BD07B68B3F1804F17D07B6807
:10347000284A934213D07B68274A93420FD07B6837
:10348000264A93420BD07B68254A934207D07B683B
:10349000244A934203D07B68234A934208D1FB68B5
:1034A00023F44073FB603B68DB68FA681343FB60FE
:1034B000FB6823F080023B685B691343FB607B6819
:1034C000FA681A603B689A687B68DA623B681A6837
:1034D0007B689A627B680E4A934203D13B681A6903
:1034E0007B681A637B6801225A617B681B6903F061
:1034F0000103012B05D17B681B6923F001027B6866
:103500001A6100BF1437BD465DF8047B704700BFE9
:10351000000001400004004000080040000C004092
:1035200000400140004401400048014080B487B0A1
:1035300000AF786039607B681B6A7B617B681B6ABF
:1035400023F001027B681A627B685B683B617B68E1
:103550009B69FB60FB6823F07003FB60FB6823F052
:103560000303FB603B681B68FA681343FB607B69DD
:1035700023F002037B613B689B687A6913437B619C
:103580007B681C4A93420CD17B6923F008037B6162
:103590003B68DB687A6913437B617B6923F0040332
:1035A0007B617B68134A934211D13B6923F480739A
:1035B0003B613B6923F400733B613B685B693A699B
:1035C00013433B613B689B693A6913433B617B68EA
:1035D0003A695A607B68FA689A613B685A687B6806
:1035E0005A637B687A691A6200BF1C37BD465DF872
:1035F000047B70470000014080B487B000AF786062
:1036000039607B681B6A7B617B681B6A23F0100250
:103610007B681A627B685B683B617B689B69FB60C7
:10362000FB6823F4E043FB60FB6823F44073FB601A
:103630003B681B681B02FA681343FB607B6923F03D
:1036400020037B613B689B681B017A6913437B61A4
:103650007B681E4A93420DD17B6923F080037B6116
:103660003B68DB681B017A6913437B617B6923F04C
:1036700040037B617B68154A934213D13B6923F475
:1036800080633B613B6923F400633B613B685B699A
:103690009B003A6913433B613B689B699B003A6915
:1036A00013433B617B683A695A607B68FA689A61A8
:1036B0003B685A687B689A637B687A691A6200BFC4
:1036C0001C37BD465DF8047B704700BF0000014019
:1036D00080B487B000AF786039607B681B6A7B611B
:1036E0007B681B6A23F480727B681A627B685B6864
:1036F0003B617B68DB69FB60FB6823F07003FB6068
:10370000FB6823F00303FB603B681B68FA68134304
:10371000FB607B6923F400737B613B689B681B0241
:103720007A6913437B617B681D4A93420DD17B69A3
:1037300023F400637B613B68DB681B027A691343F7
:103740007B617B6923F480637B617B68144A9342CD
:1037500013D13B6923F480533B613B6923F400534D
:103760003B613B685B691B013A6913433B613B6802
:103770009B691B013A6913433B617B683A695A6054
:103780007B68FA68DA613B685A687B68DA637B6851
:103790007A691A6200BF1C37BD465DF8047B70472A
:1037A0000000014080B487B000AF786039607B686A
:1037B0001B6A3B617B681B6A23F480527B681A6238
:1037C0007B685B687B617B68DB69FB60FB6823F47B
:1037D000E043FB60FB6823F44073FB603B681B68BD
:1037E0001B02FA681343FB603B6923F400533B61FF
:1037F0003B689B681B033A6913433B617B68104A33
:10380000934209D17B6923F480437B613B685B6908
:103810009B017A6913437B617B687A695A607B6894
:10382000FA68DA613B685A687B681A647B683A69AF
:103830001A6200BF1C37BD465DF8047B704700BFAD
:103840000000014080B487B000AFF860B9607A60D2
:10385000FB681B6A7B61FB681B6A23F00102FB6843
:103860001A62FB689B693B613B6923F0F0033B6193
:103870007B681B013A6913433B617B6923F00A03B0
:103880007B617A69BB6813437B61FB683A699A6123
:10389000FB687A691A6200BF1C37BD465DF8047B7D
:1038A000704780B487B000AFF860B9607A60FB6899
:1038B0001B6A7B61FB681B6A23F01002FB681A62BB
:1038C000FB689B693B613B6923F470433B617B6808
:1038D0001B033A6913433B617B6923F0A0037B61BF
:1038E000BB681B017A6913437B61FB683A699A6183
:1038F000FB687A691A6200BF1C37BD465DF8047B1D
:10390000704780B485B000AF786039607B689B6891
:10391000FB60FB6823F07003FB603A68FB681343AD
:1039200043F00703FB607B68FA689A6000BF1437B6
:10393000BD465DF8047B704780B487B000AFF86087
:10394000B9607A603B60FB689B687B617B6923F4AC
:103950007F437B613B681A027B681A43BB68134351
:103960007A6913437B61FB687A699A6000BF1C37F0
:10397000BD465DF8047B704780B485B000AF7860C9
:1039800039607B6893F83C30012B01D1022350E071
:103990007B68012283F83C207B68022283F83D206B
:1039A0007B681B685B68FB607B681B689B68BB600F
:1039B000FB6823F07003FB603B681B68FA681343E5
:1039C000FB607B681B68FA685A607B681B681C4A4E
:1039D000934218D07B681B68B3F1804F13D07B688B
:1039E0001B68184A93420ED07B681B68164A9342A4
:1039F00009D07B681B68154A934204D07B681B681A
:103A0000134A93420CD1BB6823F08003BB603B6830
:103A10005B68BA681343BB607B681B68BA689A60CE
:103A20007B68012283F83D207B68002283F83C20DC
:103A3000002318461437BD465DF8047B704700BF6D
:103A4000000001400004004000080040000C00405D
:103A50000040014080B483B000AF786000BF0C37F5
:103A6000BD465DF8047B704780B483B000AF7860DA
:103A700000BF0C37BD465DF8047B704780B582B04F
:103A800000AF78607B68002B01D1012342E07B68A6
:103A900093F84130DBB2002B06D17B68002283F81B
:103AA00040207868FDF7E2F97B68242283F8412002
:103AB0007B681B68DA687B681B6822F40052DA6056
:103AC000786800F011FD7B681B681A697B681B68C9
:103AD00022F490421A617B681B685A697B681B68F4
:103AE00022F02A025A617B681B68DA687B681B68CF
:103AF00042F40052DA607B6800225A647B6820221C
:103B000083F841207B68202283F842207B680022D2
:103B10005A63002318460837BD4680BD80B485B07F
:103B200000AFF860B9601346FB80FB6893F8413042
:103B3000DBB2202B21D1BB68002B02D0FB88002BED
:103B400001D101231AE0FB68BA681A62FB68FA889F
:103B50009A84FB68FA88DA84FB6800225A64FB685E
:103B6000212283F84120FB681B68DA68FB681B6828
:103B700042F08002DA60002300E002231846143786
:103B8000BD465DF8047B704780B584B000AFF86037
:103B9000B9601346FB80FB6893F84230DBB2202B00
:103BA00012D1BB68002B02D0FB88002B01D101236E
:103BB0000BE0FB6800221A63FB881A46B968F868B4
:103BC00000F0BAFA034600E0022318461037BD465B
:103BD00080BD000080B5BAB000AF78607B681B681C
:103BE0001B68C7F8E4307B681B68DB68C7F8E03007
:103BF0007B681B685B69C7F8DC300023C7F8D830E6
:103C00000023C7F8D430D7F8E43003F00F03C7F827
:103C1000D830D7F8D830002B0FD1D7F8E43003F0E4
:103C20002003002B09D0D7F8E03003F02003002B4D
:103C300003D0786800F099FB5BE2D7F8D830002B0E
:103C400000F0DE80D7F8DC3003F00103002B06D152
:103C5000D7F8E03003F49073002B00F0D180D7F850
:103C6000E43003F00103002B0BD0D7F8E03003F46D
:103C70008073002B05D07B685B6C43F001027B688E
:103C80005A64D7F8E43003F00403002B0BD0D7F8C4
:103C9000DC3003F00103002B05D07B685B6C43F044
:103CA00002027B685A64D7F8E43003F00203002B69
:103CB0000BD0D7F8DC3003F00103002B05D07B6874
:103CC0005B6C43F004027B685A64D7F8E43003F07D
:103CD0000803002B11D0D7F8E03003F02003002BAD
:103CE00005D1D7F8DC3003F00103002B05D07B6849
:103CF0005B6C43F008027B685A647B685B6C002B4A
:103D000000F0F281D7F8E43003F02003002B08D054
:103D1000D7F8E03003F02003002B02D0786800F0E1
:103D200024FB7B681B685B6903F04003402B0CBFDE
:103D300001230023DBB2C7F8D4307B685B6C03F04F
:103D40000803002B03D1D7F8D430002B4FD078686C
:103D500000F02CFA7B681B685B6903F04003402B82
:103D600041D17B681B681433C7F89C30D7F89C306E
:103D700053E8003FC7F89830D7F8983023F0400355
:103D8000C7F8D0307B681B681433D7F8D020C7F849
:103D9000A820C7F8A430D7F8A410D7F8A82041E885
:103DA0000023C7F8A030D7F8A030002BD9D17B680A
:103DB000DB6B002B13D07B68DB6B7E4A1A657B685C
:103DC000DB6B1846FDF7C8FD0346002B16D07B6859
:103DD000DB6B1B6D7A68D26B104698470EE07868F3
:103DE00000F094F90AE0786800F090F906E078684D
:103DF00000F08CF97B6800225A6475E100BF73E122
:103E00007B681B6B012B40F04F81D7F8E43003F047
:103E10001003002B00F04881D7F8E03003F01003C6
:103E2000002B00F041810023BB607B681B681B688E
:103E3000BB607B681B685B68BB60BB687B681B689A
:103E40005B6903F04003402B40F0B6807B68DB6B7E
:103E50001B685B68A7F8BE30B7F8BE30002B00F0D7
:103E600045817B689B8DB7F8BE209A4280F03E81E9
:103E70007B68B7F8BE20DA857B68DB6BDB69B3F55E
:103E8000807F00F088807B681B680C33C7F888301F
:103E9000D7F8883053E8003FC7F88430D7F884302B
:103EA00023F48073C7F8B8307B681B680C33D7F8ED
:103EB000B820C7F89420C7F89030D7F89010D7F8FA
:103EC000942041E80023C7F88C30D7F88C30002BC1
:103ED000D9D17B681B6814337B677B6F53E8003F45
:103EE0003B673B6F23F00103C7F8B4307B681B6866
:103EF0001433D7F8B420C7F88020FB67F96FD7F8E0
:103F0000802041E80023BB67BB6F002BE1D17B68B9
:103F10001B6814333B663B6E53E8003FFB65FB6D4B
:103F200023F04003C7F8B0307B681B681433D7F820
:103F3000B020FA66BB66B96EFA6E41E800237B6674
:103F40007B6E002BE3D17B68202283F842207B68C4
:103F500000221A637B681B680C33FB64FB6C53E81C
:103F6000003FBB64BB6C23F01003C7F8AC307B6828
:103F70001B680C33D7F8AC20BA657B65796DBA6DD8
:103F800041E800233B653B6D002BE3D17B68DB6B95
:103F90001846FDF771FC7B6802225A637B689A8D94
:103FA0007B68DB8D9BB2D31A9BB21946786800F010
:103FB000B7F89BE0734200087B689A8D7B68DB8DC5
:103FC0009BB2D31AA7F8CE307B68DB8D9BB2002B57
:103FD00000F08E80B7F8CE30002B00F089807B682F
:103FE0001B680C33BB63BB6B53E8003F7B637B6B8D
:103FF00023F49073C7F8C8307B681B680C33D7F87C
:10400000C8207A643B64396C7A6C41E80023FB6316
:10401000FB6B002BE3D17B681B6814337B627B6AEC
:1040200053E8003F3B623B6A23F00103C7F8C4300A
:104030007B681B681433D7F8C4203A63FB62F96AC3
:104040003A6B41E80023BB62BB6A002BE3D17B687B
:10405000202283F842207B6800221A637B681B6859
:104060000C333B613B6953E8003FFB60FB6823F086
:104070001003C7F8C0307B681B680C33D7F8C0202A
:10408000FA61BB61B969FA6941E800237B617B6928
:10409000002BE3D17B6802225A63B7F8CE30194671
:1040A000786800F03DF823E0D7F8E43003F08003AF
:1040B000002B09D0D7F8E03003F08003002B03D0A9
:1040C000786800F0EAF814E0D7F8E43003F0400331
:1040D000002B0ED0D7F8E03003F04003002B08D0BF
:1040E000786800F02AF904E000BF02E000BF00E0B9
:1040F00000BFE837BD4680BD80B483B000AF7860B4
:1041000000BF0C37BD465DF8047B704780B483B0B8
:1041100000AF786000BF0C37BD465DF8047B704788
:1041200080B483B000AF78600B467B8000BF0C3753
:10413000BD465DF8047B704780B485B000AFF86081
:10414000B9601346FB80FB68BA689A62FB68FA881C
:104150009A85FB68FA88DA85FB6800225A64FB6856
:10416000222283F84220FB681B69002B07D0FB68E2
:104170001B68DA68FB681B6842F48072DA60FB68CF
:104180001B685A69FB681B6842F001025A61FB68B0
:104190001B68DA68FB681B6842F02002DA600023C3
:1041A00018461437BD465DF8047B704780B495B05F
:1041B00000AF78607B681B680C337B637B6B53E8D4
:1041C000003F3B633B6B23F49073FB647B681B688D
:1041D0000C33FA6C3A64FB63F96B3A6C41E80023E8
:1041E000BB63BB6B002BE5D17B681B6814333B6260
:1041F0003B6A53E8003FFB61FB6923F00103BB64AA
:104200007B681B681433BA6CFA62BB62B96AFA6ADB
:1042100041E800237B627B6A002BE5D17B681B6B46
:10422000012B19D17B681B680C33FB60FB6853E8DA
:10423000003FBB60BB6823F010037B647B681B6896
:104240000C337A6CBA617B617969BA6941E8002301
:104250003B613B69002BE5D17B68202283F842203B
:104260007B6800221A6300BF5437BD465DF8047BAB
:10427000704780B584B000AF78607B689B6BFB6053
:10428000FB680022DA85FB680022DA84F868FFF711
:104290003DFF00BF1037BD4680BD80B485B000AF84
:1042A00078607B6893F84130DBB2212B3ED17B688C
:1042B0009B68B3F5805F14D17B681B69002B10D11C
:1042C0007B681B6AFB60FB681B881A467B681B685F
:1042D000C2F308025A607B681B6A9A1C7B681A62E8
:1042E00008E07B681B6A591C7A6811621A787B683F
:1042F0001B685A607B68DB8C9BB2013B9BB27A687F
:104300001946D184002B0FD17B681B68DA687B6863
:104310001B6822F08002DA607B681B68DA687B68C1
:104320001B6842F04002DA60002300E002231846D6
:104330001437BD465DF8047B704780B582B000AF8E
:1043400078607B681B68DA687B681B6822F0400233
:10435000DA607B68202283F841207868FFF7CCFE82
:10436000002318460837BD4680BD80B58CB000AF2D
:1043700078607B6893F84230DBB2222B40F0AE804D
:104380007B689B68B3F5805F17D17B681B69002B46
:1043900013D10023FB627B689B6ABB627B681B684E
:1043A0005B689BB2C3F308039AB2BB6A1A807B684E
:1043B0009B6A9A1C7B689A6226E07B689B6AFB6218
:1043C0000023BB627B689B68B3F5805F07D07B6886
:1043D0009B68002B0AD17B681B69002B06D17B6888
:1043E0001B685B68DAB2FB6A1A7008E07B681B68BE
:1043F0005B68DBB203F07F03DAB2FB6A1A707B689A
:104400009B6A5A1C7B689A627B68DB8D9BB2013B7E
:104410009BB27A681946D185002B5DD17B681B68F9
:10442000DA687B681B6822F02002DA607B681B6810
:10443000DA687B681B6822F48072DA607B681B682C
:104440005A697B681B6822F001025A617B6820224E
:1044500083F842207B6800225A637B681B6B012B28
:1044600035D17B6800221A637B681B680C337B6143
:104470007B6953E8003F3B613B6923F010037B629B
:104480007B681B680C337A6A3A62FB61F9693A6AA5
:1044900041E80023BB61BB69002BE5D17B681B6849
:1044A0001B6803F01003102B0AD10023FB607B680C
:1044B0001B681B68FB607B681B685B68FB60FB68B4
:1044C0007B689B8D19467868FFF72AFE02E07868C2
:1044D000FCF746FB002302E0002300E0022318461D
:1044E0003037BD4680BD00002DE9B04FC0B000AFF1
:1044F000C7F8F400D7F8F4301B681B6923F4405068
:10450000D7F8F430D968D7F8F4301A6840EA0103D4
:104510001361D7F8F4309A68D7F8F4301B691A435E
:10452000D7F8F4305B691A43D7F8F430DB691343EA
:10453000C7F8F830D7F8F4301B68DB6823F416416D
:1045400021F00C01D7F8F4301A68D7F8F8300B4393
:10455000D360D7F8F4301B685B6923F44070D7F858
:10456000F4309969D7F8F4301A6840EA01035361CE
:10457000D7F8F4301A688F4B9A4205D0D7F8F43048
:104580001A688D4B9A4204D1FEF750FBC7F8FC0025
:1045900003E0FEF737FBC7F8FC00D7F8F430DB691F
:1045A000B3F5004F40F00C81D7F8FC300022C7F87B
:1045B000E830C7F8EC20D7E93A4522462B46911857
:1045C000B9655B41FB65D7E91623214612EB01086B
:1045D000294643EB01094FF000024FF000034FEA78
:1045E000C90343EA58734FEAC802904699462346E6
:1045F00018EB0303C7F8E0302B4649EB0303C7F879
:10460000E430D7F8F4305B680022C7F8D830C7F838
:10461000DC20D7E936120B46DB183B65134642EB2C
:1046200003037B65D7E91423D7E93801FBF7E0FDE5
:1046300002460B46614BA3FB02235B091C01D7F822
:10464000FC300022C7F8D030C7F8D420D7E934892D
:1046500042464B469118B9645B41FB64D7E912238B
:10466000414612EB010A494643EB010B4FF00002B1
:104670004FF000034FEACB0343EA5A734FEACA02F2
:1046800092469B4643461AEB0303C7F8C8304B4695
:104690004BEB0303C7F8CC30D7F8F4305B6800224B
:1046A000C7F8C030C7F8C420D7E930120B46DB1872
:1046B0003B64134642EB03037B64D7E91023D7E93D
:1046C0003201FBF795FD02460B4611463B4BA3FB1F
:1046D00001235B09642202FB03F3CB1ADB0003F125
:1046E0003202364BA3FB02235B095B0003F4F87331
:1046F0001C44D7F8FC300022C7F8B830C7F8BC20FB
:10470000D7E92E8942464B469118B9635B41FB635A
:10471000D7E90E2341465118396349464B417B6323
:104720004FF000024FF00003D7E90CAB5946CB0025
:10473000514643EA51735146CA0010461946034692
:1047400042469B18C7F8B0304B460A4642EB03037B
:10475000C7F8B430D7F8F4305B680022C7F8A83047
:10476000C7F8AC20D7E92A120B46DB18BB62134608
:1047700042EB0303FB62D7E90A23D7E92C01FBF7DD
:1047800037FD02460B460D4BA3FB02135B09642168
:1047900001FB03F3D31ADB003233084AA2FB0323E5
:1047A0005B0903F00702D7F8F4301B6822449A60D3
:1047B00006E100BF00100140001401401F85EB51CD
:1047C000D7F8FC300022C7F8A030C7F8A420D7E9FA
:1047D000288942464B46911839625B417B62D7E992
:1047E000082341465418494643EB01054FF00002A7
:1047F0004FF00003EB0043EA5473E20014461D46F9
:104800004346E318C7F898304B4645EB0303C7F817
:104810009C30D7F8F4305B680022C7F89030C7F8B6
:1048200094204FF000024FF00003D7E924452946B9
:104830008B00214643EA917321468A00D7E926017D
:10484000FBF7D6FC02460B46604BA3FB02235B0939
:104850001C01D7F8FC300022C7F88830C7F88C203C
:10486000D7E9228942464B469118B9615B41FB6109
:10487000D7E9062341465118396149464B417B61CE
:104880004FF000024FF00003D7E904AB5946CB00CC
:10489000514643EA51735146CA0010461946034631
:1048A00042469B18C7F880304B460A4642EB03034A
:1048B000C7F88430D7F8F4305B680022BB67FA672A
:1048C0004FF000024FF00003D7E91E8949468B00E4
:1048D000414643EA917341468A00D7E92001FBF73C
:1048E00087FC02460B461146384BA3FB01235B09AC
:1048F000642202FB03F3CB1A1B013233334AA2FBBF
:1049000003235B0903F0F0031C44D7F8FC300022BA
:104910003B677A67D7E91C8942464B469118B960D4
:104920005B41FB60D7E90223414651183960494693
:104930004B417B604FF000024FF00003D7E900AB22
:104940005946CB00514643EA51735146CA001046BE
:104950001946034642469B18BB664B460A4642EB45
:104960000303FB66D7F8F4305B6800223B667A6687
:104970004FF000024FF00003D7E9188949468B0039
:10498000414643EA917341468A00D7E91A01FBF791
:104990002FFC02460B460D4BA3FB02135B0964215F
:1049A00001FB03F3D31A1B013233084AA2FB032392
:1049B0005B0903F00F02D7F8F4301B6822449A60B9
:1049C00000BF07F58077BD46BDE8B08F1F85EB516E
:1049D00080B582B000AF7860154B1B780133DAB236
:1049E000134B1A70124B1B78013B7A6813441B7AE5
:1049F000452B0DD17B6803F112027B680833194601
:104A0000104603F03BFD0A4B00221A7000F012F82A
:104A10007B681868064B1B7808337A6813440122B8
:104A20001946FFF7B1F800BF0837BD4680BD00BF8B
:104A3000C804002080B400AF00BFBD465DF8047B11
:104A40007047000080B483B000AF03463960FB714B
:104A500097F90730002B0ADB3B68DAB20C4997F96B
:104A600007301201D2B20B4483F800230AE03B68FE
:104A7000DAB20849FB7903F00F03043B1201D2B20A
:104A80000B441A7600BF0C37BD465DF8047B7047B7
:104A900000E100E000ED00E080B500AF054B1B68D1
:104AA00002F0F6FA0346012B01D003F0DDF900BF56
:104AB00080BD00BF10E000E080B500AF00216FF0C6
:104AC0000400FFF7BFFF00BF80BD000080B483B0CB
:104AD00000AFEFF305833B603B68002B03D06FF022
:104AE00005037B600CE00A4B1B68002B05D1084BCB
:104AF00001221A6000237B6002E04FF0FF337B60ED
:104B00007B6818460C37BD465DF8047B704700BFD4
:104B1000CC04002080B582B000AFEFF305833B608A
:104B20003B68002B03D06FF005037B6010E00B4B5C
:104B30001B68012B09D1FFF7BFFF084B02221A6047
:104B400001F04AFE00237B6002E04FF0FF337B6000
:104B50007B6818460837BD4680BD00BFCC040020E6
:104B600080B58EB004AFF860B9607A6000233B6115
:104B7000EFF305837B617B69002B7ED1FB68002B03
:104B80007BD080233B621823FB6100237B624FF0C4
:104B9000FF33BB617B68002B45D07B681B68002B13
:104BA00002D07B681B687B627B689B69002B02D00C
:104BB0007B689B69FB61FB69002B08D0FB69382B84
:104BC00005D87B685B6803F00103002B01D000234C
:104BD00054E07B685B69002B03D07B685B699B08B2
:104BE0003B627B689B68002B0ED07B68DB68A72B41
:104BF0000AD97B681B69002B06D07B685B69002B98
:104C000002D00123BB6110E07B689B68002B0CD1B4
:104C10007B68DB68002B08D17B681B69002B04D103
:104C20000023BB6101E00023BB61BB69012B10D1F4
:104C30007B681B697A68926802920193FB69009312
:104C4000BB683A6A796AF86801F0DAFB03463B61AF
:104C500013E0BB69002B10D13B6A9AB207F1100335
:104C60000193FB690093BB68796AF86801F025FC41
:104C70000346012B01D000233B613B6918462837CE
:104C8000BD4680BD80B584B000AF7860EFF305838A
:104C9000BB60BB68002B03D06FF00503FB6007E02F
:104CA0000023FB607B68002B02D0786801F060FD78
:104CB000FB6818461037BD4680BD80B58AB002AF8C
:104CC000F860B9607A600023FB61EFF305833B6114
:104CD0003B69002B75D1FB68002B72D0BA68FB686A
:104CE0009A426ED84FF0FF33BB617B68002B15D022
:104CF0007B689B68002B06D07B68DB684F2B02D952
:104D00000123BB610CE07B689B68002B08D17B68AA
:104D1000DB68002B04D10023BB6101E00023BB61F1
:104D2000BB69B3F1FF3F4CD0FB68012B28D1BB69B5
:104D3000012B0AD17B689B6803220092002200218C
:104D4000012000F07BFBF86105E003220021012037
:104D500000F0ECFBF861FB69002B22D0BB68002B54
:104D60001FD0002300220021F86900F0A7FC0346B1
:104D7000012B16D0F86901F06FF90023FB6110E0F8
:104D8000BB69012B08D17B689B681A46B968F86833
:104D900000F029FCF86104E0B968F86800F05AFCFA
:104DA000F861FB69002B0CD07B68002B03D07B687B
:104DB0001B687B6101E000237B617969F86901F080
:104DC00097FAFB6918462037BD4680BD80B586B08E
:104DD00000AF786039607B683B6100237B613B6991
:104DE000002B03D16FF003037B6139E0EFF3058300
:104DF000FB60FB68002B22D03B68002B03D06FF0D8
:104E000003037B612CE00023BB6007F108031A4613
:104E10000021386901F064F80346012B03D06FF0DC
:104E200002037B611CE0BB68002B19D00F4B4FF0D5
:104E300080521A60BFF34F8FBFF36F8F10E0396855
:104E4000386900F041FF0346012B09D03B68002B75
:104E500003D06FF001037B6102E06FF002037B611E
:104E60007B6918461837BD4680BD00BF04ED00E0E1
:104E700080B586B000AF78607B683B6100237B61C2
:104E80003B69002B03D16FF003037B612CE0EFF350
:104E90000583FB60FB68002B1AD00023BB6007F181
:104EA00008031946386900F0A2FD0346012B03D020
:104EB0006FF002037B6117E0BB68002B14D00D4B31
:104EC0004FF080521A60BFF34F8FBFF36F8F0BE02C
:104ED000002300220021386900F0F0FB0346012B7B
:104EE00002D06FF002037B617B6918461837BD461C
:104EF00080BD00BF04ED00E080B58AB002AFF8606D
:104F0000B9607A600023FB61EFF305833B613B6985
:104F1000002B5FD1FB68002B5CD0BB68002B59D005
:104F20004FF0FF33BB617B68002B29D07B689B6807
:104F3000002B12D07B68DB684F2B0ED97B681B6976
:104F4000002B0AD07B685A69FB68B96801FB03F340
:104F50009A4202D30123BB6114E07B689B68002B5B
:104F600010D17B68DB68002B0CD17B681B69002BA0
:104F700008D17B685B69002B04D10023BB6101E091
:104F80000023BB61BB69012B0BD17B681A697B686D
:104F90009B6800210091B968F86800F04FFAF86149
:104FA00008E0BB69002B05D10022B968F86800F061
:104FB000BDFAF861FB69002B0CD07B68002B03D095
:104FC0007B681B687B6101E000237B617969F8697C
:104FD00001F08EF9FB6918462037BD4680BD000000
:104FE00080B588B000AFF860B9603B601346FB71D4
:104FF000FB68BB610023FB61EFF305837B617B6989
:10500000002B28D0BB69002B05D0BB68002B02D039
:105010003B68002B03D06FF00303FB6138E00023F3
:105020003B6107F110020023B968B86900F044FC45
:105030000346012B03D06FF00203FB6128E03B69BC
:10504000002B25D0154B4FF080521A60BFF34F8FC5
:10505000BFF36F8F1CE0BB69002B02D0BB68002B35
:1050600003D16FF00303FB6112E000233A68B968D3
:10507000B86900F023FB0346012B09D03B68002BE5
:1050800003D06FF00103FB6102E06FF00203FB61EC
:10509000FB6918462037BD4680BD00BF04ED00E027
:1050A00080B588B000AFF860B9607A603B60FB689B
:1050B000BB610023FB61EFF305837B617B69002B00
:1050C00028D0BB69002B05D0BB68002B02D03B6801
:1050D000002B03D06FF00303FB6137E000233B613B
:1050E00007F110031A46B968B86900F0F9FE0346E3
:1050F000012B03D06FF00203FB6127E03B69002B1B
:1051000024D0154B4FF080521A60BFF34F8FBFF37E
:105110006F8F1BE0BB69002B02D0BB68002B03D153
:105120006FF00303FB6111E03A68B968B86900F0F9
:10513000EBFC0346012B09D03B68002B03D06FF03A
:105140000103FB6102E06FF00203FB61FB6918469B
:105150002037BD4680BD00BF04ED00E080B586B0BD
:1051600000AF78607B683B613B69002B02D1002374
:105170007B610EE0EFF30583FB60FB68002B04D03E
:10518000386900F04BFF786103E0386900F028FFD0
:1051900078617B6918461837BD4680BD80B485B0FC
:1051A00000AFF860B9607A60FB68074A1A60BB68B4
:1051B000064A1A607B6880221A6000BF1437BD4619
:1051C0005DF8047B704700BFD00400207805002004
:1051D00080B485B000AFF860B9607A60FB68074AB8
:1051E0001A60BB68064A1A607B684FF480721A60C6
:1051F00000BF1437BD465DF8047B70477807002078
:105200002008002080B483B000AF78607B6803F191
:1052100008027B685A607B684FF0FF329A607B68B7
:1052200003F108027B68DA607B6803F108027B689F
:105230001A617B6800221A6000BF0C37BD465DF81A
:10524000047B704780B483B000AF78607B68002235
:105250001A6100BF0C37BD465DF8047B704780B40F
:1052600085B000AF786039607B685B68FB603B6845
:10527000FA685A60FB689A683B689A60FB689B68AA
:105280003A685A60FB683A689A603B687A681A61C3
:105290007B681B685A1C7B681A6000BF1437BD46C8
:1052A0005DF8047B704780B485B000AF78603960EA
:1052B0003B681B68BB60BB68B3F1FF3F03D17B68F1
:1052C0001B69FB600CE07B680833FB6002E0FB6855
:1052D0005B68FB60FB685B681B68BA689A42F6D241
:1052E000FB685A683B685A603B685B683A689A603A
:1052F0003B68FA689A60FB683A685A603B687A686B
:105300001A617B681B685A1C7B681A6000BF1437DF
:10531000BD465DF8047B704780B485B000AF78600F
:105320007B681B69FB607B685B687A6892689A603F
:105330007B689B687A6852685A60FB685B687A6829
:105340009A4203D17B689A68FB685A607B680022A6
:105350001A61FB681B685A1EFB681A60FB681B68B1
:1053600018461437BD465DF8047B704780B584B09D
:1053700000AF786039607B68FB60FB68002B0AD166
:105380004FF0500383F31188BFF36F8FBFF34F8F3C
:10539000BB6000BFFEE702F0D5FCFB681A68FB6843
:1053A000DB6BF968096C01FB03F31A44FB689A6034
:1053B000FB6800229A63FB681A68FB685A60FB6806
:1053C0001A68FB68DB6B013BF968096C01FB03F3AE
:1053D0001A44FB68DA60FB68FF2283F84420FB680C
:1053E000FF2283F845203B68002B14D1FB681B6922
:1053F000002B1AD0FB681033184601F087FC0346D7
:10540000002B12D00C4B4FF080521A60BFF34F8F1D
:10541000BFF36F8F09E0FB6810331846FFF7F2FE09
:10542000FB6824331846FFF7EDFE02F0BBFC0123B6
:1054300018461037BD4680BD04ED00E080B58EB043
:1054400002AFF860B9607A603B60FB68002B0AD15C
:105450004FF0500383F31188BFF36F8FBFF34F8F6B
:10546000BB6200BFFEE73B68002B0AD14FF0500340
:1054700083F31188BFF36F8FBFF34F8F7B6200BF41
:10548000FEE77B68002B02D0BB68002B01D0012314
:1054900000E00023002B0AD14FF0500383F3118862
:1054A000BFF36F8FBFF34F8F3B6200BFFEE77B6898
:1054B000002B02D1BB68002B01D1012300E00023A7
:1054C000002B0AD14FF0500383F31188BFF36F8F85
:1054D000BFF34F8FFB6100BFFEE750237B617B6909
:1054E000502B0AD04FF0500383F31188BFF36F8F16
:1054F000BFF34F8FBB6100BFFEE77B693B68FB6278
:10550000FB6A002B0DD0FB6A012283F8462097F836
:105510003820FB6A009313467A68B968F86800F08F
:105520003FF8FB6A18463037BD4680BD80B58AB06B
:1055300002AFF860B9601346FB71FB68002B0AD11B
:105540004FF0500383F31188BFF36F8FBFF34F8F7A
:105550003B6100BFFEE7FB68BA6802FB03F3FB6137
:10556000FB695033184602F00FFDB861BB69002B90
:1055700011D0BB697B617B6950337B61BB690022C1
:1055800083F84620FA79BB69009313467A69B968B3
:10559000F86800F005F8BB6918462037BD4680BDA5
:1055A00080B584B000AFF860B9607A60FB70BB680A
:1055B000002B03D1BB69BA691A6002E0BB697A6843
:1055C0001A60BB69FA68DA63BB69BA681A640121B8
:1055D000B869FFF7CBFEBB69FA7883F84C2000BFAF
:1055E0001037BD4680BD80B58AB002AFF860B960A3
:1055F0007A60FB68002B0AD14FF0500383F31188C7
:10560000BFF36F8FBFF34F8FBB6100BFFEE7BA6878
:10561000FB689A420AD94FF0500383F31188BFF315
:105620006F8FBFF34F8F7B6100BFFEE702230093B4
:105630007B6800220021F868FFF700FFF861FB6932
:10564000002B02D0FB69BA689A63FB6918462037C1
:10565000BD4680BD80B586B000AF786039607B689C
:10566000002B0AD14FF0500383F31188BFF36F8FE3
:10567000BFF34F8F3B6100BFFEE73A687B689A42F9
:105680000AD94FF0500383F31188BFF36F8FBFF334
:105690004F8FFB6000BFFEE7022200217868FFF712
:1056A00045FF78617B69002B02D07B693A689A6379
:1056B0007B6918461837BD4680BD000080B58EB0A6
:1056C00000AFF860B9607A603B6000237B63FB68E1
:1056D0003B633B6B002B0AD14FF0500383F31188DF
:1056E000BFF36F8FBFF34F8FBB6200BFFEE7BB6896
:1056F000002B03D13B6B1B6C002B01D1012300E07D
:105700000023002B0AD14FF0500383F31188BFF31D
:105710006F8FBFF34F8F7B6200BFFEE73B68022BAA
:1057200003D13B6BDB6B012B01D1012300E0002394
:10573000002B0AD14FF0500383F31188BFF36F8F12
:10574000BFF34F8F3B6200BFFEE701F0A1FC0346B1
:10575000002B02D17B68002B01D1012300E0002344
:10576000002B0AD14FF0500383F31188BFF36F8FE2
:10577000BFF34F8FFB6100BFFEE702F0E3FA3B6B24
:105780009A6B3B6BDB6B9A4202D33B68022B29D1AD
:105790003A68B968386B00F09AFCF8623B6B5B6A58
:1057A000002B10D03B6B2433184601F0AFFA0346B0
:1057B000002B13D03F4B4FF080521A60BFF34F8F36
:1057C000BFF36F8F0AE0FB6A002B07D0394B4FF015
:1057D00080521A60BFF34F8FBFF36F8F02F0E2FA6F
:1057E000012363E07B68002B03D102F0DBFA002386
:1057F0005CE07B6B002B06D107F11403184601F027
:10580000E9FA01237B6302F0CDFA01F055F802F0CA
:1058100099FA3B6B93F844305BB2B3F1FF3F03D18D
:105820003B6B002283F844203B6B93F845305BB21E
:10583000B3F1FF3F03D13B6B002283F8452002F018
:10584000B1FA3A1D07F114031146184601F0D8FACF
:105850000346002B24D1386B00F031FD0346002BAA
:1058600018D03B6B10337A681146184601F0FEF9E8
:10587000386B00F0BCFC01F02DF80346002B7FF4E0
:105880007CAF0C4B4FF080521A60BFF34F8FBFF3C9
:105890006F8F72E7386B00F0AAFC01F01BF86CE721
:1058A000386B00F0A4FC01F015F8002318463837D7
:1058B000BD4680BD04ED00E080B590B000AFF8605B
:1058C000B9607A603B60FB68BB63BB6B002B0AD19D
:1058D0004FF0500383F31188BFF36F8FBFF34F8FE7
:1058E000BB6200BFFEE7BB68002B03D1BB6B1B6C28
:1058F000002B01D1012300E00023002B0AD14FF03F
:10590000500383F31188BFF36F8FBFF34F8F7B6218
:1059100000BFFEE73B68022B03D1BB6BDB6B012BA7
:1059200001D1012300E00023002B0AD14FF05003E6
:1059300083F31188BFF36F8FBFF34F8F3B6200BFBC
:10594000FEE702F0E1FAEFF311824FF0500383F328
:105950001188BFF36F8FBFF34F8FFA61BB61FB6993
:105960007B63BB6B9A6BBB6BDB6B9A4202D33B686E
:10597000022B2FD1BB6B93F8453087F83330BB6BCC
:105980009B6BFB623A68B968B86B00F0A0FB97F9B3
:105990003330B3F1FF3F12D1BB6B5B6A002B16D0E3
:1059A000BB6B2433184601F0B1F90346002B0ED02F
:1059B0007B68002B0BD07B6801221A6007E097F808
:1059C00033300133DBB25AB2BB6B83F8452001237D
:1059D000FB6301E00023FB637B6B7B617B6983F3EB
:1059E000118800BFFB6B18464037BD4680BD80B5AF
:1059F0008EB000AF786039607B683B633B6B002BF7
:105A00000AD14FF0500383F31188BFF36F8FBFF3B8
:105A10004F8F3B6200BFFEE73B6B1B6C002B0AD035
:105A20004FF0500383F31188BFF36F8FBFF34F8F95
:105A3000FB6100BFFEE73B6B1B68002B03D13B6B98
:105A40009B68002B01D1012300E00023002B0AD129
:105A50004FF0500383F31188BFF36F8FBFF34F8F65
:105A6000BB6100BFFEE702F04FFAEFF311824FF087
:105A7000500383F31188BFF36F8FBFF34F8F7A61A9
:105A80003B617B69FB623B6B9B6BBB623B6BDB6B84
:105A9000BA6A9A422BD23B6B93F8453087F827308D
:105AA000BB6A5A1C3B6B9A6397F92730B3F1FF3FEF
:105AB00012D13B6B5B6A002B16D03B6B243318462C
:105AC00001F024F90346002B0ED03B68002B0BD0CD
:105AD0003B6801221A6007E097F827300133DBB2F8
