:020000040800F2
:1000000000000120550E0008950C00089B0C00080C
:10001000A10C0008A70C0008AD0C000800000000AF
:10002000000000000000000000000000B30C000809
:10003000C10C000800000000CF0C0008DD0C000817
:10004000A50E0008A50E0008A50E0008A50E0008C4
:10005000A50E0008A50E0008A50E0008A50E0008B4
:10006000A50E0008A50E0008A50E0008E90C000862
:10007000A50E0008A50E0008A50E0008A50E000894
:10008000FD0C0008110D0008A50E0008000000007E
:10009000000000000000000000000000A50E0008A5
:1000A000A50E0008A50E0008A50E0008A50E000864
:1000B000250D0008390D0008A50E0008A50E000842
:1000C000A50E0008A50E0008A50E0008A50E000844
:1000D000A50E00084D0D0008610D0008000000008D
:1000E000A50E0008A50E0008A50E000800000000DF
:1000F000000000000000000000000000A50E000845
:1001000000000000A50E0008A50E0008A50E0008BE
:1001100000000000000000000000000000000000DF
:10012000A50E0008750D0008890D0008A50E000831
:10013000A50E000800000000000000000000000004
:10014000000000000000000000000000A50E0008F4
:10015000A50E00089D0D0008A50E0008B10D0008B1
:10016000A50E0008A50E0008000000000000000019
:10017000000000000000000000000000000000007F
:1001800000000000A50E00080000000000000000B4
:04019000A50E0008B0
:1001940010B5054C237833B9044B13B10448AFF3BD
:1001A40000800123237010BD8000002000000000A7
:1001B4005C65000808B5034B1BB103490348AFF362
:1001C400008008BD00000000840000205C65000879
:1001D40053B94AB9002908BF00281CBF4FF0FF31AA
:1001E4004FF0FF3000F070B9ADF1080C6DE904CEAA
:1001F40000F006F8DDF804E0DDE9022304B07047FE
:100204002DE9F047089E0D4604460F46002B4AD1BF
:100214008A42944665D9B2FA82F343B102FA03FCE6
:10022400C3F120029F4020FA02F217439C404FEA98
:100234001C4E1FFA8CF5B7FBFEF1220C0EFB117756
:1002440042EA074201FB05F090420AD91CEB020284
:1002540001F1FF3780F01C81904240F2198102398C
:100264006244121AA4B2B2FBFEF00EFB102244EA5E
:10027400024400FB05F5A5420AD91CEB040400F175
:10028400FF3280F00781A54240F2048164440238C1
:1002940040EA0140641B00211EB1DC400023C6E992
:1002A4000043BDE8F0878B4208D9002E00F0ED80B2
:1002B4000021C6E900050846BDE8F087B3FA83F1DA
:1002C400002949D1AB4202D3824200F2F880841A59
:1002D40065EB030201201746002EE2D0C6E9004771
:1002E400DFE702B9FFDEB2FA82F3002B40F0908020
:1002F4008A1A4FEA1C471FFA8CFE0121B2FBF7F55C
:1003040007FB1520220C42EA00420EFB05F0904246
:1003140008D91CEB020205F1FF3802D2904200F228
:10032400CB804546121AA4B2B2FBF7F007FB1022A9
:1003340044EA02440EFB00FEA64508D91CEB040463
:1003440000F1FF3202D2A64500F2BB801046A4EBB6
:100354000E0440EA05409FE7C1F120078B4022FAD2
:1003640007FC4CEA030C05FA01F420FA07F3FD40FC
:100374004FEA1C492343B5FBF9F81FFA8CFE09FB2D
:1003840018551C0C44EA054408FB0EF5A54202FA74
:1003940001F200FA01F00BD91CEB040408F1FF3A56
:1003A40080F08880A54240F28580A8F10208644468
:1003B400641B9DB2B4FBF9F309FB134445EA0444FE
:1003C40003FB0EFEA64508D91CEB040403F1FF351C
:1003D4006CD2A6456AD9023B644443EA0843A3FBB2
:1003E4000295A4EB0E04AC42C846AE4656D353D095
:1003F40056B1B0EB080264EB0E0404FA07F7CA40E6
:10040400CC401743C6E9007418460021BDE8F087C4
:10041400C3F1200102FA03FC20FA01F225FA01F1EA
:100424009D402A434FEA1C471FFA8CFEB1FBF7F0AC
:1004340007FB1015110C41EA054100FB0EF58D4236
:1004440004FA03F408D91CEB010100F1FF382FD2A0
:100454008D422DD902386144491B92B2B1FBF7F5A4
:1004640007FB151142EA014205FB0EF1914208D93E
:100474001CEB020205F1FF3816D2914214D9023D59
:100484006244521A45EA004138E73146304608E7EB
:100494003946E6E61046FBE64845A9D2B9EB020820
:1004A40065EB0C0E013BA3E74546EAE72B4694E7D0
:1004B4004046D1E7D0467BE7023D624432E7084636
:1004C4000AE76444023842E7704700BF80B500AFD2
:1004D40000F0E8FC05F088FC05F0E6FC0A4805F0AD
:1004E40072F90A4B1B78012B06D1094805F00CFF61
:1004F400064B05221A70F4E7044B1B78022BF0D14B
:10050400024B05221A70ECE7C800002020000020EE
:100514000000002080B483B000AF78607B681B6863
:10052400B3F1804F32D11C4B1B780133DAB21A4B32
:100534001A70194B1A78194BA3FB021399080B462E
:100544009B000B44D31ADBB2002B15D1124B1B7842
:10055400642B11D8124B1B78002B03D1114B0122B1
:100564001A7009E00E4B1B78012B05D10C4B0222AB
:100574001A700C4B02221A70074B1B78642B05D19E
:10058400074B00221A70044B00221A7000BF0C376C
:10059400BD465DF8047B7047B8000020CDCCCCCCC0
:1005A400000000202000002080B582B000AF7860F9
:1005B4007B681B68094A93420CD07B681B68084A15
:1005C400934207D07B681B68064A934202D10648CF
:1005D40005F0C0F800BF0837BD4680BD00100140DB
:1005E40000440040001401409C00002080B483B00B
:1005F40000AF78607B681B68064A934203D07B682F
:100604001B68054A934200BF0C37BD465DF8047B66
:10061400704700BF005400400058004080B400AF51
:1006240072B600BFFEE7000080B483B000AF0023C1
:100634007B60104B5B6C0F4A43F4804353640D4B57
:100644005B6C03F480437B607B6800233B60094B55
:100654001B6C084A43F080531364064B1B6C03F075
:1006640080533B603B6800BF0C37BD465DF8047B9C
:10067400704700BF0038024080B58AB000AF786090
:1006840007F1140300221A605A609A60DA601A6152
:100694007B681B683C4A934272D100233B613B4B0D
:1006A4001B6B3A4A43F400131363384B1B6B03F47C
:1006B40000133B613B690023FB60344B1B6B334AE3
:1006C40043F002031363314B1B6B03F00203FB6023
:1006D400FB68C0237B611223BB610023FB610323FE
:1006E4003B6204237B6207F114031946284801F096
:1006F4006BF90023BB60254B1B6C244A43F40013A5
:100704001364224B1B6C03F40013BB60BB68214BC6
:10071400214A1A601F4B4FF000725A601D4B002291
:100724009A601C4B0022DA601A4B4FF480621A6103
:10073400184B00225A61174B4FF400529A61154B23
:100744000022DA61134B4FF480321A62114B0422F7
:100754005A62104B00229A620E4B0022DA620D4B51
:1007640000221A630B4800F021FD0346002B01D040
:10077400FFF754FF7B68074A9A63064A7B689363D2
:1007840000BF2837BD4680BD0054004000380240F9
:10079400000402407C0400201060024080B584B054
:1007A40000AF78607B681B68B3F1804F16D10023DB
:1007B400FB601B4B1B6C1A4A43F001031364184B78
:1007C4001B6C03F00103FB60FB68002200211C206A
:1007D40000F0B5FC1C2000F0CEFC1DE07B681B681B
:1007E400104A934218D10023BB600D4B1B6C0C4A7A
:1007F40043F0020313640A4B1B6C03F00203BB6057
:10080400BB68002200211D2000F099FC1D2000F08F
:10081400B2FC054800F00AF800BF1037BD4680BDA1
:1008240000380240000400402801002080B588B050
:1008340000AF786007F10C0300221A605A609A60D6
:10084400DA601A617B681B68124A93421DD1002347
:10085400BB60114B1B6B104A43F0020313630E4B36
:100864001B6B03F00203BB60BB683023FB600223F5
:100874003B6100237B610023BB610223FB6107F121
:100884000C031946054801F09FF800BF2037BD4608
:1008940080BD00BF00040040003802400004024054
:1008A40080B58EB000AF786007F1240300221A608F
:1008B4005A609A60DA601A617B681B688E4A9342B8
:1008C4006ED100233B628D4B5B6C8C4A43F010036A
:1008D40053648A4B5B6C03F010033B623B6A002356
:1008E400FB61864B1B6B854A43F001031363834B07
:1008F4001B6B03F00103FB61FB694FF4C0637B6274
:100904000223BB620023FB6203233B6307237B6355
:1009140007F1240319467A4801F056F8794B7A4ACC
:100924001A60784B4FF000625A60764B00229A604E
:10093400744B0022DA60734B4FF480621A61714B7E
:1009440000225A616F4B4FF400529A616D4B0022A2
:10095400DA616C4B4FF480321A626A4B04225A6299
:10096400684B00229A62674B0022DA62654B0022D0
:100974001A63644800F01AFC0346002B01D0FFF709
:100984004DFE7B685F4ADA635E4A7B6893630022AC
:100994000021252000F0D3FB252000F0ECFB64E1CE
:1009A4007B681B68594A934240F0BA800023BB61BC
:1009B400524B1B6C514A43F4003313644F4B1B6C72
:1009C40003F40033BB61BB6900237B614B4B1B6B9E
:1009D4004A4A43F001031363484B1B6B03F00103C2
:1009E4007B617B690C237B620223BB620023FB6275
:1009F40003233B6307237B6307F124031946404821
:100A040000F0E2FF424B434A1A60414B4FF0006250
:100A14005A603F4B40229A603D4B0022DA603C4BC7
:100A24004FF480621A613A4B00225A61384B4FF4FA
:100A340000529A61364B0022DA61354B00221A6269
:100A4400334B04225A62324B00229A62304B00220A
:100A5400DA622F4B00221A632D4800F0A7FB0346ED
:100A6400002B01D0FFF7DAFD7B68294A9A63284AF4
:100A74007B689363284B294A1A60274B4FF0006226
:100A84005A60254B00229A60234B0022DA60224BE5
:100A94004FF480621A61204B00225A611E4B4FF4BE
:100AA40080429A611C4B0022DA611B4B00221A62BD
:100AB400194B04225A62184B01229A62164B0022E7
:100AC400DA62154B00221A63134800F06FFB0346E9
:100AD400002B01D0FFF7A2FD7B680F4ADA630E4AB0
:100AE4007B68936300220021262000F028FB262047
:100AF40000F041FBB9E000BF0010014000380240A3
:100B040000000240C803002040640240004400404A
:100B1400C0020020A0600240200300208860024040
:100B24007B681B68534A934240F09F8000233B61DB
:100B3400514B1B6B504A43F4800313634E4B1B6BA6
:100B440003F480033B613B690023FB604A4B5B6C0D
:100B5400494A43F020035364474B5B6C03F0200382
:100B6400FB60FB680023BB60434B1B6B424A43F0B2
:100B740001031363404B1B6B03F00103BB60BB68B1
:100B84004FF4C0537B620223BB620023FB62032346
:100B94003B6308237B6307F124031946374800F0BD
:100BA40013FF374B374A1A60354B4FF020625A60B7
:100BB400334B40229A60324B0022DA60304B4FF4C0
:100BC40080621A612E4B00225A612D4B00229A61D9
:100BD4002B4B0022DA612A4B00221A62284B002296
:100BE4005A62274800F0E2FA0346002B01D0FFF7CF
:100BF40015FD7B68224A9A63214A7B689363224BE2
:100C0400224A1A60204B4FF020625A601E4B002289
:100C14009A601D4B0022DA601B4B4FF480621A610C
:100C2400194B00225A61184B00229A61164B00227C
:100C3400DA61154B00221A62134B00225A621248E1
:100C440000F0B4FA0346002B01D0FFF7E7FC7B6801
:100C54000D4ADA630C4A7B68936300220021472023
:100C640000F06DFA472000F086FA00BF3837BD4621
:100C740080BD00BF00140140003802400000024063
:100C8400B8010020A0640240180200202864024039
:100C940080B400AFFEE780B400AFFEE780B400AFDD
:100CA400FEE780B400AFFEE780B400AFFEE780B497
:100CB40000AF00BFBD465DF8047B704780B400AF51
:100CC40000BFBD465DF8047B704780B400AF00BF31
:100CD400BD465DF8047B704780B500AF00F034F981
:100CE40000BF80BD80B500AF024800F0F7FB00BF35
:100CF40080BD00BF7C04002080B500AF024800F036
:100D0400EDFB00BF80BD00BF2003002080B500AF15
:100D1400024800F0E3FB00BF80BD00BFC00200201A
:100D240080B500AF024802F0CBFF00BF80BD00BF1A
:100D3400E000002080B500AF024802F0C1FF00BF10
:100D440080BD00BF2801002080B500AF024803F039
:100D540003FE00BF80BD00BF8003002080B500AF4C
:100D6400024803F0F9FD00BF80BD00BF78020020F7
:100D740080B500AF024800F0B1FB00BF80BD00BFEA
:100D84001802002080B500AF024800F0A7FB00BFA6
:100D940080BD00BFC803002080B500AF024800F04A
:100DA4009DFB00BF80BD00BFB801002080B500AF2F
:100DB400024803F0D1FD00BF80BD00BF70010020D8
:100DC40080B586B000AF7860144A154BD31A7B61A6
:100DD4007B693B61134B1B68002B02D1114B124AF8
:100DE4001A60104B1A687B6813443A699A4207D216
:100DF40005F07EFB03460C221A604FF0FF3309E036
:100E0400084B1B68FB60074B1A687B681344054A50
:100E14001360FB6818461837BD4680BD00000120EA
:100E240000040000BC0000202806002080B400AFAD
:100E3400064BD3F88830054A43F47003C2F888306F
:100E440000BFBD465DF8047B704700BF00ED00E0C5
:100E5400DFF834D0FFF7EAFF0C480D490D4A0023B0
:100E640002E0D458C4500433C4188C42F9D30A4A5B
:100E74000A4C002301E013600432A242FBD305F0C4
:100E84003DFBFFF723FB704700000120000000201A
:100E940080000020A46500088000002024060020B3
:100EA400FEE7000080B500AF0E4B1B680D4A43F40B
:100EB400007313600B4B1B680A4A43F4806313608E
:100EC400084B1B68074A43F480731360032000F047
:100ED4002BF90F2000F008F8FFF7A6FB00231846B3
:100EE40080BD00BF003C024080B582B000AF786096
:100EF400124B1A68124B1B7819464FF47A73B3FBE2
:100F0400F1F3B2FBF3F3184600F043F90346002B68
:100F140001D001230EE07B680F2B0AD800227968E8
:100F24004FF0FF3000F00BF9064A7B681360002392
:100F340000E0012318460837BD4680BD2400002088
:100F44002C0000202800002080B400AF064B1B7842
:100F54001A46064B1B681344044A136000BFBD467F
:100F64005DF8047B704700BF2C000020C000002007
:100F740080B400AF034B1B681846BD465DF8047B84
:100F8400704700BFC000002080B485B000AF786017
:100F94007B6803F00703FB600C4BDB68BB60BA683B
:100FA4004FF6FF031340BB60FB681A02BB68134390
:100FB40043F0BF6343F40033BB60044ABB68D360AF
:100FC40000BF1437BD465DF8047B704700ED00E0B8
:100FD40080B400AF044BDB681B0A03F00703184618
:100FE400BD465DF8047B704700ED00E080B483B03B
:100FF40000AF0346FB7197F90730002B0BDBFB793D
:1010040003F01F02074997F907305B09012000FA32
:1010140002F241F8232000BF0C37BD465DF8047B83
:10102400704700BF00E100E080B483B000AF034626
:101034003960FB7197F90730002B0ADB3B68DAB2A1
:101044000C4997F907301201D2B20B4483F80023FC
:101054000AE03B68DAB20849FB7903F00F03043B6A
:101064001201D2B20B441A7600BF0C37BD465DF8AC
:10107400047B704700E100E000ED00E080B489B03B
:1010840000AFF860B9607A60FB6803F00703FB61A6
:10109400FB69C3F10703042B28BF0423BB61FB696D
:1010A4000433062B02D9FB69033B00E000237B6178
:1010B4004FF0FF32BB6902FA03F3DA43BB681A400C
:1010C4007B699A404FF0FF317B6901FA03F3D943FE
:1010D4007B680B40134318462437BD465DF8047BF8
:1010E4007047000080B582B000AF78607B68013B38
:1010F400B3F1807F01D301230FE00A4A7B68013BEF
:1011040053600F214FF0FF30FFF78EFF054B002295
:101114009A60044B07221A60002318460837BD461C
:1011240080BD00BF10E000E080B582B000AF786001
:101134007868FFF729FF00BF0837BD4680BD80B53A
:1011440086B000AF0346B9607A60FB7300237B610D
:10115400FFF73EFF78617A68B9687869FFF78EFF18
:10116400024697F90F3011461846FFF75DFF00BF9E
:101174001837BD4680BD80B582B000AF0346FB7111
:1011840097F907301846FFF731FF00BF0837BD460F
:1011940080BD80B582B000AF78607868FFF7A2FFA9
:1011A400034618460837BD4680BD000080B586B0AA
:1011B40000AF786000237B61FFF7DAFE38617B685B
:1011C400002B01D1012399E07B68022283F83520AA
:1011D4007B68002283F834207B681B681A687B686C
:1011E4001B6822F001021A600FE0FFF7C1FE0246FD
:1011F4003B69D31A052B08D97B6820225A657B6882
:10120400032283F83520032378E07B681B681B687E
:1012140003F00103002BE8D17B681B681B687B612A
:101224007A69384B13407B617B685A687B689B689A
:101234001A437B68DB681A437B681B691A437B6823
:101244005B691A437B689B691A437B68DB691A43B1
:101254007B681B6A13437A6913437B617B685B6A0F
:10126400042B07D17B68DA6A7B681B6B13437A69AA
:1012740013437B617B681B687A691A607B681B680F
:101284005B697B617B6923F007037B617B685B6A35
:101294007A6913437B617B685B6A042B17D17B6893
:1012A4009B6A7A6913437B617B68DB6A002B0ED0EF
:1012B400786800F00DFB0346002B08D07B684022C1
:1012C4005A657B68012283F83520012316E07B6888
:1012D4001B687A695A61786800F0C4FA0346FB60B7
:1012E4007B68DB6D3F229A40FB689A607B68002232
:1012F4005A657B68012283F8352000231846183785
:10130400BD4680BD3F8010F080B586B000AFF86068
:10131400B9607A603B600023FB75FB689B6D3B61A1
:10132400FB6893F83430012B01D1022340E0FB68C1
:10133400012283F83420FB6893F83530DBB2012BAB
:101344002FD1FB68022283F83520FB6800225A65FE
:101354003B687A68B968F86800F056FAFB68DB6D98
:101364003F229A403B699A60FB681B681A68FB68D5
:101374001B6842F016021A60FB681B6C002B07D036
:10138400FB681B681A68FB681B6842F008021A6055
:10139400FB681B681A68FB681B6842F001021A604C
:1013A40005E0FB68002283F834200223FB75FB7DF3
:1013B40018461837BD4680BD80B584B000AF78604C
:1013C4007B689B6DFB60FFF7D3FDB8607B6893F887
:1013D4003530DBB2022B08D07B6880225A657B68EB
:1013E400002283F83420012352E07B681B681A68CA
:1013F4007B681B6822F016021A607B681B685A69B6
:101404007B681B6822F080025A617B681B6C002B8E
:1014140003D17B689B6C002B07D07B681B681A6820
:101424007B681B6822F008021A607B681B681A68D4
:101434007B681B6822F001021A6013E0FFF798FD35
:101444000246BB68D31A052B0CD97B6820225A6547
:101454007B68032283F835207B68002283F83420DC
:10146400032315E07B681B681B6803F00103002B52
:10147400E4D17B68DB6D3F229A40FB689A607B680D
:10148400012283F835207B68002283F8342000236E
:1014940018461037BD4680BD80B483B000AF786075
:1014A4007B6893F83530DBB2022B04D07B68802252
:1014B4005A6501230CE07B68052283F835207B689C
:1014C4001B681A687B681B6822F001021A600023FB
:1014D40018460C37BD465DF8047B704780B586B06E
:1014E40000AF78600023BB608E4B1B688E4AA2FB62
:1014F40003239B0A7B617B689B6D3B613B691B6893
:10150400FB607B68DB6D08229A40FB681340002B6C
:101514001AD07B681B681B6803F00403002B13D0EC
:101524007B681B681A687B681B6822F004021A60D7
:101534007B68DB6D08229A403B699A607B685B6D2F
:1015440043F001027B685A657B68DB6D01229A4097
:10155400FB681340002B12D07B681B685B6903F0A7
:101564008003002B0BD07B68DB6D01229A403B6922
:101574009A607B685B6D43F002027B685A657B6806
:10158400DB6D04229A40FB681340002B12D07B6869
:101594001B681B6803F00203002B0BD07B68DB6D18
:1015A40004229A403B699A607B685B6D43F00402B5
:1015B4007B685A657B68DB6D10229A40FB68134098
:1015C400002B43D07B681B681B6803F00803002BC7
:1015D4003CD07B68DB6D10229A403B699A607B6843
:1015E4001B681B6803F48023002B18D07B681B68DE
:1015F4001B6803F40023002B08D17B681B6C002BB1
:1016040024D07B681B6C786898471FE07B689B6CD0
:10161400002B1BD07B689B6C7868984716E07B682E
:101624001B681B6803F48073002B07D17B681B685D
:101634001A687B681B6822F008021A607B681B6CBE
:10164400002B03D07B681B6C786898477B68DB6D44
:1016540020229A40FB681340002B00F08F807B68A7
:101664001B681B6803F01003002B00F087807B6865
:10167400DB6D20229A403B699A607B6893F8353091
:10168400DBB2052B36D17B681B681A687B681B6844
:1016940022F016021A607B681B685A697B681B6813
:1016A40022F080025A617B681B6C002B03D17B689B
:1016B4009B6C002B07D07B681B681A687B681B68CF
:1016C40022F008021A607B68DB6D3F229A403B6976
:1016D4009A607B68012283F835207B68002283F8B6
:1016E40034207B681B6D002B7ED07B681B6D786873
:1016F400984779E07B681B681B6803F48023002B00
:101704001DD07B681B681B6803F40023002B0DD1DC
:101714007B685B6C002B31D07B685B6C7868984786
:101724002CE000BF24000020B5814E1B7B68DB6BDE
:10173400002B23D07B68DB6B786898471EE07B68BE
:101744001B681B6803F48073002B0FD17B681B6834
:101754001A687B681B6822F010021A607B680122F9
:1017640083F835207B68002283F834207B68DB6BA8
:10177400002B03D07B68DB6B786898477B685B6DD4
:10178400002B32D07B685B6D03F00103002B22D069
:101794007B68052283F835207B681B681A687B68A0
:1017A4001B6822F001021A60BB680133BB607A69CE
:1017B4009A4207D37B681B681B6803F00103002B64
:1017C400F2D100E000BF7B68012283F835207B68FA
:1017D400002283F834207B68DB6C002B05D07B6807
:1017E400DB6C7868984700E000BF1837BD4680BDC1
:1017F40080B483B000AF78607B685B6D18460C37AB
:10180400BD465DF8047B704780B485B000AFF860D6
:10181400B9607A603B60FB681B681A68FB681B68E8
:1018240022F480221A60FB681B683A685A60FB68DD
:101834009B68402B08D1FB681B687A689A60FB6838
:101844001B68BA68DA6007E0FB681B68BA689A60CC
:10185400FB681B687A68DA6000BF1437BD465DF820
:10186400047B704780B485B000AF78607B681B68E8
:10187400DBB2103B144AA2FB03231B09FB60134A8F
:10188400FB6813441B781A467B68DA65FB68032BF4
:1018940009D97B681B6823F47F7323F003031A1DA3
:1018A4007B689A6507E07B681B6823F47F7323F0E9
:1018B40003037A6893657B689B6D18461437BD46AD
:1018C4005DF8047B704700BFABAAAAAA8C65000828
:1018D40080B485B000AF78600023FB737B689B6A9B
:1018E400BB607B689B69002B1FD1BB68032B56D858
:1018F40001A252F823F000BF0D1900081F190008B7
:101904000D190008A31900087B68DB6A03F08073D3
:10191400002B46D00123FB7343E07B68DB6AB3F101
:10192400C07F40D10123FB733DE07B689B69B3F525
:10193400005F21D1BB68032B37D801A252F823F0F2
:10194400551900085B190008551900086D1900089D
:101954000123FB7330E07B68DB6A03F08073002BA8
:1019640025D00123FB7322E07B68DB6AB3F1C07FDF
:101974001FD10123FB731CE0BB68022B03D9BB6896
:10198400032B03D018E00123FB7315E07B68DB6AAB
:1019940003F08073002B0ED00123FB730BE000BF18
:1019A4000AE000BF08E000BF06E000BF04E000BF9B
:1019B40002E000BF00E000BFFB7B18461437BD46C1
:1019C4005DF8047B704700BF80B489B000AF7860D5
:1019D400396000237B6100233B610023BB6100234A
:1019E400FB6159E10122FB6902FA03F37B613B6865
:1019F4001B687A6913403B613A697B699A4240F0FB
:101A040048813B685B6803F00303012B05D03B6806
:101A14005B6803F00303022B30D17B689B68BB61D6
:101A2400FB695B00032202FA03F3DB43BA69134048
:101A3400BB613B68DA68FB695B0002FA03F3BA69CD
:101A44001343BB617B68BA699A607B685B68BB615E
:101A54000122FB6902FA03F3DB43BA691340BB6159
:101A64003B685B681B0903F00102FB6902FA03F39C
:101A7400BA691343BB617B68BA695A603B685B68A7
:101A840003F00303032B17D07B68DB68BB61FB699E
:101A94005B00032202FA03F3DB43BA691340BB6120
:101AA4003B689A68FB695B0002FA03F3BA69134363
:101AB400BB617B68BA69DA603B685B6803F0030367
:101AC400022B23D1FB69DA087B68083253F82230F1
:101AD400BB61FB6903F007039B000F2202FA03F3C7
:101AE400DB43BA691340BB613B681A69FB6903F0C5
:101AF40007039B0002FA03F3BA691343BB61FB6952
:101B0400DA087B680832B96943F822107B681B68DD
:101B1400BB61FB695B00032202FA03F3DB43BA698E
:101B24001340BB613B685B6803F00302FB695B0025
:101B340002FA03F3BA691343BB617B68BA691A609A
:101B44003B685B6803F44033002B00F0A280002361
:101B5400FB60574B5B6C564A43F480435364544BCD
:101B64005B6C03F48043FB60FB68524AFB699B088F
:101B7400023352F82330BB61FB6903F003039B007B
:101B84000F2202FA03F3DB43BA691340BB617B689B
:101B9400494A934219D07B68484A934213D07B68E0
:101BA400474A93420DD07B68464A934207D07B68EC
:101BB400454A934201D1042308E0072306E00323A6
:101BC40004E0022302E0012300E00023FA6902F0AA
:101BD400030292009340BA691343BB613549FB6920
:101BE4009B080233BA6941F82320384B9B68BB61D8
:101BF4003B69DB43BA691340BB613B685B6803F430
:101C04008013002B03D0BA693B691343BB612F4A8D
:101C1400BB6993602D4BDB68BB613B69DB43BA69ED
:101C24001340BB613B685B6803F40013002B03D0D3
:101C3400BA693B691343BB61244ABB69D360234B34
:101C44005B68BB613B69DB43BA691340BB613B68BA
:101C54005B6803F40033002B03D0BA693B69134378
:101C6400BB611A4ABB695360184B1B68BB613B6973
:101C7400DB43BA691340BB613B685B6803F48033A0
:101C8400002B03D0BA693B691343BB610F4ABB699C
:101C94001360FB690133FB61FB690F2B7FF6A2AE76
:101CA40000BF00BF2437BD465DF8047B704700BF0A
:101CB40000380240003801400000024000040240A5
:101CC40000080240000C024000100240003C0140A9
:101CD40080B584B000AF78607B68002B01D101230C
:101CE4002BE17B6893F83D30DBB2002B06D17B6897
:101CF400002283F83C207868FEF7BEFC7B6824222F
:101D040083F83D207B681B681A687B681B6822F097
:101D140001021A607B681B681A687B681B6842F4BE
:101D240000421A607B681B681A687B681B6822F48F
:101D340000421A6001F0F4FEF8607B685B68814A37
:101D4400934207D8FB68804A934294BF012300233F
:101D5400DBB206E0FB687D4A934294BF0123002373
:101D6400DBB2002B01D00123E7E0FB68784AA2FB39
:101D740003239B0CBB607B681B685B6823F03F01FB
:101D84007B681B68BA680A435A607B681B681B6AD5
:101D940023F03F017B685B686A4A934202D8BB68C0
:101DA400013309E0BB684FF4967202FB03F3694AFE
:101DB400A2FB03239B0901337A6812680B43136265
:101DC4007B681B68DB6923F44F4222F0FF027B68C7
:101DD4005B685C498B4219D8FB68591E7B685B6859
:101DE4005B00B1FBF3F3591C40F6FC730B40002B72
:101DF4000AD0FB68591E7B685B685B00B1FBF3F398
:101E04000133C3F30B0351E004234FE07B689B6869
:101E1400002B11D1FB68581E7B6859680B465B0088
:101E24000B44B0FBF3F30133C3F30B03002B0CBFE0
:101E340001230023DBB212E0FB68581E7B6859685B
:101E44000B469B000B4499000B44B0FBF3F30133A6
:101E5400C3F30B03002B0CBF01230023DBB2002BC5
:101E640001D0012322E07B689B68002B0ED1FB6824
:101E7400581E7B6859680B465B000B44B0FBF3F3B8
:101E84000133C3F30B0343F400430FE0FB68581E14
:101E94007B6859680B469B000B4499000B44B0FBCC
:101EA400F3F30133C3F30B0343F440437968096844
:101EB4001343CB617B681B681B6823F0C0017B68FC
:101EC400DA697B681B6A1A437B681B680A431A60D9
:101ED4007B681B689B6823F4034323F0FF037A6841
:101EE40011697A68D26811437A6812680B43936067
:101EF4007B681B68DB6823F0FF017B685A697B6899
:101F04009B691A437B681B680A43DA607B681B6819
:101F14001A687B681B6842F001021A607B68002221
:101F24001A647B68202283F83D207B6800221A63B0
:101F34007B68002283F83E20002318461037BD46F4
:101F440080BD00BFA08601007F841E00FF083D0005
:101F540083DE1B43D34D621080B588B002AFF860B6
:101F6400084611461A4603467B810B463B811346BD
:101F7400FB80FEF7FDFF7861FB6893F83D30DBB230
:101F8400202B40F0D9807B690093192301226D49ED
:101F9400F86800F05FFF0346002B01D00223CCE079
:101FA400FB6893F83C30012B01D10223C5E0FB68A8
:101FB400012283F83C20FB681B681B6803F00103C3
:101FC400012B07D0FB681B681A68FB681B6842F08A
:101FD40001021A60FB681B681A68FB681B6822F41C
:101FE40000621A60FB68212283F83D20FB684022CE
:101FF40083F83E20FB6800221A64FB683A6A5A623E
:10200400FB68BA8C5A85FB685B8D9AB2FB681A85AB
:10201400FB684D4ADA62F8883A8979897B690193C9
:10202400BB6A00930346F86800F07AFC0346002B71
:1020340052D0012381E07A69B96AF86801F024F882
:102044000346002B0DD0FB681B6C042B07D1FB68E7
:102054001B681A68FB681B6842F400721A6001234B
:102064006BE0FB685B6A1A78FB681B681A61FB68A3
:102074005B6A5A1CFB685A62FB681B8D013B9AB26F
:10208400FB681A85FB685B8D9BB2013B9AB2FB68C7
:102094005A85FB681B685B6903F00403042B1BD19E
:1020A400FB681B8D002B17D0FB685B6A1A78FB68F2
:1020B4001B681A61FB685B6A5A1CFB685A62FB68FE
:1020C4001B8D013B9AB2FB681A85FB685B8D9BB242
:1020D400013B9AB2FB685A85FB681B8D002BAAD181
:1020E4007A69B96AF86801F017F80346002B0DD035
:1020F400FB681B6C042B07D1FB681B681A68FB6820
:102104001B6842F400721A60012316E0FB681B6826
:102114001A68FB681B6842F400721A60FB6820228C
:1021240083F83D20FB68002283F83E20FB680022F0
:1021340083F83C20002300E0022318461837BD46EC
:1021440080BD00BF020010000000FFFF80B58CB00E
:1021540002AFF860084611461A4603467B810B46D7
:102164003B811346FB80FEF703FF7862FB6893F81C
:102174003D30DBB2202B40F014827B6A009319239C
:1021840001227B49F86800F065FE0346002B01D06C
:10219400022307E2FB6893F83C30012B01D10223B0
:1021A40000E2FB68012283F83C20FB681B681B6883
:1021B40003F00103012B07D0FB681B681A68FB6856
:1021C4001B6842F001021A60FB681B681A68FB680E
:1021D4001B6822F400621A60FB68222283F83D2007
:1021E400FB68402283F83E20FB6800221A64FB68E7
:1021F4003A6B5A62FB68BA8E5A85FB685B8D9AB259
:10220400FB681A85FB685B4ADA62F8883A8979893F
:102214007B6A0193BB6B00930346F86800F016FCDD
:102224000346002B01D00123BCE1FB681B8D002B6E
:1022340013D100233B62FB681B685B693B62FB684C
:102244001B689B693B623B6AFB681B681A68FB68F6
:102254001B6842F400721A6090E1FB681B8D012B2D
:102264001BD1FB681B681A68FB681B6822F4806238
:102274001A600023FB61FB681B685B69FB61FB68F8
:102284001B689B69FB61FB69FB681B681A68FB6838
:102294001B6842F400721A6070E1FB681B8D022B0C
:1022A4001BD1FB681B681A68FB681B6822F48062F8
:1022B4001A60FB681B681A68FB681B6842F40062BA
:1022C4001A600023BB61FB681B685B69BB61FB6828
:1022D4001B689B69BB61BB6950E100237B61FB68A0
:1022E4001B685B697B61FB681B689B697B617B691D
:1022F40044E1FB681B8D032B00F2F180FB681B8D0E
:10230400012B23D17A6AB96BF86800F04DFF0346BC
:10231400002B01D0012345E1FB681B681A69FB68A7
:102324005B6AD2B21A70FB685B6A5A1CFB685A6219
:10233400FB681B8D013B9AB2FB681A85FB685B8DB9
:102344009BB2013B9AB2FB685A8517E1FB681B8D6F
:10235400022B4ED17B6A0093BB6B00220649F868BE
:1023640000F078FD0346002B08D001231AE100BFDA
:10237400020010000000FFFF04000100FB681B685E
:102384001A68FB681B6842F400721A60FB681B68D9
:102394001A69FB685B6AD2B21A70FB685B6A5A1CE2
:1023A400FB685A62FB681B8D013B9AB2FB681A8575
:1023B400FB685B8D9BB2013B9AB2FB685A85FB6854
:1023C4001B681A69FB685B6AD2B21A70FB685B6AA5
:1023D4005A1CFB685A62FB681B8D013B9AB2FB686E
:1023E4001A85FB685B8D9BB2013B9AB2FB685A85E8
:1023F400C4E07B6A0093BB6B00226C49F86800F070
:1024040029FD0346002B01D00123CBE0FB681B68A8
:102414001A68FB681B6822F480621A60FB681B68F8
:102424001A69FB685B6AD2B21A70FB685B6A5A1C51
:10243400FB685A62FB681B8D013B9AB2FB681A85E4
:10244400FB685B8D9BB2013B9AB2FB685A857B6A41
:102454000093BB6B00225549F86800F0FBFC03466F
:10246400002B01D001239DE0FB681B681A68FB6800
:102474001B6842F400721A60FB681B681A69FB68E7
:102484005B6AD2B21A70FB685B6A5A1CFB685A62B8
:10249400FB681B8D013B9AB2FB681A85FB685B8D58
:1024A4009BB2013B9AB2FB685A85FB681B681A69A8
:1024B400FB685B6AD2B21A70FB685B6A5A1CFB68E1
:1024C4005A62FB681B8D013B9AB2FB681A85FB6854
:1024D4005B8D9BB2013B9AB2FB685A854EE07A6AE7
:1024E400B96BF86800F060FE0346002B01D00123AD
:1024F40058E0FB681B681A69FB685B6AD2B21A7001
:10250400FB685B6A5A1CFB685A62FB681B8D013BC3
:102514009AB2FB681A85FB685B8D9BB2013B9AB249
:10252400FB685A85FB681B685B6903F00403042B92
:1025340024D1FB681B8D032B07D1FB681B681A6829
:10254400FB681B6822F480621A60FB681B681A69C6
:10255400FB685B6AD2B21A70FB685B6A5A1CFB6840
:102564005A62FB681B8D013B9AB2FB681A85FB68B3
:102574005B8D9BB2013B9AB2FB685A85FB681B8D4D
:10258400002B7FF4B6AEFB68202283F83D20FB6865
:10259400002283F83E20FB68002283F83C200023BD
:1025A40000E0022318462837BD4680BD0400010020
:1025B40080B58CB002AFF860084611461A4603464F
:1025C4007B810B463B811346FB80FEF7D1FC78628E
:1025D4000023FB61FB6893F83D30DBB2202B40F015
:1025E4007281934B1B68DB08924AA2FB03231A0AED
:1025F40013469B0013449A001344FB61FB69013B9F
:10260400FB61FB69002B12D1FB6800221A63FB6893
:10261400202283F83D20FB68002283F83E20FB68DB
:102624001B6C43F02002FB681A6402234CE1FB6834
:102634001B689B6903F00203022BDFD0FB6893F84D
:102644003C30012B01D102233EE1FB68012283F8D7
:102654003C20FB681B681B6803F00103012B07D0B7
:10266400FB681B681A68FB681B6842F001021A6069
:10267400FB681B681A68FB681B6822F400621A6016
:10268400FB68222283F83D20FB68402283F83E2029
:10269400FB6800221A64FB683A6B5A62FB68BA8EC4
:1026A4005A85FB685B8D9AB2FB681A85FB68624A9F
:1026B400DA627A89FB685A643A89FB689A64FA8810
:1026C400FB68DA64FB6800221A65FB681B8D002B2B
:1026D40000F0CC80FB689B6B002B2DD0FB689B6BC0
:1026E400564ADA63FB689B6B554ADA64FB689B6B5A
:1026F40000221A64FB689B6B00225A64FB689B6B84
:1027040000229A64FB689B6B00221A65FB68986B35
:10271400FB681B6810331946FB685B6A1A46FB6842
:102724001B8DFEF7F1FD034687F8233097F823301D
:10273400002B40F0878013E0FB68202283F83D20C3
:10274400FB68002283F83E20FB681B6C43F0800288
:10275400FB681A64FB68002283F83C200123B3E081
:10276400F8883A8979897B6A019323230093034685
:10277400F86800F06BF90346002B23D0FB689B6BD1
:102784001846FEF789FE034687F82330FB689B6BE7
:102794000022DA63FB681B681A68FB681B6822F472
:1027A40080621A60FB6800221A85FB6800225A8541
:1027B400FB681B681A68FB681B6822F001021A6038
:1027C400012381E0FB681B8D012B08D1FB681B688A
:1027D4001A68FB681B6822F480621A6007E0FB68D1
:1027E4001B685A68FB681B6842F480525A600023D5
:1027F400BB61FB681B685B69BB61FB681B689B6909
:10280400BB61BB69FB68002283F83C20FB681B6842
:102814005A68FB681B6842F480725A60FB681B6844
:102824005A68FB681B6842F400625A6049E000BFC2
:102834002400002089B5F8140000FFFF212C0008B3
:10284400DF2D0008FB68202283F83D20FB6800226E
:1028540083F83E20FB681B6C43F01002FB681A648B
:10286400FB68002283F83C2001232DE0F8883A8994
:1028740079897B6A0193232300930346F86800F067
:10288400E5F80346002B01D001231DE000237B6102
:10289400FB681B685B697B61FB681B689B697B61E8
:1028A4007B69FB681B681A68FB681B6842F400724A
:1028B4001A60FB68202283F83D20FB68002283F81D
:1028C4003C20002300E0022318462837BD4680BD83
:1028D40080B483B000AF786000BF0C37BD465DF8AC
:1028E400047B704780B483B000AF786000BF0C37BE
:1028F400BD465DF8047B704780B483B000AF786058
:1029040000BF0C37BD465DF8047B704780B483B0CC
:1029140000AF786000BF0C37BD465DF8047B70479C
:1029240080B588B002AFF860084611461A460346DF
:102934007B810B463B811346FB80FB681B681A684E
:10294400FB681B6842F480721A607B6A00933B6ADE
:1029540000224FF00111F86800F07CFA0346002BC6
:102964000DD0FB681B681B6803F48073B3F5807F8C
:1029740003D1FB684FF400721A6403235FE07B8980
:10298400DBB21A46FB681B6802F0FE021A617B6A1E
:102994003A6A2D49F86800F0D7FA0346002B01D0B3
:1029A40001234CE000237B61FB681B685B697B614E
:1029B400FB681B689B697B617B697A6A396AF86882
:1029C40000F062FB0346002B0DD0FB681B6C042B4C
:1029D40007D1FB681B681A68FB681B6842F4007225
:1029E4001A6001232BE0FB88012B05D13B89DAB265
:1029F400FB681B681A6121E03B891B0A9BB2DAB2AF
:102A0400FB681B681A617A6A396AF86800F03CFB53
:102A14000346002B0DD0FB681B6C042B07D1FB680D
:102A24001B681A68FB681B6842F400721A60012371
:102A340005E03B89DAB2FB681B681A61002318467B
:102A44001837BD4680BD00BF0200010080B588B0C4
:102A540002AFF860084611461A4603467B810B46CE
:102A64003B811346FB80FB681B681A68FB681B6884
:102A740042F480621A60FB681B681A68FB681B6872
:102A840042F480721A607B6A00933B6A00224FF022
:102A94000111F86800F0DEF90346002B0DD0FB6845
:102AA4001B681B6803F48073B3F5807F03D1FB6854
:102AB4004FF400721A640323AAE07B89DBB21A463E
:102AC400FB681B6802F0FE021A617B6A3A6A52498B
:102AD400F86800F039FA0346002B01D0012397E08F
:102AE40000237B61FB681B685B697B61FB681B6877
:102AF4009B697B617B697A6A396AF86800F0C4FA79
:102B04000346002B0DD0FB681B6C042B07D1FB681C
:102B14001B681A68FB681B6842F400721A60012380
:102B240076E0FB88012B05D13B89DAB2FB681B6890
:102B34001A6121E03B891B0A9BB2DAB2FB681B686D
:102B44001A617A6A396AF86800F09EFA0346002B23
:102B54000DD0FB681B6C042B07D1FB681B681A683B
:102B6400FB681B6842F400721A60012350E03B8941
:102B7400DAB2FB681B681A617A6A396AF86800F08D
:102B840083FA0346002B0DD0FB681B6C042B07D182
:102B9400FB681B681A68FB681B6842F400721A60C1
:102BA400012335E0FB681B681A68FB681B6842F464
:102BB40080721A607B6A00933B6A00224FF0011115
:102BC400F86800F047F90346002B0DD0FB681B683A
:102BD4001B6803F48073B3F5807F03D1FB684FF463
:102BE40000721A64032313E07B89DBB243F0010310
:102BF400DAB2FB681B681A617B6A3A6A0649F868AC
:102C040000F0A2F90346002B01D0012300E00023C9
:102C140018461837BD4680BD0200010080B586B055
:102C240000AF78607B689B6B7B617B6993F83D3078
:102C3400FB747B6993F83E30BB747B69DB6AFB6091
:102C44007B691B685A687B691B6822F440725A606E
:102C54007B695B6B002B03D07B695B6B0022DA63BF
:102C64007B699B6B002B03D07B699B6B0022DA632F
:102C7400FB7C03F02103212B07D0FB7C03F0220310
:102C8400222B31D1BB7C202B2ED17B691B685A6847
:102C94007B691B6822F400625A607B6900225A85B2
:102CA400FB7C292B0AD17B6921221A637B692822A8
:102CB40083F83D207869FFF715FE0CE0FB7C2A2B96
:102CC40009D17B6922221A637B69282283F83D207B
:102CD4007869FFF711FE7B691B685A687B691B687A
:102CE40042F440725A6074E07B6993F83E30DBB280
:102CF400002B6ED07B695B8D9BB2012B07D17B6966
:102D04001B681A687B691B6822F480621A607B69FD
:102D14001B685A687B691B6822F440725A60FB681E
:102D240013F5803F09D0FB68082B06D0FB68B3F18C
:102D34002A4F02D0FB68202B07D17B691B681A68D5
:102D44007B691B6842F400721A607B691B685A68CD
:102D54007B691B6822F480525A607B691B685A683D
:102D64007B691B6822F400625A607B6900225A85E1
:102D74007B691B6C002B03D07869FFF7C7FD28E043
:102D84007B69202283F83D207B6993F83E30DBB2D7
:102D9400402B0AD17B69002283F83E207B69002204
:102DA4001A637869FDF722FC13E07B69002283F83B
:102DB4003E20FB68082B02D0FB68202B03D17B69E3
:102DC40000221A6302E07B6912221A637869FFF712
:102DD4007FFD00BF1837BD4680BD80B584B000AF0D
:102DE40078607B689B6BFB60FB685B6B002B03D09C
:102DF400FB685B6B0022DA63FB689B6B002B03D0E0
:102E0400FB689B6B0022DA637868FEF7F1FC0346EB
:102E1400022B1BD0FB681B681A68FB681B6822F432
:102E240080621A60FB6800225A85FB68202283F8BE
:102E34003D20FB68002283F83E20FB681B6C43F0B6
:102E44001002FB681A64F868FFF760FD00BF1037D2
:102E5400BD4680BD80B584B000AFF860B9603B600A
:102E64001346FB7148E03B68B3F1FF3F44D0FEF7E3
:102E74007FF80246BB69D31A3A689A4202D33B6888
:102E8400002B39D1BB681B0CDBB2012B0DD1FB68C5
:102E94001B685B69DA43BB6813409BB2002B0CBF11
:102EA40001230023DBB21A460CE0FB681B689B6914
:102EB400DA43BB6813409BB2002B0CBF01230023F1
:102EC400DBB21A46FB799A4216D1FB6800221A63D8
:102ED400FB68202283F83D20FB68002283F83E2013
:102EE400FB681B6C43F02002FB681A64FB68002239
:102EF40083F83C20012323E0BB681B0CDBB2012BCD
:102F04000DD1FB681B685B69DA43BB6813409BB255
:102F1400002B0CBF01230023DBB21A460CE0FB6834
:102F24001B689B69DA43BB6813409BB2002B0CBF40
:102F340001230023DBB21A46FB799A4293D0002383
:102F440018461037BD4680BD80B584B000AFF86028
:102F5400B9607A603B6071E0FB681B685B6903F4ED
:102F64008063B3F5806F23D1FB681B681A68FB6824
:102F74001B6842F400721A60FB681B686FF480627D
:102F84005A61FB6800221A63FB68202283F83D2003
:102F9400FB68002283F83E20FB681B6C43F00402AC
:102FA400FB681A64FB68002283F83C20012367E075
:102FB4007B68B3F1FF3F41D0FDF7DAFF02463B687F
:102FC400D31A7A689A4202D37B68002B36D1BB6845
:102FD4001B0CDBB2012B0CD1FB681B685B69DA4369
:102FE400BB6813409BB2002B14BF01230023DBB248
:102FF4000BE0FB681B689B69DA43BB6813409BB218
:10300400002B14BF01230023DBB2002B16D0FB6876
:1030140000221A63FB68202283F83D20FB6800220B
:1030240083F83E20FB681B6C43F02002FB681A64A3
:10303400FB68002283F83C20012321E0BB681B0CC1
:10304400DBB2012B0CD1FB681B685B69DA43BB68FC
:1030540013409BB2002B14BF01230023DBB20BE00F
:10306400FB681B689B69DA43BB6813409BB2002B67
:1030740014BF01230023DBB2002B7FF46DAF0023C8
:1030840018461037BD4680BD80B584B000AFF860E7
:10309400B9607A6034E0F86800F0E3F80346002B86
:1030A40001D0012334E0BB68B3F1FF3F28D0FDF722
:1030B4005FFF02467B68D31ABA689A4202D3BB68A0
:1030C400002B1DD1FB681B685B6903F08003802B18
:1030D40016D0FB6800221A63FB68202283F83D2087
:1030E400FB68002283F83E20FB681B6C43F020023F
:1030F400FB681A64FB68002283F83C20012307E084
:10310400FB681B685B6903F08003802BC3D1002339
:1031140018461037BD4680BD80B584B000AFF86056
:10312400B9607A6034E0F86800F09BF80346002B3D
:1031340001D0012334E0BB68B3F1FF3F28D0FDF791
:1031440017FF02467B68D31ABA689A4202D3BB6857
:10315400002B1DD1FB681B685B6903F00403042B7F
:1031640016D0FB6800221A63FB68202283F83D20F6
:10317400FB68002283F83E20FB681B6C43F02002AE
:10318400FB681A64FB68002283F83C20012307E0F3
:10319400FB681B685B6903F00403042BC3D10023A1
:1031A40018461037BD4680BD80B584B000AFF860C6
:1031B400B9607A6049E0FB681B685B6903F010033F
:1031C400102B19D1FB681B686FF010025A61FB6861
:1031D40000221A63FB68202283F83D20FB6800224A
:1031E40083F83E20FB681A6CFB681A64FB680022B3
:1031F40083F83C20012330E0FDF7BAFE02467B68E9
:10320400D31ABA689A4202D3BB68002B1DD1FB685B
:103214001B685B6903F04003402B16D0FB68002257
:103224001A63FB68202283F83D20FB68002283F8A0
:103234003E20FB681B6C43F02002FB681A64FB68A9
:10324400002283F83C20012307E0FB681B685B69CC
:1032540003F04003402BAED1002318461037BD467F
:1032640080BD80B483B000AF78607B681B685B6905
:1032740003F48063B3F5806F1BD17B681B686FF424
:1032840080625A617B6800221A637B68202283F87B
:103294003D207B68002283F83E207B681B6C43F052
:1032A40004027B681A647B68002283F83C200123B3
:1032B40000E0002318460C37BD465DF8047B7047D8
:1032C40080B586B000AF78607B68002B01D1012304
:1032D40067E27B681B6803F00103002B75D0884B01
:1032E4009B6803F00C03042B0CD0854B9B6803F004
:1032F4000C03082B12D1824B5B6803F48003B3F5F3
:10330400800F0BD17E4B1B6803F40033002B5BD082
:103314007B685B68002B57D1012342E27B685B68C2
:10332400B3F5803F06D1764B1B68754A43F480336E
:1033340013601DE07B685B68B3F5A02F0CD1704B64
:103344001B686F4A43F4802313606D4B1B686C4AFF
:1033540043F4803313600BE0694B1B68684A23F421
:1033640080331360664B1B68654A23F48023136023
:103374007B685B68002B13D0FDF7FAFD386108E029
:10338400FDF7F6FD02463B69D31A642B01D90323EA
:1033940007E25B4B1B6803F40033002BF0D014E00E
:1033A400FDF7E6FD386108E0FDF7E2FD02463B6902
:1033B400D31A642B01D90323F3E1514B1B6803F4A3
:1033C4000033002BF0D100E000BF7B681B6803F0E2
:1033D4000203002B63D04A4B9B6803F00C03002BC1
:1033E4000BD0474B9B6803F00C03082B1CD1444BB8
:1033F4005B6803F48003002B16D1414B1B6803F078
:103404000203002B05D07B68DB68012B01D001236C
:10341400C7E13B4B1B6823F0F8027B681B69DB00A8
:10342400374913430B603AE07B68DB68002B20D0FC
:10343400344B01221A60FDF79BFD386108E0FDF76B
:1034440097FD02463B69D31A022B01D90323A8E155
:103454002B4B1B6803F00203002BF0D0284B1B6896
:1034640023F0F8027B681B69DB00254913430B60DA
:1034740015E0244B00221A60FDF77AFD386108E05C
:10348400FDF776FD02463B69D31A022B01D90323CB
:1034940087E11B4B1B6803F00203002BF0D17B6810
:1034A4001B6803F00803002B36D07B685B69002B94
:1034B40016D0154B01221A60FDF75AFD386108E059
:1034C400FDF756FD02463B69D31A022B01D90323AB
:1034D40067E10B4B5B6F03F00203002BF0D01BE0A2
:1034E400094B00221A60FDF743FD38610EE0FDF739
:1034F4003FFD02463B69D31A022B07D9032350E14F
:103504000038024000004742800E4742884B5B6F00
:1035140003F00203002BEAD17B681B6803F0040369
:10352400002B00F097800023FB75814B1B6C03F08C
:103534008053002B0FD10023BB607D4B1B6C7C4A56
:1035440043F0805313647A4B1B6C03F08053BB60CD
:10355400BB680123FB75774B1B6803F48073002B56
:1035640018D1744B1B68734A43F480731360FDF7DE
:10357400FFFC386108E0FDF7FBFC02463B69D31A07
:10358400022B01D903230CE16A4B1B6803F48073FB
:10359400002BF0D07B689B68012B06D1644B1B6F1A
:1035A400634A43F0010313671CE07B689B68052BA7
:1035B4000CD15F4B1B6F5E4A43F0040313675C4BF3
:1035C4001B6F5B4A43F0010313670BE0584B1B6FFF
:1035D400574A23F001031367554B1B6F544A23F0DA
:1035E400040313677B689B68002B15D0FDF7C0FCB0
:1035F40038610AE0FDF7BCFC02463B69D31A41F28C
:103604008832934201D90323CBE0494B1B6F03F06B
:103614000203002BEED014E0FDF7AAFC38610AE0A7
:10362400FDF7A6FC02463B69D31A41F28832934265
:1036340001D90323B5E03E4B1B6F03F00203002BBB
:10364400EED1FB7D012B05D1394B1B6C384A23F09D
:10365400805313647B689B69002B00F0A180344B7A
:103664009B6803F00C03082B5CD07B689B69022BDE
:1036740041D1314B00221A60FDF77AFC386108E031
:10368400FDF776FC02463B69D31A022B01D90323CA
:1036940087E0274B1B6803F00073002BF0D17B6895
:1036A400DA697B681B6A1A437B685B6A9B011A436D
:1036B4007B689B6A5B08013B1B041A437B68DB6ADB
:1036C4001B061B4913434B601B4B01221A60FDF779
:1036D4004FFC386108E0FDF74BFC02463B69D31A06
:1036E400022B01D903235CE0114B1B6803F0007328
:1036F400002BF0D054E0104B00221A60FDF738FC88
:10370400386108E0FDF734FC02463B69D31A022B0A
:1037140001D9032345E0064B1B6803F00073002B1B
:10372400F0D13DE07B689B69012B07D1012338E090
:103734000038024000700040600047421B4B5B6849
:10374400FB607B689B69012B28D0FB6803F4800233
:103754007B68DB699A4221D1FB6803F03F027B68F6
:103764001B6A9A421AD1FA6847F6C07313407A6802
:10377400526A9201934211D1FB6803F440327B6890
:103784009B6A5B08013B1B049A4207D1FB6803F068
:1037940070627B68DB6A1B069A4201D0012300E059
:1037A400002318461837BD4680BD00BF00380240CC
:1037B40080B584B000AF786039607B68002B01D19C
:1037C4000123CCE0684B1B6803F007033A689A4274
:1037D4000CD9654B3A68D2B21A70634B1B6803F07C
:1037E40007033A689A4201D00123B8E07B681B685A
:1037F40003F00203002B20D07B681B6803F0040352
:10380400002B05D0594B9B68584A43F4E05393600E
:103814007B681B6803F00803002B05D0534B9B689F
:10382400524A43F460439360504B9B6823F0F00288
:103834007B689B684D4913438B607B681B6803F06E
:103844000103002B44D07B685B68012B07D1474BF5
:103854001B6803F40033002B19D101237FE07B683C
:103864005B68022B03D07B685B68032B07D13F4B5B
:103874001B6803F00073002B09D101236FE03B4B5D
:103884001B6803F00203002B01D1012367E0374BCF
:103894009B6823F003027B685B68344913438B60A5
:1038A400FDF766FBF8600AE0FDF762FB0246FB6881
:1038B400D31A41F28832934201D903234FE02B4BB0
:1038C4009B6803F00C027B685B689B009A42EBD117
:1038D400254B1B6803F007033A689A420CD2224B2B
:1038E4003A68D2B21A70204B1B6803F007033A6897
:1038F4009A4201D0012332E07B681B6803F0040381
:10390400002B08D0194B9B6823F4E0527B68DB68DA
:10391400164913438B607B681B6803F00803002B74
:1039240009D0124B9B6823F460427B681B69DB005F
:103934000E4913438B6000F021F802460B4B9B6841
:103944001B0903F00F030A49CB5C22FA03F3094A6B
:103954001360094B1B681846FDF7C6FA0023184686
:103964001037BD4680BD00BF003C02400038024015
:103974007465000824000020280000202DE9B04FC1
:1039840090B000AF00237B630023FB6300233B6301
:103994000023BB63594B9B6803F00C03082B0DD029
:1039A400082B00F2A180002B02D0042B03D09BE053
:1039B400534BBB639BE0534BBB6398E04F4B5B683B
:1039C40003F03F037B634D4B5B6803F48003002BE0
:1039D40028D04A4B5B689B0900223B627A623B6AAF
:1039E400C3F308000021474B03FB01F2002300FB53
:1039F40003F31344434AA0FB0212FA620A46BA6272
:103A0400FA6A1344FB627B6B0022BB61FA61D7E95B
:103A14000623D7E90A01FCF7DBFB02460B461346F3
:103A2400FB6353E0354B5B689B0900223B617A6181
:103A34003B69C3F3080A4FF0000B52465B464FF054
:103A440000004FF00001590141EAD26150010246E1
:103A54000B46B2EB0A0863EB0B094FF000024FF080
:103A640000034FEA891343EA98634FEA8812B2EBE2
:103A7400080463EB09054FF000024FF00003EB006C
:103A840043EA5473E20014461D4614EB0A033B60F8
:103A940045EB0B037B604FF000024FF00003D7E9C6
:103AA400004529468B02214643EA915321468A0266
:103AB400104619467B6B0022BB60FA60D7E90223EB
:103AC400FCF786FB02460B461346FB630B4B5B6815
:103AD4001B0C03F0030301335B003B63FA6B3B6B8A
:103AE400B2FBF3F3BB6302E0054BBB6300BFBB6BEC
:103AF40018464037BD46BDE8B08F00BF00380240CD
:103B04000024F40040787D0180B400AF034B1B68AF
:103B14001846BD465DF8047B704700BF24000020B2
:103B240080B500AFFFF7F0FF0246054B9B689B0A88
:103B340003F007030349CB5C22FA03F3184680BD64
:103B4400003802408465000880B500AFFFF7DCFF51
:103B54000246054B9B685B0B03F007030349CB5CF0
:103B640022FA03F3184680BD003802408465000839
:103B740080B582B000AF78607B68002B01D101234F
:103B840041E07B6893F83D30DBB2002B06D17B68C3
:103B9400002283F83C207868FCF700FE7B68022250
:103BA40083F83D207B681A687B6804331946104605
:103BB40000F028FB7B68012283F846207B68012201
:103BC40083F83E207B68012283F83F207B68012232
:103BD40083F840207B68012283F841207B6801221E
:103BE40083F842207B68012283F843207B6801220A
:103BF40083F844207B68012283F845207B680122F6
:103C040083F83D20002318460837BD4680BD80B5A3
:103C140082B000AF78607B68002B01D1012341E0C2
:103C24007B6893F83D30DBB2002B06D17B68002221
:103C340083F83C20786800F039F87B68022283F826
:103C44003D207B681A687B6804331946104600F0EF
:103C5400D9FA7B68012283F846207B68012283F825
:103C64003E207B68012283F83F207B68012283F891
:103C740040207B68012283F841207B68012283F87D
:103C840042207B68012283F843207B68012283F869
:103C940044207B68012283F845207B68012283F855
:103CA4003D20002318460837BD4680BD80B483B04C
:103CB40000AF786000BF0C37BD465DF8047B7047E9
:103CC40080B584B000AF78607B681B68DB68FB60FC
:103CD4007B681B681B69BB60BB6803F00203002B95
:103CE40020D0FB6803F00203002B1BD07B681B6809
:103CF4006FF002021A617B6801221A777B681B68E5
:103D04009B6903F00303002B03D0786800F05BFA8F
:103D140005E0786800F04DFA786800F05EFA7B6898
:103D240000221A77BB6803F00403002B20D0FB6841
:103D340003F00403002B1BD07B681B686FF00402A4
:103D44001A617B6802221A777B681B689B6903F4FB
:103D54004073002B03D0786800F035FA05E07868EA
:103D640000F027FA786800F038FA7B6800221A77A6
:103D7400BB6803F00803002B20D0FB6803F00803A2
:103D8400002B1BD07B681B686FF008021A617B68EC
:103D940004221A777B681B68DB6903F00303002B9A
:103DA40003D0786800F00FFA05E0786800F001FAB3
:103DB400786800F012FA7B6800221A77BB6803F077
:103DC4001003002B20D0FB6803F01003002B1BD042
:103DD4007B681B686FF010021A617B6808221A77EF
:103DE4007B681B68DB6903F44073002B03D078689D
:103DF40000F0E9F905E0786800F0DBF9786800F094
:103E0400ECF97B6800221A77BB6803F00103002BEE
:103E14000CD0FB6803F00103002B07D07B681B6800
:103E24006FF001021A617868FCF774FBBB6803F059
:103E34008003002B0CD0FB6803F08003002B07D019
:103E44007B681B686FF080021A61786800F004FDDB
:103E5400BB6803F04003002B0CD0FB6803F0400365
:103E6400002B07D07B681B686FF040021A617868EA
:103E740000F0BDF9BB6803F02003002B0CD0FB68F5
:103E840003F02003002B07D07B681B686FF020022F
:103E94001A61786800F0D6FC00BF1037BD4680BDBB
:103EA40080B586B000AFF860B9607A600023FB7516
:103EB400FB6893F83C30012B01D10223AEE0FB6890
:103EC400012283F83C207B680C2B00F29F8001A226
:103ED40052F823F00D3F000811400008114000087B
:103EE400114000084D3F000811400008114000082F
:103EF400114000088F3F00081140000811400008DD
:103F040011400008CF3F0008FB681B68B9681846D9
:103F140000F004FAFB681B689A69FB681B6842F0AE
:103F240008029A61FB681B689A69FB681B6822F0A7
:103F340004029A61FB681B689969BB681A69FB688B
:103F44001B680A439A6164E0FB681B68B9681846F9
:103F540000F04AFAFB681B689A69FB681B6842F424
:103F640000629A61FB681B689A69FB681B6822F40B
:103F740080629A61FB681B689969BB681B691A02B5
:103F8400FB681B680A439A6143E0FB681B68B968D5
:103F9400184600F095FAFB681B68DA69FB681B6831
:103FA40042F00802DA61FB681B68DA69FB681B6887
:103FB40022F00402DA61FB681B68D969BB681A69DC
:103FC400FB681B680A43DA6123E0FB681B68B96875
:103FD400184600F0DFFAFB681B68DA69FB681B68A7
:103FE40042F40062DA61FB681B68DA69FB681B68EB
:103FF40022F48062DA61FB681B68D969BB681B69BB
:104004001A02FB681B680A43DA6102E00123FB75AC
:1040140000BFFB68002283F83C20FB7D184618375C
:10402400BD4680BD80B584B000AF786039600023A0
:10403400FB737B6893F83C30012B01D10223B4E07D
:104044007B68012283F83C207B68022283F83D20B0
:104054007B681B689B68BB60BB6823F07703BB600D
:10406400BB6823F47F43BB607B681B68BA689A60B3
:104074003B681B68B3F5005F3ED0B3F5005F00F208
:104084008780B3F5805F00F08680B3F5805F7FD8CA
:10409400702B1AD0702B7BD8602B50D0602B77D824
:1040A400502B3CD0502B73D8402B58D0402B6FD87A
:1040B400302B64D0302B6BD8202B60D0202B67D8CA
:1040C400002B5CD0102B5AD062E07B6818683B68E8
:1040D40099683B685A683B68DB6800F025FB7B689D
:1040E4001B689B68BB60BB6843F07703BB607B685D
:1040F4001B68BA689A604FE07B6818683B689968E7
:104104003B685A683B68DB6800F00EFB7B681B6801
:104114009A687B681B6842F480429A603CE07B6842
:1041240018683B6859683B68DB681A4600F082FAF5
:104134007B681B685021184600F0DBFA2CE07B6892
:1041440018683B6859683B68DB681A4600F0A1FAB6
:104154007B681B686021184600F0CBFA1CE07B6882
:1041640018683B6859683B68DB681A4600F062FAD5
:104174007B681B684021184600F0BBFA0CE07B68A2
:104184001A683B681B681946104600F0B2FA03E04F
:104194000123FB7300E000BF7B68012283F83D200C
:1041A4007B68002283F83C20FB7B18461037BD4611
:1041B40080BD80B483B000AF786000BF0C37BD46CB
:1041C4005DF8047B704780B483B000AF786000BFB3
:1041D4000C37BD465DF8047B704780B483B000AFF4
:1041E400786000BF0C37BD465DF8047B704780B42F
:1041F40083B000AF786000BF0C37BD465DF8047B28
:104204007047000080B485B000AF786039607B6887
:104214001B68FB607B683A4A93420FD07B68B3F11A
:10422400804F0BD07B68374A934207D07B68364A6D
:10423400934203D07B68354A934208D1FB6823F04C
:104244007003FB603B685B68FA681343FB607B6840
:104254002B4A93421BD07B68B3F1804F17D07B6805
:10426400284A934213D07B68274A93420FD07B6835
:10427400264A93420BD07B68254A934207D07B6839
:10428400244A934203D07B68234A934208D1FB68B3
:1042940023F44073FB603B68DB68FA681343FB60FC
:1042A400FB6823F080023B685B691343FB607B6817
:1042B400FA681A603B689A687B68DA623B681A6835
:1042C4007B689A627B680E4A934203D13B681A6901
:1042D4007B681A637B6801225A617B681B6903F05F
:1042E4000103012B05D17B681B6923F001027B6864
:1042F4001A6100BF1437BD465DF8047B704700BFE8
:10430400000001400004004000080040000C004090
:1043140000400140004401400048014080B487B09F
:1043240000AF786039607B681B6A7B617B681B6ABD
:1043340023F001027B681A627B685B683B617B68DF
:104344009B69FB60FB6823F07003FB60FB6823F050
:104354000303FB603B681B68FA681343FB607B69DB
:1043640023F002037B613B689B687A6913437B619A
:104374007B681C4A93420CD17B6923F008037B6160
:104384003B68DB687A6913437B617B6923F0040330
:104394007B617B68134A934211D13B6923F4807398
:1043A4003B613B6923F400733B613B685B693A6999
:1043B40013433B613B689B693A6913433B617B68E8
:1043C4003A695A607B68FA689A613B685A687B6804
:1043D4005A637B687A691A6200BF1C37BD465DF870
:1043E400047B70470000014080B487B000AF786060
:1043F40039607B681B6A7B617B681B6A23F010024F
:104404007B681A627B685B683B617B689B69FB60C5
:10441400FB6823F4E043FB60FB6823F44073FB6018
:104424003B681B681B02FA681343FB607B6923F03B
:1044340020037B613B689B681B017A6913437B61A2
:104444007B681E4A93420DD17B6923F080037B6114
:104454003B68DB681B017A6913437B617B6923F04A
:1044640040037B617B68154A934213D13B6923F473
:1044740080633B613B6923F400633B613B685B6998
:104484009B003A6913433B613B689B699B003A6913
:1044940013433B617B683A695A607B68FA689A61A6
:1044A4003B685A687B689A637B687A691A6200BFC2
:1044B4001C37BD465DF8047B704700BF0000014017
:1044C40080B487B000AF786039607B681B6A7B6119
:1044D4007B681B6A23F480727B681A627B685B6862
:1044E4003B617B68DB69FB60FB6823F07003FB6066
:1044F400FB6823F00303FB603B681B68FA68134303
:10450400FB607B6923F400737B613B689B681B023F
:104514007A6913437B617B681D4A93420DD17B69A1
:1045240023F400637B613B68DB681B027A691343F5
:104534007B617B6923F480637B617B68144A9342CB
:1045440013D13B6923F480533B613B6923F400534B
:104554003B613B685B691B013A6913433B613B6800
:104564009B691B013A6913433B617B683A695A6052
:104574007B68FA68DA613B685A687B68DA637B684F
:104584007A691A6200BF1C37BD465DF8047B704728
:104594000000014080B487B000AF786039607B6868
:1045A4001B6A3B617B681B6A23F480527B681A6236
:1045B4007B685B687B617B68DB69FB60FB6823F479
:1045C400E043FB60FB6823F44073FB603B681B68BB
:1045D4001B02FA681343FB603B6923F400533B61FD
:1045E4003B689B681B033A6913433B617B68104A31
:1045F400934209D17B6923F480437B613B685B6907
:104604009B017A6913437B617B687A695A607B6892
:10461400FA68DA613B685A687B681A647B683A69AD
:104624001A6200BF1C37BD465DF8047B704700BFAB
:104634000000014080B487B000AFF860B9607A60D0
:10464400FB681B6A7B61FB681B6A23F00102FB6841
:104654001A62FB689B693B613B6923F0F0033B6191
:104664007B681B013A6913433B617B6923F00A03AE
:104674007B617A69BB6813437B61FB683A699A6121
:10468400FB687A691A6200BF1C37BD465DF8047B7B
:10469400704780B487B000AFF860B9607A60FB6897
:1046A4001B6A7B61FB681B6A23F01002FB681A62B9
:1046B400FB689B693B613B6923F470433B617B6806
:1046C4001B033A6913433B617B6923F0A0037B61BD
:1046D400BB681B017A6913437B61FB683A699A6181
:1046E400FB687A691A6200BF1C37BD465DF8047B1B
:1046F400704780B485B000AF786039607B689B6890
:10470400FB60FB6823F07003FB603A68FB681343AB
:1047140043F00703FB607B68FA689A6000BF1437B4
:10472400BD465DF8047B704780B487B000AFF86085
:10473400B9607A603B60FB689B687B617B6923F4AA
:104744007F437B613B681A027B681A43BB6813434F
:104754007A6913437B61FB687A699A6000BF1C37EE
:10476400BD465DF8047B704780B485B000AF7860C7
:1047740039607B6893F83C30012B01D1022350E06F
:104784007B68012283F83C207B68022283F83D2069
:104794007B681B685B68FB607B681B689B68BB600D
:1047A400FB6823F07003FB603B681B68FA681343E3
:1047B400FB607B681B68FA685A607B681B681C4A4C
:1047C400934218D07B681B68B3F1804F13D07B6889
:1047D4001B68184A93420ED07B681B68164A9342A2
:1047E40009D07B681B68154A934204D07B681B6818
:1047F400134A93420CD1BB6823F08003BB603B682F
:104804005B68BA681343BB607B681B68BA689A60CC
:104814007B68012283F83D207B68002283F83C20DA
:10482400002318461437BD465DF8047B704700BF6B
:10483400000001400004004000080040000C00405B
:104844000040014080B483B000AF786000BF0C37F3
:10485400BD465DF8047B704780B483B000AF7860D8
:1048640000BF0C37BD465DF8047B704780B582B04D
:1048740000AF78607B68002B01D1012342E07B68A4
:1048840093F84130DBB2002B06D17B68002283F819
:1048940040207868FCF704F87B68242283F84120E0
:1048A4007B681B68DA687B681B6822F40052DA6054
:1048B400786800F0DBFC7B681B681A697B681B68FE
:1048C40022F490421A617B681B685A697B681B68F2
:1048D40022F02A025A617B681B68DA687B681B68CD
:1048E40042F40052DA607B6800225A647B6820221A
:1048F40083F841207B68202283F842207B680022D1
:104904005A63002318460837BD4680BD80B584B07D
:1049140000AFF860B9601346FB80FB6893F842303F
:10492400DBB2202B12D1BB68002B02D0FB88002BFA
:1049340001D101230BE0FB6800221A63FB881A46AD
:10494400B968F86800F0BAFA034600E00223184692
:104954001037BD4680BD000080B5BAB000AF7860A6
:104964007B681B681B68C7F8E4307B681B68DB68DE
:10497400C7F8E0307B681B685B69C7F8DC3000234C
:10498400C7F8D8300023C7F8D430D7F8E43003F0A0
:104994000F03C7F8D830D7F8D830002B0FD1D7F889
:1049A400E43003F02003002B09D0D7F8E03003F003
:1049B4002003002B03D0786800F099FB5BE2D7F862
:1049C400D830002B00F0DE80D7F8DC3003F0010390
:1049D400002B06D1D7F8E03003F49073002B00F0DD
:1049E400D180D7F8E43003F00103002B0BD0D7F8C3
:1049F400E03003F48073002B05D07B685B6C43F0DC
:104A040001027B685A64D7F8E43003F00403002BF6
:104A14000BD0D7F8DC3003F00103002B05D07B6802
:104A24005B6C43F002027B685A64D7F8E43003F00D
:104A34000203002B0BD0D7F8DC3003F00103002B6A
:104A440005D07B685B6C43F004027B685A64D7F83A
:104A5400E43003F00803002B11D0D7F8E03003F062
:104A64002003002B05D1D7F8DC3003F00103002B21
:104A740005D07B685B6C43F008027B685A647B68F2
:104A84005B6C002B00F0F281D7F8E43003F02003D4
:104A9400002B08D0D7F8E03003F02003002B02D01D
:104AA400786800F024FB7B681B685B6903F04003B3
:104AB400402B0CBF01230023DBB2C7F8D4307B6842
:104AC4005B6C03F00803002B03D1D7F8D430002B20
:104AD4004FD0786800F02CFA7B681B685B6903F0A0
:104AE4004003402B41D17B681B681433C7F89C30CA
:104AF400D7F89C3053E8003FC7F89830D7F898307F
:104B040023F04003C7F8D0307B681B681433D7F810
:104B1400D020C7F8A820C7F8A430D7F8A410D7F835
:104B2400A82041E80023C7F8A030D7F8A030002B14
:104B3400D9D17B68DB6B002B13D07B68DB6B7E4A9F
:104B44001A657B68DB6B1846FCF7A6FC0346002B52
:104B540016D07B68DB6B1B6D7A68D26B1046984766
:104B64000EE0786800F094F90AE0786800F090F9B3
:104B740006E0786800F08CF97B6800225A6475E1DD
:104B840000BF73E17B681B6B012B40F04F81D7F8AA
:104B9400E43003F01003002B00F04881D7F8E03034
:104BA40003F01003002B00F041810023BB607B68FD
:104BB4001B681B68BB607B681B685B68BB60BB6869
:104BC4007B681B685B6903F04003402B40F0B680B0
:104BD4007B68DB6B1B685B68A7F8BE30B7F8BE3038
:104BE400002B00F045817B689B8DB7F8BE209A426C
:104BF40080F03E817B68B7F8BE20DA857B68DB6B8A
:104C0400DB69B3F5807F00F088807B681B680C3318
:104C1400C7F88830D7F8883053E8003FC7F88430A5
:104C2400D7F8843023F48073C7F8B8307B681B68E6
:104C34000C33D7F8B820C7F89420C7F89030D7F8C9
:104C44009010D7F8942041E80023C7F88C30D7F8A7
:104C54008C30002BD9D17B681B6814337B677B6F46
:104C640053E8003F3B673B6F23F00103C7F8B430C0
:104C74007B681B681433D7F8B420C7F88020FB671F
:104C8400F96FD7F8802041E80023BB67BB6F002B86
:104C9400E1D17B681B6814333B663B6E53E8003FED
:104CA400FB65FB6D23F04003C7F8B0307B681B68DD
:104CB4001433D7F8B020FA66BB66B96EFA6E41E8D1
:104CC40000237B667B6E002BE3D17B68202283F874
:104CD40042207B6800221A637B681B680C33FB64E8
:104CE400FB6C53E8003FBB64BB6C23F01003C7F8B4
:104CF400AC307B681B680C33D7F8AC20BA657B6595
:104D0400796DBA6D41E800233B653B6D002BE3D11F
:104D14007B68DB6B1846FCF74FFB7B6802225A6307
:104D24007B689A8D7B68DB8D9BB2D31A9BB2194644
:104D3400786800F0B7F89BE0FB4F00087B689A8D19
:104D44007B68DB8D9BB2D31AA7F8CE307B68DB8DF2
:104D54009BB2002B00F08E80B7F8CE30002B00F011
:104D640089807B681B680C33BB63BB6B53E8003FD3
:104D74007B637B6B23F49073C7F8C8307B681B6834
:104D84000C33D7F8C8207A643B64396C7A6C41E8F8
:104D94000023FB63FB6B002BE3D17B681B6814339C
:104DA4007B627B6A53E8003F3B623B6A23F001036A
:104DB400C7F8C4307B681B681433D7F8C4203A633F
:104DC400FB62F96A3A6B41E80023BB62BB6A002BC1
:104DD400E3D17B68202283F842207B6800221A6397
:104DE4007B681B680C333B613B6953E8003FFB6005
:104DF400FB6823F01003C7F8C0307B681B680C33D2
:104E0400D7F8C020FA61BB61B969FA6941E80023A7
:104E14007B617B69002BE3D17B6802225A63B7F87C
:104E2400CE301946786800F03DF823E0D7F8E43036
:104E340003F08003002B09D0D7F8E03003F080039F
:104E4400002B03D0786800F0EAF814E0D7F8E430D7
:104E540003F04003002B0ED0D7F8E03003F04003FA
:104E6400002B08D0786800F02AF904E000BF02E0C3
:104E740000BF00E000BFE837BD4680BD80B483B00A
:104E840000AF786000BF0C37BD465DF8047B704707
:104E940080B483B000AF786000BF0C37BD465DF8C6
:104EA400047B704780B483B000AF78600B467B808E
:104EB40000BF0C37BD465DF8047B704780B485B0F5
:104EC40000AFF860B9601346FB80FB68BA689A6269
:104ED400FB68FA889A85FB68FA88DA85FB68002201
:104EE4005A64FB68222283F84220FB681B69002B6A
:104EF40007D0FB681B68DA68FB681B6842F48072A1
:104F0400DA60FB681B685A69FB681B6842F001029F
:104F14005A61FB681B68DA68FB681B6842F0200270
:104F2400DA60002318461437BD465DF8047B7047E9
:104F340080B495B000AF78607B681B680C337B63EA
:104F44007B6B53E8003F3B633B6B23F49073FB6440
:104F54007B681B680C33FA6C3A64FB63F96B3A6C3C
:104F640041E80023BB63BB6B002BE5D17B681B6866
:104F740014333B623B6A53E8003FFB61FB6923F057
:104F84000103BB647B681B681433BA6CFA62BB62AE
:104F9400B96AFA6A41E800237B627B6A002BE5D197
:104FA4007B681B6B012B19D17B681B680C33FB607E
:104FB400FB6853E8003FBB60BB6823F010037B64CD
:104FC4007B681B680C337A6CBA617B617969BA6956
:104FD40041E800233B613B69002BE5D17B6820223B
:104FE40083F842207B6800221A6300BF5437BD4611
:104FF4005DF8047B704780B584B000AF78607B684F
:105004009B6BFB60FB680022DA85FB680022DA8474
:10501400F868FFF73DFF00BF1037BD4680BD80B480
:1050240085B000AF78607B6893F84130DBB2212B08
:105034003ED17B689B68B3F5805F14D17B681B69A4
:10504400002B10D17B681B6AFB60FB681B881A4627
:105054007B681B68C2F308025A607B681B6A9A1C4F
:105064007B681A6208E07B681B6A591C7A681162C3
:105074001A787B681B685A607B68DB8C9BB2013BA7
:105084009BB27A681946D184002B0FD17B681B68C8
:10509400DA687B681B6822F08002DA607B681B6830
:1050A400DA687B681B6842F04002DA60002300E0A3
:1050B400022318461437BD465DF8047B704780B55B
:1050C40082B000AF78607B681B68DA687B681B6815
:1050D40022F04002DA607B68202283F8412078685D
:1050E400FFF7CCFE002318460837BD4680BD80B5C7
:1050F4008CB000AF78607B6893F84230DBB2222B2F
:1051040040F0AE807B689B68B3F5805F17D17B6805
:105114001B69002B13D10023FB627B689B6ABB6273
:105124007B681B685B689BB2C3F308039AB2BB6AD3
:105134001A807B689B6A9A1C7B689A6226E07B686B
:105144009B6AFB620023BB627B689B68B3F5805F4C
:1051540007D07B689B68002B0AD17B681B69002BF6
:1051640006D17B681B685B68DAB2FB6A1A7008E0D8
:105174007B681B685B68DBB203F07F03DAB2FB6A0F
:105184001A707B689B6A5A1C7B689A627B68DB8D09
:105194009BB2013B9BB27A681946D185002B5DD145
:1051A4007B681B68DA687B681B6822F02002DA607F
:1051B4007B681B68DA687B681B6822F48072DA609B
:1051C4007B681B685A697B681B6822F001025A617C
:1051D4007B68202283F842207B6800225A637B6824
:1051E4001B6B012B35D17B6800221A637B681B681B
:1051F4000C337B617B6953E8003F3B613B6923F0DF
:1052040010037B627B681B680C337A6A3A62FB6129
:10521400F9693A6A41E80023BB61BB69002BE5D117
:105224007B681B681B6803F01003102B0AD1002352
:10523400FB607B681B681B68FB607B681B685B68A2
:10524400FB60FB687B689B8D19467868FFF72AFE34
:1052540002E07868FBF7A8F9002302E0002300E0ED
:10526400022318463037BD4680BD00002DE9B04FFB
:10527400C0B000AFC7F8F400D7F8F4301B681B695E
:1052840023F44050D7F8F430D968D7F8F4301A68CA
:1052940040EA01031361D7F8F4309A68D7F8F43080
:1052A4001B691A43D7F8F4305B691A43D7F8F43012
:1052B400DB691343C7F8F830D7F8F4301B68DB68B0
:1052C40023F4164121F00C01D7F8F4301A68D7F80A
:1052D400F8300B43D360D7F8F4301B685B6923F4D0
:1052E4004070D7F8F4309969D7F8F4301A6840EA76
:1052F40001035361D7F8F4301A688F4B9A4205D0F2
:10530400D7F8F4301A688D4B9A4204D1FEF71CFC8E
:10531400C7F8FC0003E0FEF703FCC7F8FC00D7F86D
:10532400F430DB69B3F5004F40F00C81D7F8FC3062
:105334000022C7F8E830C7F8EC20D7E93A452246FE
:105344002B469118B9655B41FB65D7E916232146C5
:1053540012EB0108294643EB01094FF000024FF01C
:1053640000034FEAC90343EA58734FEAC802904660
:105374009946234618EB0303C7F8E0302B4649EB64
:105384000303C7F8E430D7F8F4305B680022C7F8A9
:10539400D830C7F8DC20D7E936120B46DB183B655A
:1053A400134642EB03037B65D7E91423D7E938019D
:1053B400FAF70EFF02460B46614BA3FB02235B097F
:1053C4001C01D7F8FC300022C7F8D030C7F8D4202D
:1053D400D7E9348942464B469118B9645B41FB6472
:1053E400D7E91223414612EB010A494643EB010B6C
:1053F4004FF000024FF000034FEACB0343EA5A7325
:105404004FEACA0292469B4643461AEB0303C7F887
:10541400C8304B464BEB0303C7F8CC30D7F8F43015
:105424005B680022C7F8C030C7F8C420D7E930123F
:105434000B46DB183B64134642EB03037B64D7E95A
:105444001023D7E93201FAF7C3FE02460B46114690
:105454003B4BA3FB01235B09642202FB03F3CB1A3E
:10546400DB0003F13202364BA3FB02235B095B0032
:1054740003F4F8731C44D7F8FC300022C7F8B830A2
:10548400C7F8BC20D7E92E8942464B469118B96328
:105494005B41FB63D7E90E23414651183963494602
:1054A4004B417B634FF000024FF00003D7E90CAB94
:1054B4005946CB00514643EA51735146CA0010463F
:1054C4001946034642469B18C7F8B0304B460A4675
:1054D40042EB0303C7F8B430D7F8F4305B6800221A
:1054E400C7F8A830C7F8AC20D7E92A120B46DB1856
:1054F400BB62134642EB0303FB62D7E90A23D7E9F5
:105504002C01FAF765FE02460B460D4BA3FB021372
:105514005B09642101FB03F3D31ADB003233084A2D
:10552400A2FB03235B0903F00702D7F8F4301B68DE
:1055340022449A6006E100BF0010014000140140BB
:105544001F85EB51D7F8FC300022C7F8A030C7F80C
:10555400A420D7E9288942464B46911839625B4119
:105564007B62D7E9082341465418494643EB0105B9
:105574004FF000024FF00003EB0043EA5473E200E3
:1055840014461D464346E318C7F898304B4645EB8E
:105594000303C7F89C30D7F8F4305B680022C7F8DF
:1055A4009030C7F894204FF000024FF00003D7E981
:1055B400244529468B00214643EA917321468A00FB
:1055C400D7E92601FAF704FE02460B46604BA3FB1B
:1055D40002235B091C01D7F8FC300022C7F888308D
:1055E400C7F88C20D7E9228942464B469118B96105
:1055F4005B41FB61D7E906234146511839614946AD
:105604004B417B614FF000024FF00003D7E904AB3C
:105614005946CB00514643EA51735146CA001046DD
:105624001946034642469B18C7F880304B460A4643
:1056340042EB0303C7F88430D7F8F4305B680022E8
:10564400BB67FA674FF000024FF00003D7E91E89E9
:1056540049468B00414643EA917341468A00D7E9A3
:105664002001FAF7B5FD02460B461146384BA3FB61
:1056740001235B09642202FB03F3CB1A1B013233BF
:10568400334AA2FB03235B0903F0F0031C44D7F85D
:10569400FC3000223B677A67D7E91C8942464B46B7
:1056A4009118B9605B41FB60D7E902234146511868
:1056B400396049464B417B604FF000024FF00003D4
:1056C400D7E900AB5946CB00514643EA51735146E2
:1056D400CA0010461946034642469B18BB664B4611
:1056E4000A4642EB0303FB66D7F8F4305B680022FA
:1056F4003B667A664FF000024FF00003D7E9188941
:1057040049468B00414643EA917341468A00D7E9F2
:105714001A01FAF75DFD02460B460D4BA3FB02137B
:105724005B09642101FB03F3D31A1B013233084ADA
:10573400A2FB03235B0903F00F02D7F8F4301B68C4
:1057440022449A6000BF07F58077BD46BDE8B08F5C
:105754001F85EB5180B582B000AF7860154B1B7884
:105764000133DAB2134B1A70124B1B78013B7A687F
:1057740013441B7A452B0DD17B6803F112027B681D
:1057840008331946104600F0DFFE0A4B00221A7057
:1057940000F012F87B681868064B1B7808337A68A7
:1057A400134401221946FFF7B1F800BF0837BD467C
:1057B40080BD00BFC400002080B400AF00BFBD4660
:1057C4005DF8047B704780B588B004AF78607B686F
:1057D40000225A727B6800229A720E2000F0BCFDEF
:1057E40003461A467B681A6100F0DAFA7B681B7973
:1057F4003B7200237B727B685B79BB727B689B790D
:10580400FB727B681B68002B50D07B6818687B6830
:10581400DB799BB25B0099B2642302930123019369
:1058240007F10F03009301237522FCF78FFC034655
:10583400002B01D002233AE0FB7B682B01D001232B
:1058440035E07B6818687B68DB799BB25B0099B2B2
:10585400642302930423019307F1080300930123B3
:105864001922FCF779FB0346002B01D002231EE02A
:1058740008233B727B6818687B68DB799BB25B000A
:1058840099B2642302930123019307F1080300935F
:1058940001236B22FCF760FB0346002B01D002239B
:1058A40005E07B680A225A72002300E004231846AC
:1058B4001037BD4680BD000080B582B000AF78606F
:1058C40039607B683A68DA607B680122DA720E4BD1
:1058D4001B687A68928AD24311460B4A0B401360C4
:1058E4007B681B68002B07D0786800F00FF803462C
:1058F400002B03D0012302E0042300E00023184618
:105904000837BD4680BD00BF003C014080B584B06F
:1059140002AF78607B681B68002B20D07B68DB6853
:10592400002B1CD07B685B7A0A2B1AD17B68186821
:105934007B68DB799BB25B0099B27B681B690E22A2
:105944000192009301233B22FCF732FE0346002B15
:1059540001D0022306E07B6801229A7201E004234D
:1059640000E0002318460837BD4680BD80B582B0EC
:1059740000AF7860786800F00FF9786800F008F8F4
:105984007B6800229A7200BF0837BD4680BD0000C4
:1059940080B485B000AF78600023FB817B681B690D
:1059A40008331B781B021AB27B681B6909331B7806
:1059B4001BB21343FB817B685B79002B0AD1B7F9D7
:1059C4000E3007EE903AB8EEE77ADFED6F6AC7EE75
:1059D400267A2EE07B685B79082B0AD1B7F90E3062
:1059E40007EE903AB8EEE77ADFED686AC7EE267AFA
:1059F4001FE07B685B79102B0AD1B7F90E3007EEF4
:105A0400903AB8EEE77ADFED626AC7EE267A10E0E4
:105A14007B685B79182B0AD1B7F90E3007EE903A00
:105A2400B8EEE77ADFED5B6AC7EE267A01E0F7EEBF
:105A3400007A7B68DB68C3ED007A7B681B690A33F4
:105A44001B781B021AB27B681B690B331B781BB2D1
:105A54001343FB817B685B79002B0AD1B7F90E30C5
:105A640007EE903AB8EEE77ADFED476AC7EE267A9A
:105A74002EE07B685B79082B0AD1B7F90E3007EE6C
:105A8400903AB8EEE77ADFED416AC7EE267A1FE076
:105A94007B685B79102B0AD1B7F90E3007EE903A88
:105AA400B8EEE77ADFED3A6AC7EE267A10E07B6853
:105AB4005B79182B0AD1B7F90E3007EE903AB8EE9D
:105AC400E77ADFED346AC7EE267A01E0F7EE007A72
