:020000040800F2
:1000000000000120C526000821240008272400083C
:100010002D240008332400083924000800000000C3
:1000200000000000000000000000000031B00008E7
:100030003F2400080000000081B20008D57D0008C0
:1000400015270008152700081527000815270008A0
:100050001527000815270008152700081527000890
:100060001527000815270008152700081527000880
:100070001527000815270008152700081527000870
:100080004D24000861240008152700080000000026
:10009000000000000000000000000000152700081C
:1000A0001527000815270008152700081527000840
:1000B0007524000889240008152700081527000862
:1000C0001527000815270008152700081527000820
:1000D000152700089D240008B12400080000000036
:1000E0001527000815270008152700080000000044
:1000F00000000000000000000000000015270008BC
:100100000000000015270008152700081527000823
:1001100000000000000000000000000000000000DF
:1001200015270008C5240008152700081527000812
:10013000152700080000000000000000000000007B
:10014000000000000000000000000000152700086B
:10015000D9240008ED24000815270008012500080F
:100160001527000815270008000000000000000007
:10017000000000000000000000000000000000007F
:10018000000000001527000800000000000000002B
:040190001527000827
:1001A00010B5054C237833B9044B13B10448AFF3B1
:1001B00000800123237010BDE80100200000000032
:1001C0002404010808B5034B1BB103490348AFF3EE
:1001D000008008BD00000000EC010020240401089C
:1001E00001F0FF01102A2BDB10F0070F08D010F8E8
:1001F000013B013A8B422DD010F0070F42B3F6D1EC
:10020000F0B441EA012141EA014122F007047FF004
:1002100000070023F0E80256083C85EA010586EA5B
:10022000010685FA47F5A3FA87F586FA47F6A5FA97
:1002300087F68EB9EED1F0BC01F0FF0102F00702A3
:1002400032B110F8013B013A83EA010313B1F8D14E
:100250000020704701387047002D06BF354603382F
:10026000073815F0010F07D1013015F4807F02BF68
:10027000013015F4C03F0130F0BC0138704700BFB9
:10028000034613F8012B002AFBD1181A01387047D6
:1002900081F0004102E000BF83F0004330B54FEA37
:1002A00041044FEA430594EA050F08BF90EA020FA4
:1002B0001FBF54EA000C55EA020C7FEA645C7FEA37
:1002C000655C00F0E2804FEA5454D4EB5555B8BF5A
:1002D0006D420CDD2C4480EA020281EA030382EACB
:1002E000000083EA010180EA020281EA0303362D5D
:1002F00088BF30BD11F0004F4FEA01314FF4801C30
:100300004CEA113102D0404261EB410113F0004F41
:100310004FEA03334CEA133302D0524263EB4303F8
:1003200094EA050F00F0A780A4F10104D5F1200E96
:100330000DDB02FA0EFC22FA05F2801841F10001F1
:1003400003FA0EF2801843FA05F359410EE0A5F1C5
:1003500020050EF1200E012A03FA0EFC28BF4CF0F6
:10036000020C43FA05F3C01851EBE37101F00045AC
:1003700007D54FF0000EDCF1000C7EEB00006EEBB9
:100380000101B1F5801F1BD3B1F5001F0CD3490843
:100390005FEA30004FEA3C0C04F101044FEA44529A
:1003A00012F5800F80F09A80BCF1004F08BF5FEA21
:1003B000500C50F1000041EB045141EA050130BD01
:1003C0005FEA4C0C404141EB0101013C28BFB1F513
:1003D000801FE9D291F0000F04BF01460020B1FA5E
:1003E00081F308BF2033A3F10B03B3F120020CDA31
:1003F0000C3208DD02F1140CC2F10C0201FA0CF00F
:1004000021FA02F10CE002F11402D8BFC2F1200C73
:1004100001FA02F120FA0CFCDCBF41EA0C01904029
:10042000E41AA2BF01EB0451294330BD6FEA040472
:100430001F3C1CDA0C340EDC04F11404C4F120025D
:1004400020FA04F001FA02F340EA030021FA04F36F
:1004500045EA030130BDC4F10C04C4F1200220FAC6
:1004600002F001FA04F340EA0300294630BD21FA04
:1004700004F0294630BD94F0000F83F4801306BFCA
:1004800081F480110134013D4EE77FEA645C18BFBE
:100490007FEA655C29D094EA050F08BF90EA020F55
:1004A00005D054EA000C04BF1946104630BD91EA4D
:1004B000030F1EBF0021002030BD5FEA545C05D150
:1004C0004000494128BF41F0004130BD14F580048F
:1004D0003CBF01F5801130BD01F0004545F0FE4103
:1004E00041F470014FF0000030BD7FEA645C1ABF38
:1004F000194610467FEA655C1CBF0B46024650EA6F
:10050000013406BF52EA033591EA030F41F400219A
:1005100030BD00BF90F0000F04BF0021704730B520
:100520004FF4806404F132044FF000054FF00001F5
:1005300050E700BF90F0000F04BF0021704730B5B6
:100540004FF4806404F1320410F0004548BF40428B
:100550004FF000013EE700BF42004FEAE2014FEAE0
:1005600031014FEA02701FBF12F07F4393F07F4FBB
:1005700081F06051704732F07F4208BF704793F0BE
:100580007F4F04BF41F40021704730B54FF46074D1
:1005900001F0004521F000411CE700BF50EA0102D4
:1005A00008BF704730B54FF000050AE050EA01027D
:1005B00008BF704730B511F0004502D5404261EBED
:1005C00041014FF4806404F132045FEA915C3FF42E
:1005D000D8AE4FF003025FEADC0C18BF03325FEACB
:1005E000DC0C18BF033202EBDC02C2F1200300FA7C
:1005F00003FC20FA02F001FA03FE40EA0E0021FAA1
:1006000002F11444BDE600BF70B54FF0FF0C4CF48E
:10061000E06C1CEA11541DBF1CEA135594EA0C0F40
:1006200095EA0C0F00F0DEF82C4481EA030621EA7B
:100630004C5123EA4C5350EA013518BF52EA0335B6
:1006400041F4801143F4801338D0A0FB02CE4FF068
:100650000005E1FB02E506F00042E0FB03E54FF098
:100660000006E1FB03569CF0000F18BF4EF0010E90
:10067000A4F1FF04B6F5007F64F5407404D25FEA8C
:100680004E0E6D4146EB060642EAC62141EA55513F
:100690004FEAC52040EA5E504FEACE2EB4F1FD0C81
:1006A00088BFBCF5E06F1ED8BEF1004F08BF5FEAFF
:1006B000500E50F1000041EB045170BD06F00046B1
:1006C00046EA010140EA020081EA0301B4EB5C045E
:1006D000C2BFD4EB0C0541EA045170BD41F4801156
:1006E0004FF0000E013C00F3AB8014F1360FDEBF7B
:1006F000002001F0004170BDC4F10004203C35DA57
:100700000C341BDC04F11404C4F1200500FA05F3D9
:1007100020FA04F001FA05F240EA020001F000427A
:1007200021F0004110EBD37021FA04F642EB0601F0
:100730005EEA430E08BF20EAD37070BDC4F10C041A
:10074000C4F1200500FA04F320FA05F001FA04F2DE
:1007500040EA020001F0004110EBD37041F10001CA
:100760005EEA430E08BF20EAD37070BDC4F12005D5
:1007700000FA05F24EEA020E20FA04F301FA05F23D
:1007800043EA020321FA04F001F0004121FA04F2E5
:1007900020EA020000EBD3705EEA430E08BF20EAB5
:1007A000D37070BD94F0000F0FD101F000464000EF
:1007B00041EB010111F4801F08BF013CF7D041EA71
:1007C000060195F0000F18BF704703F00046520075
:1007D00043EB030313F4801F08BF013DF7D043EA46
:1007E0000603704794EA0C0F0CEA135518BF95EAFC
:1007F0000C0F0CD050EA410618BF52EA4306D1D183
:1008000081EA030101F000414FF0000070BD50EAA1
:10081000410606BF1046194652EA430619D094EA2B
:100820000C0F02D150EA013613D195EA0C0F05D115
:1008300052EA03361CBF104619460AD181EA030169
:1008400001F0004141F0FE4141F470014FF0000021
:1008500070BD41F0FE4141F4780170BD70B54FF0BC
:10086000FF0C4CF4E06C1CEA11541DBF1CEA13553C
:1008700094EA0C0F95EA0C0F00F0A7F8A4EB05041E
:1008800081EA030E52EA03354FEA013100F0888015
:100890004FEA03334FF0805545EA131343EA1263DE
:1008A0004FEA022245EA111545EA10654FEA002693
:1008B0000EF000419D4208BF964244F1FD0404F54C
:1008C000407402D25B084FEA3202B61A65EB0305A8
:1008D0005B084FEA32024FF480104FF4002CB6EB65
:1008E000020E75EB030E22BFB61A754640EA0C00E5
:1008F0005B084FEA3202B6EB020E75EB030E22BF25
:10090000B61A754640EA5C005B084FEA3202B6EB65
:10091000020E75EB030E22BFB61A754640EA9C0024
:100920005B084FEA3202B6EB020E75EB030E22BFF4
:10093000B61A754640EADC0055EA060E18D04FEAB2
:10094000051545EA16754FEA06164FEAC30343EA52
:1009500052734FEAC2025FEA1C1CC0D111F4801F1F
:100960000BD141EA00014FF000004FF0004CB6E718
:1009700011F4801F04BF01430020B4F1FD0C88BFB7
:10098000BCF5E06F3FF6AFAEB5EB030C04BFB6EBC2
:10099000020C5FEA500C50F1000041EB045170BDB5
:1009A0000EF0004E4EEA113114EB5C04C2BFD4EBE2
:1009B0000C0541EA045170BD41F480114FF0000E66
:1009C000013C90E645EA060E8DE60CEA135594EAE2
:1009D0000C0F08BF95EA0C0F3FF43BAF94EA0C0FE5
:1009E0000AD150EA01347FF434AF95EA0C0F7FF45A
:1009F00025AF104619462CE795EA0C0F06D152EAAE
:100A000003353FF4FDAE1046194622E750EA410691
:100A100018BF52EA43067FF4C5AE50EA41047FF4A2
:100A20000DAF52EA43057FF4EBAE12E74FF0FF3C07
:100A300006E000BF4FF0010C02E000BF4FF0010CD8
:100A40004DF804CD4FEA410C7FEA6C5C4FEA430C51
:100A500018BF7FEA6C5C1BD001B050EA410C0CBFA0
:100A600052EA430C91EA030F02BF90EA020F002002
:100A7000704710F1000F91EA030F58BF994208BF69
:100A800090422CBFD8176FEAE37040F00100704726
:100A90004FEA410C7FEA6C5C02D150EA013C07D17D
:100AA0004FEA430C7FEA6C5CD6D152EA033CD3D0C8
:100AB0005DF8040B704700BF8446104662468C46C2
:100AC0001946634600E000BF01B5FFF7B7FF0028F5
:100AD00048BF10F1000F01BD4DF808EDFFF7F4FF1E
:100AE0000CBF012000205DF808FB00BF4DF808EDA9
:100AF000FFF7EAFF34BF012000205DF808FB00BFCC
:100B00004DF808EDFFF7E0FF94BF012000205DF8ED
:100B100008FB00BF4DF808EDFFF7CEFF94BF0120A2
:100B200000205DF808FB00BF4DF808EDFFF7C4FF9B
:100B300034BF012000205DF808FB00BF4FEA410CE4
:100B40007FEA6C5C02D150EA013C0AD14FEA430CC7
:100B50007FEA6C5C02D152EA033C02D14FF0000004
:100B600070474FF0010070474FEA410212F5001242
:100B700015D211D56FF47873B3EB625212D94FEAE4
:100B8000C12343F0004343EA505311F0004F23FACE
:100B900002F018BF404270474FF00000704750EA23
:100BA000013005D111F0004008BF6FF000407047E0
:100BB0004FF00000704700BF4A0011D212F500123A
:100BC00011D20DD56FF47873B3EB62520ED44FEAA5
:100BD000C12343F0004343EA505323FA02F0704725
:100BE0004FF00000704750EA013002D14FF0FF3063
:100BF00070474FF0000070474FEA4102B2F1E04306
:100C000024BFB3F5001CDCF1FE5C0DD901F0004CF3
:100C10004FEAC0024CEA5070B2F1004F40EB830043
:100C200008BF20F00100704711F0804F21D113F16F
:100C30003872BCBF01F00040704741F480114FEAA8
:100C40005252C2F11802C2F1200C10FA0CF320FA31
:100C500002F018BF40F001004FEAC1234FEAD3234E
:100C600003FA0CFC40EA0C0023FA02F34FEA4303B8
:100C7000CCE77FEA625307D150EA01331EBF4FF041
:100C8000FE4040F44000704701F0004040F0FE405C
:100C900040F40000704700BF53B94AB9002908BFAB
:100CA00000281CBF4FF0FF314FF0FF3000F0A6B915
:100CB000ADF1080C6DE904CE00F03CF8DDF804E07D
:100CC000DDE9022304B0704738B500220023044652
:100CD0000D46FFF70BFF28B920462946BDE83840EE
:100CE00000F00AB8204605F1004100F005F8404246
:100CF00061EB410138BD00BFD0B50C4B0022064668
:100D00000F46FFF781FCFFF757FF0446FFF702FC91
:100D1000074B0022FFF778FC02460B463046394667
:100D2000FFF7BAFAFFF748FF2146D0BD0000F03DBB
:100D30000000F0412DE9F047089E0D4604460F469D
:100D4000002B4AD18A42944665D9B2FA82F343B164
:100D500002FA03FCC3F120029F4020FA02F217437B
:100D60009C404FEA1C4E1FFA8CF5B7FBFEF1220C9B
:100D70000EFB117742EA074201FB05F090420AD9C7
:100D80001CEB020201F1FF3780F01C81904240F21F
:100D9000198102396244121AA4B2B2FBFEF00EFBB2
:100DA000102244EA024400FB05F5A5420AD91CEBD7
:100DB000040400F1FF3280F00781A54240F2048173
:100DC0006444023840EA0140641B00211EB1DC404B
:100DD0000023C6E90043BDE8F0878B4208D9002E06
:100DE00000F0ED800021C6E900050846BDE8F08767
:100DF000B3FA83F1002949D1AB4202D3824200F217
:100E0000F880841A65EB030201201746002EE2D019
:100E1000C6E90047DFE702B9FFDEB2FA82F3002B32
:100E200040F090808A1A4FEA1C471FFA8CFE01217D
:100E3000B2FBF7F507FB1520220C42EA00420EFB3D
:100E400005F0904208D91CEB020205F1FF3802D2EE
:100E5000904200F2CB804546121AA4B2B2FBF7F0E2
:100E600007FB102244EA02440EFB00FEA64508D907
:100E70001CEB040400F1FF3202D2A64500F2BB8055
:100E80001046A4EB0E0440EA05409FE7C1F120079D
:100E90008B4022FA07FC4CEA030C05FA01F420FA15
:100EA00007F3FD404FEA1C492343B5FBF9F81FFA4D
:100EB0008CFE09FB18551C0C44EA054408FB0EF592
:100EC000A54202FA01F200FA01F00BD91CEB04046E
:100ED00008F1FF3A80F08880A54240F28580A8F1B1
:100EE00002086444641B9DB2B4FBF9F309FB13448C
:100EF00045EA044403FB0EFEA64508D91CEB040496
:100F000003F1FF356CD2A6456AD9023B644443EA3B
:100F10000843A3FB0295A4EB0E04AC42C846AE46C0
:100F200056D353D056B1B0EB080264EB0E0404FA6A
:100F300007F7CA40CC401743C6E9007418460021A1
:100F4000BDE8F087C3F1200102FA03FC20FA01F2A8
:100F500025FA01F19D402A434FEA1C471FFA8CFEF7
:100F6000B1FBF7F007FB1015110C41EA054100FB3E
:100F70000EF58D4204FA03F408D91CEB010100F1CF
:100F8000FF382FD28D422DD902386144491B92B2CD
:100F9000B1FBF7F507FB151142EA014205FB0EF123
:100FA000914208D91CEB020205F1FF3816D291429A
:100FB00014D9023D6244521A45EA004138E73146ED
:100FC000304608E73946E6E61046FBE64845A9D232
:100FD000B9EB020865EB0C0E013BA3E74546EAE7D7
:100FE0002B4694E74046D1E7D0467BE7023D62447A
:100FF00032E708460AE76444023842E7704700BF18
:1010000080B485B000AFF860B9607A60074ABB6809
:101010001360074AFB681360064A7B68136000BFD1
:101020001437BD465DF8047B704700BF0402002002
:10103000080200200C02002080B584B000AF786068
:10104000184B1B6807F10C010222184605F072F9D3
:10105000154B1B681B684FF0FF31184607F0A0F8CE
:101060003B7B302B0AD17B7B1A46104910480AF093
:10107000C5FB104B1B687A7B1A70E1E73B7B312B79
:10108000DED17B7B732B04D10B490C480AF0B6FBF5
:10109000D6E77B7B652BD3D1094908480AF0AEFB24
:1010A000CEE700BF0402002008020020400401082F
:1010B000440401080C0200204C04010854040108F7
:1010C0005C04010880B500AF034B1B681B68184621
:1010D00007F0B8F800BF80BD0802002080B584B0DA
:1010E00000AFF860B9607A603B60084AFB68136043
:1010F000074ABB681360074A3B6813607968B868A1
:1011000006F00AFE00BF1037BD4680BD1002002069
:10111000140200201802002080B586B000AF78606D
:101120007B683B6106F0CFFEF860FB68672202FB3C
:1011300003F3244AA2FB03239B09BB6006F0AEFE27
:101140000246BB6813447B611F4B1B681B684FF052
:10115000FF31184607F024F81C4B1B68184606F0B0
:10116000E9FD194B1B681B684FF0FF31184607F06B
:1011700017F8164B1B68184606F0ECFD4FF40051AB
:10118000134802F098F9114B1B681B8A07EE903A3E
:10119000B8EEE77A0F4B1B68DFED0F6AC7EE267AD1
:1011A000C3ED027A00F01AF8074B1B681B6818465B
:1011B00007F048F8786906F03CFF7A69BB68134489
:1011C0007B61C1E7D34D62101002002014020020A1
:1011D00000080240180200200000C8422DE9F0413A
:1011E00086B004AF1C4B1B68D3ED027AF0EE080A00
:1011F000B0EE670A322006F0ADF987ED010A97EDEF
:10120000010A06F027FA0346FB70FB78002B1ED07C
:10121000FE78114B1B681B7898460F4B1B689B6828
:101220001846FFF799F904460D460B4B1B685B689F
:101230001846FFF791F902460B46CDE90223CDE9A6
:10124000004543463246054905480AF011FB00BFF8
:101250000837BD46BDE8F08118020020600401088F
:101260009C04010880B500AF034B1B681B6818463F
:1012700006F0E8FF00BF80BD1002002080B485B0FA
:1012800000AFF860B9607A60BB68002B09D0084AEB
:10129000FB681360074ABB681360074A7B681360EA
:1012A00000E000BF1437BD465DF8047B704700BF07
:1012B0001C020020200200202402002080B586B0FD
:1012C00000AF78607B683B6106F0FDFDF860FB686D
:1012D000642202FB03F31F4AA2FB03239B09BB60AA
:1012E00006F0DCFD0246BB6813447B611A4B1B68A9
:1012F0001B684FF0FF31184606F052FF386906F0C0
:1013000067FA154B1B681B684FF0FF31184606F053
:1013100047FF386906F0DAFA104B1B683A699269A0
:101320005A603B690C33184600F028F84FF400511E
:101330000B4802F0C0F8084B1B681B68184606F003
:1013400081FF786906F075FE7A69BB6813447B619A
:10135000CCE700BFD34D6210200200202402002001
:101360000008024080B500AF034B1B681B6818469D
:1013700006F068FF00BF80BD200200202DE9B04FBD
:1013800090B00AAF78617B690C331B681846FFF791
:10139000E3F8C7E902017B6910331B681846FFF7C1
:1013A000DBF804460D467B6914331B681846FFF7CB
:1013B000D3F8804689467B691B681846FFF7CCF84E
:1013C00082468B467B6904331B681846FFF7C4F8D6
:1013D000C7E900017B6908331B681846FFF7BCF8B2
:1013E00002460B46CDE9082397ED007B8DED067B89
:1013F000CDE904ABCDE90289CDE90045D7E9022367
:10140000044905480AF0FAF900BF1837BD46BDE89F
:10141000B08F00BFA0040108E004010880B584B0CB
:1014200000AFF860B9607A60074AFB681360074A4A
:101430007B681360064ABB68136006480AF0CEF961
:1014400000BF1037BD4680BD280200202C020020BE
:10145000300200200D15000880B5C2B000AF07F5BE
:101460008473A3F5827318600F4B1B681B684FF0E1
:10147000FF31184606F094FE0C4B1B68186807F104
:101480000C014FF0FF33002206F0F4FF0346002B5F
:10149000EAD1074B1B6897F8062192B207F10C01BD
:1014A000184604F0D7FEDFE73002002028020020B3
:1014B0002C02002080B500AF034B1B681B68184648
:1014C00006F0C0FE00BF80BD3002002080B485B0B1
:1014D00000AF78600B46FB700023FB730023BB73E7
:1014E00009E0BB7B7A6813441A78FB7B1344FB73D7
:1014F000BB7B0133BB73BA7BFB789A42F1D3FB7B96
:1015000018461437BD465DF8047B704790B5C3B0EC
:1015100000AF07F58473A3F58273186007F5847331
:10152000A3F582731868FEF7ABFE034687F8073110
:1015300097F80731043387F8063107F58473A3F56C
:10154000807397F8062183F8FA2007F58473A3F5D2
:101550008073AA221A7007F58473A3F5807355224D
:101560005A7007F58473A3F5807397F807219A7072
:1015700097F8071107F58473A3F5827307F1080242
:10158000D01C0A4619680CF028FA97F806315C1E40
:1015900097F8072107F58473A3F58273114618683D
:1015A000FFF794FF03461A4607F58473A3F580738B
:1015B0001A55074B1B68186807F108010023002221
:1015C00006F0F8FE00BF07F58677BD4690BD00BF68
:1015D0002802002080B400AF00BFBD465DF8047B48
:1015E000704780B400AF00231846BD465DF8047B09
:1015F0007047000080B500AF01F08EF800F0CCF825
:1016000000F0B2FA00F062FA00F05EF900F034FA8D
:1016100000F02CF900F0DCF900F004FA3F4806F085
:1016200066F800F059FB06F0EFFB3D4A002101206F
:1016300006F02CFD03463B4A13603B4A0021012083
:1016400006F024FD0346394A1360394A002101207F
:1016500006F01CFD0346374A1360374A002101207B
:1016600006F014FD0346354A13602E4B1B681846DE
:1016700006F0E8FD2D4B1B68184606F0E3FD2F4BE6
:101680001B68184606F0DEFD2D4A4FF487710F20C7
:1016900006F01CFE03462B4A13602B4A23492948B7
:1016A000FFF7BCFE294A1F492648FFF7E7FD274BF5
:1016B000274A28492148FFF711FD244A26491D4899
:1016C000FFF79EFC254A0021254806F005FC03464D
:1016D000244A1360244A1149244806F0FDFB0346BE
:1016E000234A1360234A0021234806F0F5FB0346F2
:1016F000224A1360224A0021224806F0EDFB0346ED
:10170000214A1360214A0021214806F0E5FB0346E7
:10171000204A136006F09CFBFEE700BF6016002025
:10172000B0060108C4150020C0060108C815002035
:10173000D0060108CC150020E0060108D0150020D5
:10174000980601089C050020780300200016002060
:10175000C0030020EC15002030030020E405010840
:10176000F51C00088805002008060108BD120008C5
:101770008C0500202C060108591400089005002053
:10178000500601083910000894050020740601086D
:10179000191100089805002080B594B000AF07F13A
:1017A00020033022002118460CF020F807F10C032A
:1017B00000221A605A609A60DA601A610023BB60E6
:1017C000284B1B6C274A43F080531364254B1B6C3A
:1017D00003F08053BB60BB6800237B60224B1B6817
:1017E00023F44043204A43F4004313601E4B1B681C
:1017F00003F440437B607B6802233B620123FB626E
:1018000010233B630223BB630023FB6308233B6479
:1018100054237B640223BB640423FB6407F120038D
:10182000184603F05BF90346002B01D000F079FA6B
:101830000F23FB6002233B6100237B614FF4805345
:10184000BB610023FB6107F10C030221184603F082
:10185000BDFB0346002B01D000F063FA00BF5037F8
:10186000BD4680BD003802400070004080B500AF2A
:10187000124B134A1A60114B124A5A600F4B002246
:101880009A600E4B0022DA600C4B4FF480421A61D2
:101890000A4B00225A61094B00229A61074B002231
:1018A000DA61064B00221A62044801F01FFE03466B
:1018B000002B01D000F035FA00BF80BD34020020BB
:1018C00000540040A086010080B58EB000AF07F143
:1018D000280300221A605A609A60DA6007F1200338
:1018E00000221A605A603B1D00221A605A609A60FA
:1018F000DA601A615A619A61334B344A1A60324B8A
:101900000F225A60304B00229A602F4B4FF6FF7225
:10191000DA602D4B00221A612B4B80229A612A48F3
:1019200003F066FD0346002B01D000F0FAF94FF4F6
:101930008053BB6207F128031946234804F016F8C8
:101940000346002B01D000F0ECF91F4803F002FE23
:101950000346002B01D000F0E4F900233B62002392
:101960007B6207F120031946174804F0A1FB0346E8
:10197000002B01D000F0D5F960237B600023BB6011
:101980000023FB6000237B613B1D002219460E48AB
:1019900003F02AFF0346002B01D000F0C2F9182300
:1019A000BB603B1D04221946074803F01DFF034698
:1019B000002B01D000F0B5F9034800F0A1FA00BFF8
:1019C0003837BD4680BD00BFE8020020000400405B
:1019D00080B500AF114B124A1A60104B44F690428A
:1019E0005A600E4B00229A600C4B0022DA600B4BBF
:1019F00000221A61094B0C225A61084B00229A619D
:101A0000064B0022DA61054804F0D4FB0346002BA4
:101A100001D000F086F900BF80BD00BF3003002078
:101A20000010014080B500AF114B124A1A60104BF4
:101A30004FF461425A600E4B00229A600C4B002218
:101A4000DA600B4B00221A61094B0C225A61084BD9
:101A500000229A61064B0022DA61054804F0AAFBD5
:101A60000346002B01D000F05CF900BF80BD00BF31
:101A7000780300200044004080B500AF114B124AAB
:101A80001A60104B4FF4E1325A600E4B00229A60FC
:101A90000C4B0022DA600B4B00221A61094B0C221E
:101AA0005A61084B00229A61064B0022DA61054810
:101AB00004F080FB0346002B01D000F032F900BF98
:101AC00080BD00BFC00300200014014080B582B07B
:101AD00000AF00237B60234B1B6B224A43F480033F
:101AE0001363204B1B6B03F480037B607B68002334
:101AF0003B601C4B1B6B1B4A43F400131363194BD5
:101B00001B6B03F400133B603B680022052110208F
:101B100000F0FCFE102000F015FF0022052111202E
:101B200000F0F4FE112000F00DFF00220521392005
:101B300000F0ECFE392000F005FF002205214420D2
:101B400000F0E4FE442000F0FDFE002205214520C7
:101B500000F0DCFE452000F0F5FE00BF0837BD4672
:101B600080BD00BF0038024080B588B000AF07F1EB
:101B70000C0300221A605A609A60DA601A6100232E
:101B8000BB602A4B1B6B294A43F004031363274BAA
:101B90001B6B03F00403BB60BB6800237B60234B1B
:101BA0001B6B224A43F001031363204B1B6B03F0B2
:101BB00001037B607B6800233B601C4B1B6B1B4A53
:101BC00043F002031363194B1B6B03F002033B60EA
:101BD0003B6800224FF40051154801F053FC0022ED
:101BE0000621144801F04EFC4FF40053FB60012322
:101BF0003B6100237B610023BB6107F10C031946A5
:101C00000B4801F0BBFA0623FB6001233B61002374
:101C10007B610023BB6107F10C031946054801F005
:101C2000ADFA00BF2037BD4680BD00BF003802407E
:101C3000000802400004024080B582B000AF786026
:101C40007B681B68044A934201D1FFF733FC00BF55
:101C50000837BD4680BD00BF0044004080B582B05B
:101C600000AF78607B681B680A4A934202D1FFF795
:101C700029FA0BE07B681B68074A934206D07B6811
:101C80001B68064A934201D1FFF7ECFA00BF083700
:101C9000BD4680BD001001400044004000140140DA
:101CA00080B582B000AF78607B681B68074A9342BA
:101CB00003D1074805F0DEFD03E07B681B68054A99
:101CC000934200BF0837BD4680BD00BF00540040AE
:101CD000601600200058004080B400AF034B044A57
:101CE0001A6000BFBD465DF8047B7047D415002024
:101CF0003003002080B582B000AF7860012006F08C
:101D00007DF9FBE780B582B000AF78607B681B6827
:101D1000B3F1804F01D100F021FD00BF0837BD466F
:101D200080BD80B400AF72B600BFFEE780B582B060
:101D300000AF00237B60124B5B6C114A43F480437D
:101D400053640F4B5B6C03F480437B607B68002320
:101D50003B600B4B1B6C0A4A43F080531364084BE7
:101D60001B6C03F080533B603B6800220F216FF037
:101D7000010000F0CBFD00BF0837BD4680BD00BFAD
:101D80000038024080B58AB000AF786007F11403D4
:101D900000221A605A609A60DA601A617B681B68D8
:101DA0003C4A934272D100233B613B4B1B6B3A4A46
:101DB00043F400131363384B1B6B03F400133B61B4
:101DC0003B690023FB60344B1B6B334A43F0020337
:101DD0001363314B1B6B03F00203FB60FB68C023F2
:101DE0007B611223BB610023FB6103233B6204235D
:101DF0007B6207F114031946284801F0BFF900235C
:101E0000BB60254B1B6C244A43F400131364224B24
:101E10001B6C03F40013BB60BB68214B214A1A60A2
:101E20001F4B4FF000725A601D4B00229A601C4BF2
:101E30000022DA601A4B4FF480621A61184B0022BC
:101E40005A61174B4FF400529A61154B0022DA6128
:101E5000134B4FF480321A62114B04225A62104B1A
:101E600000229A620E4B0022DA620D4B00221A63A6
:101E70000B4800F075FD0346002B01D0FFF751FF22
:101E80007B68074A9A63064A7B68936300BF2837DA
:101E9000BD4680BD005400400038024000040240AE
:101EA000880200208860024080B584B000AF78606E
:101EB0007B681B680F4A934218D10023FB600E4BCE
:101EC0001B6C0D4A43F0020313640B4B1B6C03F0B5
:101ED0000203FB60FB68002205211D2000F016FDB7
:101EE0001D2000F02FFD054800F00AF800BF103754
:101EF000BD4680BD0004004000380240E8020020DA
:101F000080B58AB000AF786007F1140300221A6030
:101F10005A609A60DA601A617B681B68214A9342B2
:101F20003BD100233B61204B1B6B1F4A43F0010355
:101F300013631D4B1B6B03F001033B613B690023E3
:101F4000FB60194B1B6B184A43F002031363164BDB
:101F50001B6B03F00203FB60FB6840237B610223E1
:101F6000BB610023FB6100233B6202237B6207F11C
:101F7000140319460D4801F001F920237B61022367
:101F8000BB610023FB6100233B6202237B6207F1FC
:101F900014031946064801F0F1F800BF2837BD4682
:101FA00080BD00BF00040040003802400000024035
:101FB0000004024080B58EB000AF786007F12403C2
:101FC00000221A605A609A60DA601A617B681B68A6
:101FD000714A93426ED100233B62704B5B6C6F4A37
:101FE00043F0100353646D4B5B6C03F010033B62D2
:101FF0003B6A0023FB61694B1B6B684A43F001039A
:102000001363664B1B6B03F00103FB61FB694FF429
:10201000C0637B620223BB620023FB6203233B633A
:1020200007237B6307F1240319465D4801F0A6F8F6
:102030005C4B5D4A1A605B4B4FF000625A60594B33
:1020400000229A60574B0022DA60564B4FF48062B0
:102050001A61544B00225A61524B4FF400529A615C
:10206000504B0022DA614F4B4FF480321A624D4BD5
:1020700004225A624B4B00229A624A4B0022DA62D7
:10208000484B00221A63474800F06AFC0346002BC5
:1020900001D0FFF746FE7B68424ADA63414A7B681B
:1020A000936300220521252000F030FC252000F05C
:1020B00049FC26E17B681B683C4A93427CD10023A3
:1020C000BB61364B1B6C354A43F400331364334B0E
:1020D0001B6C03F40033BB61BB6900237B612F4B96
:1020E0001B6B2E4A43F0010313632C4B1B6B03F055
:1020F00001037B617B690C237B620223BB620023AB
:10210000FB6203233B6307237B6307F12403194628
:10211000234801F033F8264B264A1A60244B4FF02F
:1021200000625A60224B40229A60214B0022DA6002
:102130001F4B4FF480621A611D4B00225A611C4BE9
:102140004FF400529A611A4B0022DA61184B0022B8
:102150001A62174B04225A62154B00229A62144BE2
:102160000022DA62124B00221A63114800F0F8FBD9
:102170000346002B01D0FFF7D4FD7B680C4A9A631D
:102180000B4A7B68936300220521262000F0BEFBEA
:10219000262000F0D7FBB4E00010014000380240D8
:1021A000000002400804002088640240004400400F
:1021B00068040020A06002407B681B68534A934279
:1021C00040F09F8000233B61514B1B6B504A43F40E
:1021D000800313634E4B1B6B03F480033B613B692D
:1021E0000023FB604A4B5B6C494A43F02003536475
:1021F000474B5B6C03F02003FB60FB680023BB6074
:10220000434B1B6B424A43F001031363404B1B6B70
:1022100003F00103BB60BB684FF4C0537B62022331
:10222000BB620023FB6203233B6308237B6307F14C
:1022300024031946374800F0A1FF374B374A1A608C
:10224000354B4FF020625A60334B40229A60324B3C
:102250000022DA60304B4FF480621A612E4B00226C
:102260005A612D4B00229A612B4B0022DA612A4BD6
:1022700000221A62284B00225A62274800F070FBA5
:102280000346002B01D0FFF74CFD7B68224A9A637E
:10229000214A7B689363224B224A1A60204B4FF0FD
:1022A00020625A601E4B00229A601D4B0022DA60A9
:1022B0001B4B4FF480621A61194B00225A61184B74
:1022C00000229A61164B0022DA61154B00221A6235
:1022D000134B00225A62124800F042FB0346002BC7
:1022E00001D0FFF71EFD7B680D4ADA630C4A7B685C
:1022F000936300220521472000F008FB472000F0EF
:1023000021FB00BF3837BD4680BD00BF001401402F
:102310000038024000000240C8040020A0640240CF
:10232000280500202864024080B58EB000AF786098
:102330000023FB620023BB620023FB60344B1B6C59
:10234000334A43F001031364314B1B6C03F0010368
:10235000FB60FB6807F1100207F1140311461846F1
:1023600003F014F83B6AFB62FB6A002B03D102F016
:10237000E5FF786304E002F0E1FF03465B007B6366
:102380007B6B244AA2FB03239B0C013BBB62224BC9
:102390004FF080421A60204B40F2E732DA601E4A6A
:1023A000BB6A53601C4B00221A611B4B00229A60CF
:1023B000194B00229A61184803F01AF8034687F86F
:1023C000333097F83330002B1BD1134803F060F8FB
:1023D000034687F8333097F83330002B11D11C2097
:1023E00000F0B0FA7B680F2B08D8002279681C2017
:1023F00000F08CFA094A7B68136002E0012387F839
:10240000333097F8333018463837BD4680BD00BFAB
:102410000038024083DE1B43101600200400002019
:1024200080B400AFFEE780B400AFFEE780B400AF39
:10243000FEE780B400AFFEE780B400AFFEE780B4F3
:1024400000AF00BFBD465DF8047B704780B500AFAC
:10245000024800F01DFC00BF80BD00BF88020020C4
:1024600080B500AF024800F013FC00BF80BD00BF84
:102470006804002080B500AF024803F0C4F800BF34
:1024800080BD00BF1016002080B500AF024803F0E9
:10249000BAF800BF80BD00BFE802002080B500AFE1
:1024A000024803F06DFF00BF80BD00BF3003002075
:1024B00080B500AF024803F063FF00BF80BD00BFDE
:1024C0007803002080B500AF024800F0E1FB00BFB8
:1024D00080BD00BF2805002080B500AF024800F095
:1024E000D7FB00BF80BD00BF0804002080B500AF4F
:1024F000024800F0CDFB00BF80BD00BFC804002033
:1025000080B500AF024803F03BFF00BF80BD00BFB5
:10251000C003002080B400AF01231846BD465DF81B
:10252000047B704780B582B000AF786039600BF0F3
:1025300027FA034616221A604FF0FF331846083771
:10254000BD4680BD80B582B000AF78604FF0FF31EE
:102550007868FFF7E7FFFEE780B586B000AFF86068
:10256000B9607A6000237B610AE0AFF30080014626
:10257000BB685A1CBA60CAB21A707B6901337B61AE
:102580007A697B689A42F0DB7B6818461837BD464B
:1025900080BD80B586B000AFF860B9607A60002376
:1025A0007B6109E0BB685A1CBA601B781846AFF320
:1025B00000807B6901337B617A697B689A42F1DB39
:1025C0007B6818461837BD4680BD80B483B000AF25
:1025D00078604FF0FF3318460C37BD465DF8047B3A
:1025E000704780B483B000AF786039603B684FF4C7
:1025F00000525A60002318460C37BD465DF8047B34
:10260000704780B483B000AF7860012318460C3760
:10261000BD465DF8047B704780B485B000AFF860BC
:10262000B9607A60002318461437BD465DF8047B14
:102630007047000080B586B000AF7860144A154B33
:10264000D31A7B617B693B61134B1B68002B02D162
:10265000114B124A1A60104B1A687B6813443A698E
:102660009A4207D20BF08CF903460C221A604FF005
:10267000FF3309E0084B1B68FB60074B1A687B6857
:102680001344054A1360FB6818461837BD4680BDE1
:10269000000001200004000058160020D07B00201C
:1026A00080B400AF064BD3F88830054A43F470037A
:1026B000C2F8883000BFBD465DF8047B704700BF9C
:1026C00000ED00E0DFF834D0FFF7EAFF0C480D49D9
:1026D0000D4A002302E0D458C4500433C4188C427D
:1026E000F9D30A4A0A4C002301E013600432A242E3
:1026F000FBD30BF04BF9FEF77DFF70470000012084
:1027000000000020E80100204C0B0108E801002037
:10271000CC7B0020FEE7000080B500AF0E4B1B68AD
:102720000D4A43F4007313600B4B1B680A4A43F4D1
:1027300080631360084B1B68074A43F4807313607F
:10274000032000F0D8F80F20FFF7EEFDFFF7EEFAB8
:102750000023184680BD00BF003C024080B400AF9B
:10276000064B1B781A46064B1B681344044A136039
:1027700000BFBD465DF8047B704700BF0800002025
:102780005C16002080B400AF034B1B681846BD46A2
:102790005DF8047B704700BF5C16002080B485B0F4
:1027A00000AF78607B6803F00703FB600C4BDB68CD
:1027B000BB60BA684FF6FF031340BB60FB681A02A8
:1027C000BB68134343F0BF6343F40033BB60044A68
:1027D000BB68D36000BF1437BD465DF8047B70470B
:1027E00000ED00E080B400AF044BDB681B0A03F08F
:1027F00007031846BD465DF8047B704700ED00E016
:1028000080B483B000AF0346FB7197F90730002B0B
:102810000BDBFB7903F01F02074997F907305B09CF
:10282000012000FA02F241F8232000BF0C37BD4618
:102830005DF8047B704700BF00E100E080B483B026
:1028400000AF03463960FB7197F90730002B0ADBB4
:102850003B68DAB20C4997F907301201D2B20B4447
:1028600083F800230AE03B68DAB20849FB7903F0F9
:102870000F03043B1201D2B20B441A7600BF0C378F
:10288000BD465DF8047B704700E100E000ED00E02C
:1028900080B489B000AFF860B9607A60FB6803F07B
:1028A0000703FB61FB69C3F10703042B28BF042363
:1028B000BB61FB690433062B02D9FB69033B00E0D3
:1028C00000237B614FF0FF32BB6902FA03F3DA4366
:1028D000BB681A407B699A404FF0FF317B6901FA6F
:1028E00003F3D9437B680B40134318462437BD4696
:1028F0005DF8047B704780B582B000AF786078687F
:10290000FFF74CFF00BF0837BD4680BD80B586B0DD
:1029100000AF0346B9607A60FB7300237B61FFF769
:1029200061FF78617A68B9687869FFF7B1FF02469C
:1029300097F90F3011461846FFF780FF00BF183790
:10294000BD4680BD80B582B000AF0346FB7197F9EC
:1029500007301846FFF754FF00BF0837BD4680BD5B
:1029600080B586B000AF786000237B61FFF70AFF77
:1029700038617B68002B01D1012399E07B6802223A
:1029800083F835207B68002283F834207B681B683D
:102990001A687B681B6822F001021A600FE0FFF7DB
:1029A000F1FE02463B69D31A052B08D97B68202229
:1029B0005A657B68032283F83520032378E07B681F
:1029C0001B681B6803F00103002BE8D17B681B68C0
:1029D0001B687B617A69384B13407B617B685A685E
:1029E0007B689B681A437B68DB681A437B681B69BA
:1029F0001A437B685B691A437B689B691A437B684F
:102A0000DB691A437B681B6A13437A6913437B6152
:102A10007B685B6A042B07D17B68DA6A7B681B6B77
:102A200013437A6913437B617B681B687A691A6078
:102A30007B681B685B697B617B6923F007037B61B3
:102A40007B685B6A7A6913437B617B685B6A042BF2
:102A500017D17B689B6A7A6913437B617B68DB6A69
:102A6000002B0ED0786800F00DFB0346002B08D039
:102A70007B6840225A657B68012283F83520012358
:102A800016E07B681B687A695A61786800F0C4FABE
:102A90000346FB607B68DB6D3F229A40FB689A60CF
:102AA0007B6800225A657B68012283F83520002369
:102AB00018461837BD4680BD3F8010F080B586B0FF
:102AC00000AFF860B9607A603B600023FB75FB687B
:102AD0009B6D3B61FB6893F83430012B01D10223DD
:102AE00040E0FB68012283F83420FB6893F835301E
:102AF000DBB2012B2FD1FB68022283F83520FB6863
:102B000000225A653B687A68B968F86800F056FA9E
:102B1000FB68DB6D3F229A403B699A60FB681B684B
:102B20001A68FB681B6842F016021A60FB681B6C8F
:102B3000002B07D0FB681B681A68FB681B6842F013
:102B400008021A60FB681B681A68FB681B6842F081
:102B500001021A6005E0FB68002283F8342002239A
:102B6000FB75FB7D18461837BD4680BD80B584B027
:102B700000AF78607B689B6DFB60FFF703FEB86079
:102B80007B6893F83530DBB2022B08D07B6880225B
:102B90005A657B68002283F83420012352E07B6869
:102BA0001B681A687B681B6822F016021A607B6833
:102BB0001B685A697B681B6822F080025A617B6837
:102BC0001B6C002B03D17B689B6C002B07D07B68B0
:102BD0001B681A687B681B6822F008021A607B6811
:102BE0001B681A687B681B6822F001021A6013E0F8
:102BF000FFF7C8FD0246BB68D31A052B0CD97B68CA
:102C000020225A657B68032283F835207B680022E6
:102C100083F83420032315E07B681B681B6803F0EE
:102C20000103002BE4D17B68DB6D3F229A40FB68F7
:102C30009A607B68012283F835207B68002283F844
:102C40003420002318461037BD4680BD80B483B0C1
:102C500000AF78607B6893F83530DBB2022B04D08C
:102C60007B6880225A6501230CE07B68052283F88B
:102C700035207B681B681A687B681B6822F001029C
:102C80001A60002318460C37BD465DF8047B704778
:102C900080B586B000AF78600023BB608E4B1B68A8
:102CA0008E4AA2FB03239B0A7B617B689B6D3B6181
:102CB0003B691B68FB607B68DB6D08229A40FB6800
:102CC0001340002B1AD07B681B681B6803F00403B9
:102CD000002B13D07B681B681A687B681B6822F086
:102CE00004021A607B68DB6D08229A403B699A6097
:102CF0007B685B6D43F001027B685A657B68DB6D26
:102D000001229A40FB681340002B12D07B681B689D
:102D10005B6903F08003002B0BD07B68DB6D012225
:102D20009A403B699A607B685B6D43F002027B6866
:102D30005A657B68DB6D04229A40FB681340002BC8
:102D400012D07B681B681B6803F00203002B0BD0BA
:102D50007B68DB6D04229A403B699A607B685B6DFF
:102D600043F004027B685A657B68DB6D10229A4051
:102D7000FB681340002B43D07B681B681B6803F083
:102D80000803002B3CD07B68DB6D10229A403B6926
:102D90009A607B681B681B6803F48023002B18D0A3
:102DA0007B681B681B6803F40023002B08D17B6839
:102DB0001B6C002B24D07B681B6C786898471FE045
:102DC0007B689B6C002B1BD07B689B6C786898475A
:102DD00016E07B681B681B6803F48073002B07D127
:102DE0007B681B681A687B681B6822F008021A60FF
:102DF0007B681B6C002B03D07B681B6C7868984742
:102E00007B68DB6D20229A40FB681340002B00F0AA
:102E10008F807B681B681B6803F01003002B00F099
:102E200087807B68DB6D20229A403B699A607B68D3
:102E300093F83530DBB2052B36D17B681B681A68F6
:102E40007B681B6822F016021A607B681B685A694F
:102E50007B681B6822F080025A617B681B6C002B28
:102E600003D17B689B6C002B07D07B681B681A68BA
:102E70007B681B6822F008021A607B68DB6D3F22CA
:102E80009A403B699A607B68012283F835207B6811
:102E9000002283F834207B681B6D002B7ED07B687A
:102EA0001B6D7868984779E07B681B681B6803F4A2
:102EB0008023002B1DD07B681B681B6803F4002354
:102EC000002B0DD17B685B6C002B31D07B685B6C79
:102ED000786898472CE000BF00000020B5814E1BA9
:102EE0007B68DB6B002B23D07B68DB6B78689847B3
:102EF0001EE07B681B681B6803F48073002B0FD1F6
:102F00007B681B681A687B681B6822F010021A60D5
:102F10007B68012283F835207B68002283F8342007
:102F20007B68DB6B002B03D07B68DB6B7868984792
:102F30007B685B6D002B32D07B685B6D03F0010317
:102F4000002B22D07B68052283F835207B681B6824
:102F50001A687B681B6822F001021A60BB680133A3
:102F6000BB607A699A4207D37B681B681B6803F0D1
:102F70000103002BF2D100E000BF7B68012283F83F
:102F800035207B68002283F834207B68DB6C002BC3
:102F900005D07B68DB6C7868984700E000BF183785
:102FA000BD4680BD80B483B000AF78607B685B6D48
:102FB00018460C37BD465DF8047B704780B485B079
:102FC00000AFF860B9607A603B60FB681B681A6804
:102FD000FB681B6822F480221A60FB681B683A6851
:102FE0005A60FB689B68402B08D1FB681B687A68B5
:102FF0009A60FB681B68BA68DA6007E0FB681B68C8
:10300000BA689A60FB681B687A68DA6000BF143798
:10301000BD465DF8047B704780B485B000AF786032
:103020007B681B68DBB2103B144AA2FB03231B091D
:10303000FB60134AFB6813441B781A467B68DA6509
:10304000FB68032B09D97B681B6823F47F7323F08B
:1030500003031A1D7B689A6507E07B681B6823F4ED
:103060007F7323F003037A6893657B689B6D184632
:103070001437BD465DF8047B704700BFABAAAAAA0F
:103080000807010880B485B000AF78600023FB73A7
:103090007B689B6ABB607B689B69002B1FD1BB6808
:1030A000032B56D801A252F823F000BFBD30000810
:1030B000CF300008BD300008533100087B68DB6A60
:1030C00003F08073002B46D00123FB7343E07B6841
:1030D000DB6AB3F1C07F40D10123FB733DE07B6825
:1030E0009B69B3F5005F21D1BB68032B37D801A2E0
:1030F00052F823F0053100080B31000805310008B3
:103100001D3100080123FB7330E07B68DB6A03F0AC
:103110008073002B25D00123FB7322E07B68DB6AE0
:10312000B3F1C07F1FD10123FB731CE0BB68022BEE
:1031300003D9BB68032B03D018E00123FB7315E010
:103140007B68DB6A03F08073002B0ED00123FB73D6
:103150000BE000BF0AE000BF08E000BF06E000BFD0
:1031600004E000BF02E000BF00E000BFFB7B1846A8
:103170001437BD465DF8047B704700BF80B489B04A
:1031800000AF7860396000237B6100233B6100233E
:10319000BB610023FB6159E10122FB6902FA03F3E1
:1031A0007B613B681B687A6913403B613A697B69C4
:1031B0009A4240F048813B685B6803F00303012BAF
:1031C00005D03B685B6803F00303022B30D17B68BA
:1031D0009B68BB61FB695B00032202FA03F3DB43DC
:1031E000BA691340BB613B68DA68FB695B0002FAAD
:1031F00003F3BA691343BB617B68BA699A607B6861
:103200005B68BB610122FB6902FA03F3DB43BA6925
:103210001340BB613B685B681B0903F00102FB695B
:1032200002FA03F3BA691343BB617B68BA695A6057
:103230003B685B6803F00303032B17D07B68DB68F4
:10324000BB61FB695B00032202FA03F3DB43BA694B
:103250001340BB613B689A68FB695B0002FA03F3A9
:10326000BA691343BB617B68BA69DA603B685B6823
:1032700003F00303022B23D1FB69DA087B680832D1
:1032800053F82230BB61FB6903F007039B000F2258
:1032900002FA03F3DB43BA691340BB613B681A6966
:1032A000FB6903F007039B0002FA03F3BA691343B7
:1032B000BB61FB69DA087B680832B96943F8221000
:1032C0007B681B68BB61FB695B00032202FA03F3A6
:1032D000DB43BA691340BB613B685B6803F00302E0
:1032E000FB695B0002FA03F3BA691343BB617B68B5
:1032F000BA691A603B685B6803F44033002B00F046
:10330000A2800023FB60574B5B6C564A43F480431A
:103310005364544B5B6C03F48043FB60FB68524A7C
:10332000FB699B08023352F82330BB61FB6903F051
:1033300003039B000F2202FA03F3DB43BA69134035
:10334000BB617B68494A934219D07B68484A9342E3
:1033500013D07B68474A93420DD07B68464A93421C
:1033600007D07B68454A934201D1042308E0072334
:1033700006E0032304E0022302E0012300E000232F
:10338000FA6902F0030292009340BA691343BB61E9
:103390003549FB699B080233BA6941F82320384B51
:1033A0009B68BB613B69DB43BA691340BB613B6807
:1033B0005B6803F48013002B03D0BA693B691343A5
:1033C000BB612F4ABB6993602D4BDB68BB613B69D6
:1033D000DB43BA691340BB613B685B6803F40013CD
:1033E000002B03D0BA693B691343BB61244ABB6914
:1033F000D360234B5B68BB613B69DB43BA69134015
:10340000BB613B685B6803F40033002B03D0BA69EF
:103410003B691343BB611A4ABB695360184B1B6875
:10342000BB613B69DB43BA691340BB613B685B68C6
:1034300003F48033002B03D0BA693B691343BB61AB
:103440000F4ABB691360FB690133FB61FB690F2BFA
:103450007FF6A2AE00BF00BF2437BD465DF8047BF7
:10346000704700BF003802400038014000000240B1
:103470000004024000080240000C0240001002401C
:10348000003C014080B483B000AF78600B467B8085
:1034900013467B707B78002B03D07A887B689A6117
:1034A00003E07B881A047B689A6100BF0C37BD4635
:1034B0005DF8047B704780B485B000AF78600B4640
:1034C0007B807B685B69FB607A88FB6813401A0429
:1034D000FB68D9437B880B401A437B689A6100BF25
:1034E0001437BD465DF8047B7047000080B584B09A
:1034F00000AF78607B68002B01D101232BE17B6852
:1035000093F83D30DBB2002B06D17B68002283F8B4
:103510003C207868FEF736FC7B68242283F83D2047
:103520007B681B681A687B681B6822F001021A60BE
:103530007B681B681A687B681B6842F400421A604B
:103540007B681B681A687B681B6822F400421A605B
:1035500001F0F4FEF8607B685B68814A934207D80B
:10356000FB68804A934294BF01230023DBB206E04C
:10357000FB687D4A934294BF01230023DBB2002BFA
:1035800001D00123E7E0FB68784AA2FB03239B0CF0
:10359000BB607B681B685B6823F03F017B681B682E
:1035A000BA680A435A607B681B681B6A23F03F01B4
:1035B0007B685B686A4A934202D8BB68013309E0C2
:1035C000BB684FF4967202FB03F3694AA2FB032324
:1035D0009B0901337A6812680B4313627B681B688E
:1035E000DB6923F44F4222F0FF027B685B685C4991
:1035F0008B4219D8FB68591E7B685B685B00B1FB86
:10360000F3F3591C40F6FC730B40002B0AD0FB6807
:10361000591E7B685B685B00B1FBF3F30133C3F3B6
:103620000B0351E004234FE07B689B68002B11D112
:10363000FB68581E7B6859680B465B000B44B0FB67
:10364000F3F30133C3F30B03002B0CBF012300235F
:10365000DBB212E0FB68581E7B6859680B469B0082
:103660000B4499000B44B0FBF3F30133C3F30B039A
:10367000002B0CBF01230023DBB2002B01D0012360
:1036800022E07B689B68002B0ED1FB68581E7B688C
:1036900059680B465B000B44B0FBF3F30133C3F3F3
:1036A0000B0343F400430FE0FB68581E7B68596826
:1036B0000B469B000B4499000B44B0FBF3F3013322
:1036C000C3F30B0343F44043796809681343CB61A8
:1036D0007B681B681B6823F0C0017B68DA697B6824
:1036E0001B6A1A437B681B680A431A607B681B6865
:1036F0009B6823F4034323F0FF037A6811697A6817
:10370000D26811437A6812680B4393607B681B6828
:10371000DB6823F0FF017B685A697B689B691A4369
:103720007B681B680A43DA607B681B681A687B68E1
:103730001B6842F001021A607B6800221A647B68F1
:10374000202283F83D207B6800221A637B680022D8
:1037500083F83E20002318461037BD4680BD00BFC9
:10376000A08601007F841E00FF083D0083DE1B430E
:10377000D34D621080B588B002AFF860084611469C
:103780001A4603467B810B463B811346FB80FEF7BE
:10379000F9FF7861FB6893F83D30DBB2202B40F0F5
:1037A000D9807B690093192301226D49F86800F0E4
:1037B0005FFF0346002B01D00223CCE0FB6893F8A7
:1037C0003C30012B01D10223C5E0FB68012283F8C4
:1037D0003C20FB681B681B6803F00103012B07D02A
:1037E000FB681B681A68FB681B6842F001021A60DC
:1037F000FB681B681A68FB681B6822F400621A6089
:10380000FB68212283F83D20FB68402283F83E209C
:10381000FB6800221A64FB683A6A5A62FB68BA8C39
:103820005A85FB685B8D9AB2FB681A85FB684D4A26
:10383000DA62F8883A8979897B690193BB6A0093D7
:103840000346F86800F07AFC0346002B52D00123AF
:1038500081E07A69B96AF86801F024F80346002B20
:103860000DD0FB681B6C042B07D1FB681B681A6822
:10387000FB681B6842F400721A6001236BE0FB686E
:103880005B6A1A78FB681B681A61FB685B6A5A1CE2
:10389000FB685A62FB681B8D013B9AB2FB681A8574
:1038A000FB685B8D9BB2013B9AB2FB685A85FB6853
:1038B0001B685B6903F00403042B1BD1FB681B8DA1
:1038C000002B17D0FB685B6A1A78FB681B681A61CB
:1038D000FB685B6A5A1CFB685A62FB681B8D013BE4
:1038E0009AB2FB681A85FB685B8D9BB2013B9AB26A
:1038F000FB685A85FB681B8D002BAAD17A69B96ACF
:10390000F86801F017F80346002B0DD0FB681B6C1C
:10391000042B07D1FB681B681A68FB681B6842F41C
:1039200000721A60012316E0FB681B681A68FB68C6
:103930001B6842F400721A60FB68202283F83D2065
:10394000FB68002283F83E20FB68002283F83C20BD
:10395000002300E0022318461837BD4680BD00BF93
:10396000020010000000FFFF80B58CB002AFF860CD
:10397000084611461A4603467B810B463B81134697
:10398000FB80FEF7FFFE7862FB6893F83D30DBB208
:10399000202B40F014827B6A0093192301227B497B
:1039A000F86800F065FE0346002B01D0022307E211
:1039B000FB6893F83C30012B01D1022300E2FB6845
:1039C000012283F83C20FB681B681B6803F001039D
:1039D000012B07D0FB681B681A68FB681B6842F064
:1039E00001021A60FB681B681A68FB681B6822F4F6
:1039F00000621A60FB68222283F83D20FB684022A7
:103A000083F83E20FB6800221A64FB683A6B5A6216
:103A1000FB68BA8E5A85FB685B8D9AB2FB681A8583
:103A2000FB685B4ADA62F8883A8979897B6A019394
:103A3000BB6B00930346F86800F016FC0346002BAE
:103A400001D00123BCE1FB681B8D002B13D10023A7
:103A50003B62FB681B685B693B62FB681B689B6998
:103A60003B623B6AFB681B681A68FB681B6842F490
:103A700000721A6090E1FB681B8D012B1BD1FB6863
:103A80001B681A68FB681B6822F480621A600023B6
:103A9000FB61FB681B685B69FB61FB681B689B69DA
:103AA000FB61FB69FB681B681A68FB681B6842F4D2
:103AB00000721A6070E1FB681B8D022B1BD1FB6842
:103AC0001B681A68FB681B6822F480621A60FB6836
:103AD0001B681A68FB681B6842F400621A600023C6
:103AE000BB61FB681B685B69BB61FB681B689B690A
:103AF000BB61BB6950E100237B61FB681B685B69AC
:103B00007B61FB681B689B697B617B6944E1FB68A7
:103B10001B8D032B00F2F180FB681B8D012B23D141
:103B20007A6AB96BF86800F04DFF0346002B01D0AC
:103B3000012345E1FB681B681A69FB685B6AD2B226
:103B40001A70FB685B6A5A1CFB685A62FB681B8D23
:103B5000013B9AB2FB681A85FB685B8D9BB2013B07
:103B60009AB2FB685A8517E1FB681B8D022B4ED178
:103B70007B6A0093BB6B00220649F86800F078FD71
:103B80000346002B08D001231AE100BF02001000F9
:103B90000000FFFF04000100FB681B681A68FB6857
:103BA0001B6842F400721A60FB681B681A69FB68A4
:103BB0005B6AD2B21A70FB685B6A5A1CFB685A6275
:103BC000FB681B8D013B9AB2FB681A85FB685B8D15
:103BD0009BB2013B9AB2FB685A85FB681B681A6965
:103BE000FB685B6AD2B21A70FB685B6A5A1CFB689E
:103BF0005A62FB681B8D013B9AB2FB681A85FB6811
:103C00005B8D9BB2013B9AB2FB685A85C4E07B6A2C
:103C10000093BB6B00226C49F86800F029FD034655
:103C2000002B01D00123CBE0FB681B681A68FB68FE
:103C30001B6822F480621A60FB681B681A69FB68C3
:103C40005B6AD2B21A70FB685B6A5A1CFB685A62E4
:103C5000FB681B8D013B9AB2FB681A85FB685B8D84
:103C60009BB2013B9AB2FB685A857B6A0093BB6B9F
:103C700000225549F86800F0FBFC0346002B01D0F8
:103C800001239DE0FB681B681A68FB681B6842F40F
:103C900000721A60FB681B681A69FB685B6AD2B223
:103CA0001A70FB685B6A5A1CFB685A62FB681B8DC2
:103CB000013B9AB2FB681A85FB685B8D9BB2013BA6
:103CC0009AB2FB685A85FB681B681A69FB685B6AD5
:103CD000D2B21A70FB685B6A5A1CFB685A62FB68B6
:103CE0001B8D013B9AB2FB681A85FB685B8D9BB20A
:103CF000013B9AB2FB685A854EE07A6AB96BF86864
:103D000000F060FE0346002B01D0012358E0FB6861
:103D10001B681A69FB685B6AD2B21A70FB685B6A3F
:103D20005A1CFB685A62FB681B8D013B9AB2FB6808
:103D30001A85FB685B8D9BB2013B9AB2FB685A8582
:103D4000FB681B685B6903F00403042B24D1FB6848
:103D50001B8D032B07D1FB681B681A68FB681B6867
:103D600022F480621A60FB681B681A69FB685B6A50
:103D7000D2B21A70FB685B6A5A1CFB685A62FB6815
:103D80001B8D013B9AB2FB681A85FB685B8D9BB269
:103D9000013B9AB2FB685A85FB681B8D002B7FF4B0
:103DA000B6AEFB68202283F83D20FB68002283F832
:103DB0003E20FB68002283F83C20002300E0022321
:103DC00018462837BD4680BD0400010080B58CB080
:103DD00002AFF860084611461A4603467B810B463F
:103DE0003B811346FB80FEF7CDFC78620023FB612C
:103DF000FB6893F83D30DBB2202B40F07281934B8F
:103E00001B68DB08924AA2FB03231A0A13469B0095
:103E100013449A001344FB61FB69013BFB61FB699E
:103E2000002B12D1FB6800221A63FB68202283F862
:103E30003D20FB68002283F83E20FB681B6C43F0AA
:103E40002002FB681A6402234CE1FB681B689B6933
:103E500003F00203022BDFD0FB6893F83C30012B08
:103E600001D102233EE1FB68012283F83C20FB687C
:103E70001B681B6803F00103012B07D0FB681B685C
:103E80001A68FB681B6842F001021A60FB681B6835
:103E90001A68FB681B6822F400621A60FB68222221
:103EA00083F83D20FB68402283F83E20FB68002217
:103EB0001A64FB683A6B5A62FB68BA8E5A85FB68D3
:103EC0005B8D9AB2FB681A85FB68624ADA627A896E
:103ED000FB685A643A89FB689A64FA88FB68DA647A
:103EE000FB6800221A65FB681B8D002B00F0CC805C
:103EF000FB689B6B002B2DD0FB689B6B564ADA63EB
:103F0000FB689B6B554ADA64FB689B6B00221A6462
:103F1000FB689B6B00225A64FB689B6B00229A64CF
:103F2000FB689B6B00221A65FB68986BFB681B683B
:103F300010331946FB685B6A1A46FB681B8DFEF757
:103F4000BDFD034687F8233097F82330002B40F05F
:103F5000878013E0FB68202283F83D20FB68002265
:103F600083F83E20FB681B6C43F08002FB681A64F8
:103F7000FB68002283F83C200123B3E0F8883A89EB
:103F800079897B6A0193232300930346F86800F044
:103F90006BF90346002B23D0FB689B6B1846FEF79A
:103FA00055FE034687F82330FB689B6B0022DA63DB
:103FB000FB681B681A68FB681B6822F480621A6041
:103FC000FB6800221A85FB6800225A85FB681B6883
:103FD0001A68FB681B6822F001021A60012381E065
:103FE000FB681B8D012B08D1FB681B681A68FB68F6
:103FF0001B6822F480621A6007E0FB681B685A683D
:10400000FB681B6842F480525A600023BB61FB6866
:104010001B685B69BB61FB681B689B69BB61BB6913
:10402000FB68002283F83C20FB681B685A68FB6829
:104030001B6842F480725A60FB681B685A68FB6810
:104040001B6842F400625A6049E000BF0000002093
:1040500089B5F8140000FFFF39440008F74500084F
:10406000FB68202283F83D20FB68002283F83E2075
:10407000FB681B6C43F01002FB681A64FB680022AB
:1040800083F83C2001232DE0F8883A8979897B6AFE
:104090000193232300930346F86800F0E5F80346F4
:1040A000002B01D001231DE000237B61FB681B680E
:1040B0005B697B61FB681B689B697B617B69FB6853
:1040C0001B681A68FB681B6842F400721A60FB6880
:1040D000202283F83D20FB68002283F83C20002347
:1040E00000E0022318462837BD4680BD80B483B067
:1040F00000AF786000BF0C37BD465DF8047B7047A9
:1041000080B483B000AF786000BF0C37BD465DF867
:10411000047B704780B483B000AF786000BF0C3779
:10412000BD465DF8047B704780B483B000AF786013
:1041300000BF0C37BD465DF8047B704780B588B082
:1041400002AFF860084611461A4603467B810B46CB
:104150003B811346FB80FB681B681A68FB681B6881
:1041600042F480721A607B6A00933B6A00224FF02F
:104170000111F86800F07CFA0346002B0DD0FB68B3
:104180001B681B6803F48073B3F5807F03D1FB6861
:104190004FF400721A6403235FE07B89DBB21A4696
:1041A000FB681B6802F0FE021A617B6A3A6A2D49BD
:1041B000F86800F0D7FA0346002B01D001234CE049
:1041C00000237B61FB681B685B697B61FB681B6884
:1041D0009B697B617B697A6A396AF86800F062FBE7
:1041E0000346002B0DD0FB681B6C042B07D1FB682A
:1041F0001B681A68FB681B6842F400721A6001238E
:104200002BE0FB88012B05D13B89DAB2FB681B68E8
:104210001A6121E03B891B0A9BB2DAB2FB681B687A
:104220001A617A6A396AF86800F03CFB0346002B91
:104230000DD0FB681B6C042B07D1FB681B681A6848
:10424000FB681B6842F400721A60012305E03B8999
:10425000DAB2FB681B681A61002318461837BD469E
:1042600080BD00BF0200010080B588B002AFF860D9
:10427000084611461A4603467B810B463B8113468E
:10428000FB80FB681B681A68FB681B6842F480624D
:104290001A60FB681B681A68FB681B6842F480722E
:1042A0001A607B6A00933B6A00224FF00111F868A4
:1042B00000F0DEF90346002B0DD0FB681B681B687D
:1042C00003F48073B3F5807F03D1FB684FF4007271
:1042D0001A640323AAE07B89DBB21A46FB681B68D9
:1042E00002F0FE021A617B6A3A6A5249F86800F0ED
:1042F00039FA0346002B01D0012397E000237B61AC
:10430000FB681B685B697B61FB681B689B697B6161
:104310007B697A6A396AF86800F0C4FA0346002BB0
:104320000DD0FB681B6C042B07D1FB681B681A6857
:10433000FB681B6842F400721A60012376E0FB8878
:10434000012B05D13B89DAB2FB681B681A6121E0B9
:104350003B891B0A9BB2DAB2FB681B681A617A6A56
:10436000396AF86800F09EFA0346002B0DD0FB680E
:104370001B6C042B07D1FB681B681A68FB681B6861
:1043800042F400721A60012350E03B89DAB2FB6804
:104390001B681A617A6A396AF86800F083FA034682
:1043A000002B0DD0FB681B6C042B07D1FB681B682E
:1043B0001A68FB681B6842F400721A60012335E03A
:1043C000FB681B681A68FB681B6842F480721A60FD
:1043D0007B6A00933B6A00224FF00111F86800F0FD
:1043E00047F90346002B0DD0FB681B681B6803F4DC
:1043F0008073B3F5807F03D1FB684FF400721A64B9
:10440000032313E07B89DBB243F00103DAB2FB68DC
:104410001B681A617B6A3A6A0649F86800F0A2F9DB
:104420000346002B01D0012300E000231846183773
:10443000BD4680BD0200010080B586B000AF786047
:104440007B689B6B7B617B6993F83D30FB747B6978
:1044500093F83E30BB747B69DB6AFB607B691B6849
:104460005A687B691B6822F440725A607B695B6BF7
:10447000002B03D07B695B6B0022DA637B699B6B4B
:10448000002B03D07B699B6B0022DA63FB7C03F07B
:104490002103212B07D0FB7C03F02203222B31D1F7
:1044A000BB7C202B2ED17B691B685A687B691B68FB
:1044B00022F400625A607B6900225A85FB7C292B1A
:1044C0000AD17B6921221A637B69282283F83D2067
:1044D0007869FFF715FE0CE0FB7C2A2B09D17B697C
:1044E00022221A637B69282283F83D207869FFF72E
:1044F00011FE7B691B685A687B691B6842F4407235
:104500005A6074E07B6993F83E30DBB2002B6ED0CA
:104510007B695B8D9BB2012B07D17B691B681A6895
:104520007B691B6822F480621A607B691B685A6889
:104530007B691B6822F440725A60FB6813F5803F68
:1045400009D0FB68082B06D0FB68B3F12A4F02D0D4
:10455000FB68202B07D17B691B681A687B691B6885
:1045600042F400721A607B691B685A687B691B6899
:1045700022F480525A607B691B685A687B691B6809
:1045800022F400625A607B6900225A857B691B6CA9
:10459000002B03D07869FFF7C7FD28E07B69202254
:1045A00083F83D207B6993F83E30DBB2402B0AD183
:1045B0007B69002283F83E207B6900221A637869B8
:1045C000FDF76EFB13E07B69002283F83E20FB6859
:1045D000082B02D0FB68202B03D17B6900221A63D1
:1045E00002E07B6912221A637869FFF77FFD00BF42
:1045F0001837BD4680BD80B584B000AF78607B6859
:104600009B6BFB60FB685B6B002B03D0FB685B6BF9
:104610000022DA63FB689B6B002B03D0FB689B6B6B
:104620000022DA637868FEF7BDFC0346022B1BD03C
:10463000FB681B681A68FB681B6822F480621A60BA
:10464000FB6800225A85FB68202283F83D20FB6826
:10465000002283F83E20FB681B6C43F01002FB68CD
:104660001A64F868FFF760FD00BF1037BD4680BDD3
:1046700080B584B000AFF860B9603B601346FB7151
:1046800048E03B68B3F1FF3F44D0FEF77BF80246B9
:10469000BB69D31A3A689A4202D33B68002B39D1DE
:1046A000BB681B0CDBB2012B0DD1FB681B685B697F
:1046B000DA43BB6813409BB2002B0CBF01230023DD
:1046C000DBB21A460CE0FB681B689B69DA43BB68E7
:1046D00013409BB2002B0CBF01230023DBB21A4610
:1046E000FB799A4216D1FB6800221A63FB682022EC
:1046F00083F83D20FB68002283F83E20FB681B6C9A
:1047000043F02002FB681A64FB68002283F83C2017
:10471000012323E0BB681B0CDBB2012B0DD1FB682E
:104720001B685B69DA43BB6813409BB2002B0CBF6C
:1047300001230023DBB21A460CE0FB681B689B696F
:10474000DA43BB6813409BB2002B0CBF012300234C
:10475000DBB21A46FB799A4293D0002318461037F1
:10476000BD4680BD80B584B000AFF860B9607A60A6
:104770003B6071E0FB681B685B6903F48063B3F521
:10478000806F23D1FB681B681A68FB681B6842F4C2
:1047900000721A60FB681B686FF480625A61FB68E4
:1047A00000221A63FB68202283F83D20FB68002268
:1047B00083F83E20FB681B6C43F00402FB681A641C
:1047C000FB68002283F83C20012367E07B68B3F19B
:1047D000FF3F41D0FDF7D6FF02463B68D31A7A6807
:1047E0009A4202D37B68002B36D1BB681B0CDBB22C
:1047F000012B0CD1FB681B685B69DA43BB68134073
:104800009BB2002B14BF01230023DBB20BE0FB683B
:104810001B689B69DA43BB6813409BB2002B14BF33
:1048200001230023DBB2002B16D0FB6800221A63A1
:10483000FB68202283F83D20FB68002283F83E209D
:10484000FB681B6C43F02002FB681A64FB680022C3
:1048500083F83C20012321E0BB681B0CDBB2012B59
:104860000CD1FB681B685B69DA43BB6813409BB2E1
:10487000002B14BF01230023DBB20BE0FB681B6895
:104880009B69DA43BB6813409BB2002B14BF012322
:104890000023DBB2002B7FF46DAF002318461037E6
:1048A000BD4680BD80B584B000AFF860B9607A6065
:1048B00034E0F86800F0E3F80346002B01D0012350
:1048C00034E0BB68B3F1FF3F28D0FDF75BFF024641
:1048D0007B68D31ABA689A4202D3BB68002B1DD1F9
:1048E000FB681B685B6903F08003802B16D0FB68B4
:1048F00000221A63FB68202283F83D20FB68002217
:1049000083F83E20FB681B6C43F02002FB681A64AE
:10491000FB68002283F83C20012307E0FB681B684A
:104920005B6903F08003802BC3D100231846103746
:10493000BD4680BD80B584B000AFF860B9607A60D4
:1049400034E0F86800F09BF80346002B01D0012307
:1049500034E0BB68B3F1FF3F28D0FDF713FF0246F8
:104960007B68D31ABA689A4202D3BB68002B1DD168
:10497000FB681B685B6903F00403042B16D0FB681B
:1049800000221A63FB68202283F83D20FB68002286
:1049900083F83E20FB681B6C43F02002FB681A641E
:1049A000FB68002283F83C20012307E0FB681B68BA
:1049B0005B6903F00403042BC3D1002318461037AE
:1049C000BD4680BD80B584B000AFF860B9607A6044
:1049D00049E0FB681B685B6903F01003102B19D1D9
:1049E000FB681B686FF010025A61FB6800221A63B3
:1049F000FB68202283F83D20FB68002283F83E20DC
:104A0000FB681A6CFB681A64FB68002283F83C2080
:104A1000012330E0FDF7B6FE02467B68D31ABA6880
:104A20009A4202D3BB68002B1DD1FB681B685B69EF
:104A300003F04003402B16D0FB6800221A63FB688A
:104A4000202283F83D20FB68002283F83E20FB688B
:104A50001B6C43F02002FB681A64FB68002283F899
:104A60003C20012307E0FB681B685B6903F04003FF
:104A7000402BAED1002318461037BD4680BD80B410
:104A800083B000AF78607B681B685B6903F4806368
:104A9000B3F5806F1BD17B681B686FF480625A612D
:104AA0007B6800221A637B68202283F83D207B68A4
:104AB000002283F83E207B681B6C43F004027B6875
:104AC0001A647B68002283F83C20012300E0002365
:104AD00018460C37BD465DF8047B704780B586B03C
:104AE00000AF78607B68002B01D1012367E27B680F
:104AF0001B6803F00103002B75D0884B9B6803F003
:104B00000C03042B0CD0854B9B6803F00C03082B83
:104B100012D1824B5B6803F48003B3F5800F0BD195
:104B20007E4B1B6803F40033002B5BD07B685B6813
:104B3000002B57D1012342E27B685B68B3F5803FCD
:104B400006D1764B1B68754A43F4803313601DE031
:104B50007B685B68B3F5A02F0CD1704B1B686F4A64
:104B600043F4802313606D4B1B686C4A43F480331D
:104B700013600BE0694B1B68684A23F480331360B1
:104B8000664B1B68654A23F4802313607B685B686F
:104B9000002B13D0FDF7F6FD386108E0FDF7F2FDBC
:104BA00002463B69D31A642B01D9032307E25B4B0E
:104BB0001B6803F40033002BF0D014E0FDF7E2FD96
:104BC000386108E0FDF7DEFD02463B69D31A642B2D
:104BD00001D90323F3E1514B1B6803F40033002B8D
:104BE000F0D100E000BF7B681B6803F00203002BDC
:104BF00063D04A4B9B6803F00C03002B0BD0474B50
:104C00009B6803F00C03082B1CD1444B5B6803F436
:104C10008003002B16D1414B1B6803F00203002BCD
:104C200005D07B68DB68012B01D00123C7E13B4B3A
:104C30001B6823F0F8027B681B69DB0037491343CC
:104C40000B603AE07B68DB68002B20D0344B0122FC
:104C50001A60FDF797FD386108E0FDF793FD024605
:104C60003B69D31A022B01D90323A8E12B4B1B6804
:104C700003F00203002BF0D0284B1B6823F0F8024E
:104C80007B681B69DB00254913430B6015E0244B4F
:104C900000221A60FDF776FD386108E0FDF772FD2D
:104CA00002463B69D31A022B01D9032387E11B4B30
:104CB0001B6803F00203002BF0D17B681B6803F034
:104CC0000803002B36D07B685B69002B16D0154B90
:104CD00001221A60FDF756FD386108E0FDF752FD2C
:104CE00002463B69D31A022B01D9032367E10B4B20
:104CF0005B6F03F00203002BF0D01BE0094B002296
:104D00001A60FDF73FFD38610EE0FDF73BFD0246FE
:104D10003B69D31A022B07D9032350E10038024024
:104D200000004742800E4742884B5B6F03F002034E
:104D3000002BEAD17B681B6803F00403002B00F012
:104D400097800023FB75814B1B6C03F08053002B75
:104D50000FD10023BB607D4B1B6C7C4A43F080531A
:104D600013647A4B1B6C03F08053BB60BB68012358
:104D7000FB75774B1B6803F48073002B18D1744BC1
:104D80001B68734A43F480731360FDF7FBFC3861C2
:104D900008E0FDF7F7FC02463B69D31A022B01D964
:104DA00003230CE16A4B1B6803F48073002BF0D0E3
:104DB0007B689B68012B06D1644B1B6F634A43F0F1
:104DC000010313671CE07B689B68052B0CD15F4BCC
:104DD0001B6F5E4A43F0040313675C4B1B6F5B4A17
:104DE00043F0010313670BE0584B1B6F574A23F046
:104DF00001031367554B1B6F544A23F004031367D9
:104E00007B689B68002B15D0FDF7BCFC38610AE07D
:104E1000FDF7B8FC02463B69D31A41F2883293424F
:104E200001D90323CBE0494B1B6F03F00203002B96
:104E3000EED014E0FDF7A6FC38610AE0FDF7A2FC15
:104E400002463B69D31A41F28832934201D90323C7
:104E5000B5E03E4B1B6F03F00203002BEED1FB7D50
:104E6000012B05D1394B1B6C384A23F08053136456
:104E70007B689B69002B00F0A180344B9B6803F09A
:104E80000C03082B5CD07B689B69022B41D1314B12
:104E900000221A60FDF776FC386108E0FDF772FC2D
:104EA00002463B69D31A022B01D9032387E0274B23
:104EB0001B6803F00073002BF0D17B68DA697B6814
:104EC0001B6A1A437B685B6A9B011A437B689B6A77
:104ED0005B08013B1B041A437B68DB6A1B061B490A
:104EE00013434B601B4B01221A60FDF74BFC3861EA
:104EF00008E0FDF747FC02463B69D31A022B01D9B3
:104F000003235CE0114B1B6803F00073002BF0D00F
:104F100054E0104B00221A60FDF734FC386108E0C1
:104F2000FDF730FC02463B69D31A022B01D903235B
:104F300045E0064B1B6803F00073002BF0D13DE009
:104F40007B689B69012B07D1012338E000380240C0
:104F500000700040600047421B4B5B68FB607B6851
:104F60009B69012B28D0FB6803F480027B68DB6916
:104F70009A4221D1FB6803F03F027B681B6A9A4288
:104F80001AD1FA6847F6C07313407A68526A9201E0
:104F9000934211D1FB6803F440327B689B6A5B0843
:104FA000013B1B049A4207D1FB6803F070627B68E7
:104FB000DB6A1B069A4201D0012300E00023184659
:104FC0001837BD4680BD00BF0038024080B584B0B0
:104FD00000AF786039607B68002B01D10123CCE001
:104FE000684B1B6803F007033A689A420CD9654B7B
:104FF0003A68D2B21A70634B1B6803F007033A6831
:105000009A4201D00123B8E07B681B6803F00203D9
:10501000002B20D07B681B6803F00403002B05D015
:10502000594B9B68584A43F4E05393607B681B6874
:1050300003F00803002B05D0534B9B68524A43F4FE
:1050400060439360504B9B6823F0F0027B689B6841
:105050004D4913438B607B681B6803F00103002BF1
:1050600044D07B685B68012B07D1474B1B6803F476
:105070000033002B19D101237FE07B685B68022B92
:1050800003D07B685B68032B07D13F4B1B6803F0A1
:105090000073002B09D101236FE03B4B1B6803F029
:1050A0000203002B01D1012367E0374B9B6823F0FB
:1050B00003027B685B68344913438B60FDF762FB36
:1050C000F8600AE0FDF75EFB0246FB68D31A41F286
:1050D0008832934201D903234FE02B4B9B6803F0A6
:1050E0000C027B685B689B009A42EBD1254B1B68E6
:1050F00003F007033A689A420CD2224B3A68D2B2C4
:105100001A70204B1B6803F007033A689A4201D0DB
:10511000012332E07B681B6803F00403002B08D0F6
:10512000194B9B6823F4E0527B68DB6816491343F4
:105130008B607B681B6803F00803002B09D0124BBF
:105140009B6823F460427B681B69DB000E491343B4
:105150008B6000F021F802460B4B9B681B0903F0A3
:105160000F030A49CB5C22FA03F3094A1360094B87
:105170001B681846FDF7D8F8002318461037BD46BF
:1051800080BD00BF003C024000380240F00601082C
:1051900000000020040000202DE9B04F90B000AFC7
:1051A00000237B630023FB6300233B630023BB637B
:1051B000594B9B6803F00C03082B0DD0082B00F211
:1051C000A180002B02D0042B03D09BE0534BBB6388
:1051D0009BE0534BBB6398E04F4B5B6803F03F038E
:1051E0007B634D4B5B6803F48003002B28D04A4B54
:1051F0005B689B0900223B627A623B6AC3F308004A
:105200000021474B03FB01F2002300FB03F313448F
:10521000434AA0FB0212FA620A46BA62FA6A1344CF
:10522000FB627B6B0022BB61FA61D7E90623D7E9F9
:105230000A01FBF731FD02460B461346FB6353E0C0
:10524000354B5B689B0900223B617A613B69C3F384
:10525000080A4FF0000B52465B464FF000004FF03B
:105260000001590141EAD261500102460B46B2EBFE
:105270000A0863EB0B094FF000024FF000034FEAFE
:10528000891343EA98634FEA8812B2EB080463EB90
:1052900009054FF000024FF00003EB0043EA54739E
:1052A000E20014461D4614EB0A033B6045EB0B037A
:1052B0007B604FF000024FF00003D7E9004529461C
:1052C0008B02214643EA915321468A021046194631
:1052D0007B6B0022BB60FA60D7E90223FBF7DCFCA2
:1052E00002460B461346FB630B4B5B681B0C03F03B
:1052F000030301335B003B63FA6B3B6BB2FBF3F3DD
:10530000BB6302E0054BBB6300BFBB6B1846403775
:10531000BD46BDE8B08F00BF003802400024F40055
:1053200040787D0180B400AF034B1B681846BD4632
:105330005DF8047B704700BF0000002080B500AF1F
:10534000FFF7F0FF0246054B9B689B0A03F007033B
:105350000349CB5C22FA03F3184680BD00380240B3
:105360000007010880B500AFFFF7DCFF0246054BE0
:105370009B685B0B03F007030349CB5C22FA03F342
:10538000184680BD003802400007010880B483B091
:1053900000AF786039607B680F221A60124B9B68FF
:1053A00003F003027B685A600F4B9B6803F0F00226
:1053B0007B689A600C4B9B6803F4E0527B68DA6070
:1053C000094B9B68DB0803F4E0527B681A61074BCA
:1053D0001B6803F007023B681A6000BF0C37BD462C
:1053E0005DF8047B704700BF00380240003C02407B
:1053F00080B582B000AF78607B68002B01D10123BB
:1054000041E07B6893F83D30DBB2002B06D17B682E
:10541000002283F83C207868FCF746FD7B68022276
:1054200083F83D207B681A687B6804331946104670
:1054300000F08CFB7B68012283F846207B68012208
:1054400083F83E207B68012283F83F207B6801229D
:1054500083F840207B68012283F841207B68012289
:1054600083F842207B68012283F843207B68012275
:1054700083F844207B68012283F845207B68012261
:1054800083F83D20002318460837BD4680BD000044
:1054900080B485B000AF78607B6893F83D30DBB2B4
:1054A000012B01D0012344E07B68022283F83D20D8
:1054B0007B681B68DA687B681B6842F00102DA606F
:1054C0007B681B681E4A934218D07B681B68B3F147
:1054D000804F13D07B681B681A4A93420ED07B68BA
:1054E0001B68194A934209D07B681B68174A93428C
:1054F00004D07B681B68164A934211D17B681B68F5
:105500009B6803F00703FB60FB68062B10D07B68E9
:105510001B681A687B681B6842F001021A6007E08A
:105520007B681B681A687B681B6842F001021A607E
:10553000002318461437BD465DF8047B704700BF52
:10554000000001400004004000080040000C004042
:105550000040014080B582B000AF78607B68002BCE
:1055600001D1012341E07B6893F83D30DBB2002B91
:1055700006D17B68002283F83C20786800F039F877
:105580007B68022283F83D207B681A687B680433BD
:105590001946104600F0DAFA7B68012283F84620AB
:1055A0007B68012283F83E207B68012283F83F203C
:1055B0007B68012283F840207B68012283F8412028
:1055C0007B68012283F842207B68012283F8432014
:1055D0007B68012283F844207B68012283F8452000
:1055E0007B68012283F83D20002318460837BD461A
:1055F00080BD80B483B000AF786000BF0C37BD467B
:105600005DF8047B704780B584B000AF78607B683C
:105610001B68DB68FB607B681B681B69BB60BB6841
:1056200003F00203002B20D0FB6803F00203002BE1
:105630001BD07B681B686FF002021A617B68012235
:105640001A777B681B689B6903F00303002B03D068
:10565000786800F05CFA05E0786800F04EFA786847
:1056600000F05FFA7B6800221A77BB6803F004033E
:10567000002B20D0FB6803F00403002B1BD07B68B9
:105680001B686FF004021A617B6802221A777B683C
:105690001B689B6903F44073002B03D0786800F00B
:1056A00036FA05E0786800F028FA786800F039FAF0
:1056B0007B6800221A77BB6803F00803002B20D018
:1056C000FB6803F00803002B1BD07B681B686FF09E
:1056D00008021A617B6804221A777B681B68DB6901
:1056E00003F00303002B03D0786800F010FA05E004
:1056F000786800F002FA786800F013FA7B680022FC
:105700001A77BB6803F01003002B20D0FB6803F06E
:105710001003002B1BD07B681B686FF010021A610E
:105720007B6808221A777B681B68DB6903F4407387
:10573000002B03D0786800F0EAF905E0786800F003
:10574000DCF9786800F0EDF97B6800221A77BB6815
:1057500003F00103002B0CD0FB6803F00103002BC6
:1057600007D07B681B686FF001021A617868FCF74C
:10577000C9FABB6803F08003002B0CD0FB6803F070
:105780008003002B07D07B681B686FF080021A61D2
:10579000786800F005FDBB6803F04003002B0CD0D7
:1057A000FB6803F04003002B07D07B681B686FF099
:1057B00040021A61786800F0BEF9BB6803F020036C
:1057C000002B0CD0FB6803F02003002B07D07B6874
:1057D0001B686FF020021A61786800F0D7FC00BFE8
:1057E0001037BD4680BD000080B586B000AFF860C0
:1057F000B9607A600023FB75FB6893F83C30012B9D
:1058000001D10223AEE0FB68012283F83C207B68D3
:105810000C2B00F29F8001A252F823F0515800088F
:105820005559000855590008555900089158000865
:10583000555900085559000855590008D358000813
:1058400055590008555900085559000813590008C2
:10585000FB681B68B968184600F004FAFB681B680F
:105860009A69FB681B6842F008029A61FB681B6832
:105870009A69FB681B6822F004029A61FB681B6846
:105880009969BB681A69FB681B680A439A6164E0FE
:10589000FB681B68B968184600F04AFAFB681B6889
:1058A0009A69FB681B6842F400629A61FB681B6896
:1058B0009A69FB681B6822F480629A61FB681B6826
:1058C0009969BB681B691A02FB681B680A439A61E5
:1058D00043E0FB681B68B968184600F095FAFB685E
:1058E0001B68DA69FB681B6842F00802DA61FB6832
:1058F0001B68DA69FB681B6822F00402DA61FB6846
:105900001B68D969BB681A69FB681B680A43DA61BE
:1059100023E0FB681B68B968184600F0DFFAFB68F3
:105920001B68DA69FB681B6842F40062DA61FB6895
:105930001B68DA69FB681B6822F48062DA61FB6825
:105940001B68D969BB681B691A02FB681B680A439C
:10595000DA6102E00123FB7500BFFB68002283F8D7
:105960003C20FB7D18461837BD4680BD80B584B00D
:1059700000AF786039600023FB737B6893F83C309C
:10598000012B01D10223B4E07B68012283F83C2083
:105990007B68022283F83D207B681B689B68BB60A4
:1059A000BB6823F07703BB60BB6823F47F43BB6015
:1059B0007B681B68BA689A603B681B68B3F5005F38
:1059C0003ED0B3F5005F00F28780B3F5805F00F052
:1059D0008680B3F5805F7FD8702B1AD0702B7BD870
:1059E000602B50D0602B77D8502B3CD0502B73D8E5
:1059F000402B58D0402B6FD8302B64D0302B6BD835
:105A0000202B60D0202B67D8002B5CD0102B5AD0D5
:105A100062E07B6818683B6899683B685A683B6835
:105A2000DB6800F025FB7B681B689B68BB60BB687C
:105A300043F07703BB607B681B68BA689A604FE0ED
:105A40007B6818683B6899683B685A683B68DB6804
:105A500000F00EFB7B681B689A687B681B6842F449
:105A600080429A603CE07B6818683B6859683B68F4
:105A7000DB681A4600F082FA7B681B6850211846E2
:105A800000F0DBFA2CE07B6818683B6859683B68DB
:105A9000DB681A4600F0A1FA7B681B686021184693
:105AA00000F0CBFA1CE07B6818683B6859683B68DB
:105AB000DB681A4600F062FA7B681B6840211846D2
:105AC00000F0BBFA0CE07B681A683B681B6819465B
:105AD000104600F0B2FA03E00123FB7300E000BFC0
