:020000040800F2
:100000000000012059110008111000081710000805
:100010001D1000082310000829100008000000002F
:100020000000000000000000000000002F10000889
:100030003D100008000000004B1000085910000897
:10004000A9110008A9110008A9110008A9110008A8
:10005000A9110008A9110008A9110008A911000898
:10006000A9110008A9110008A9110008A911000888
:10007000A9110008A9110008A9110008A911000878
:10008000A9110008A9110008A9110008000000002A
:10009000000000000000000000000000A91100089E
:1000A000A9110008A9110008A9110008A911000848
:1000B0006510000879100008A9110008A9110008AE
:1000C000A9110008A9110008A9110008A911000828
:1000D000A9110008A9110008A911000800000000DA
:1000E000A9110008A9110008A911000800000000CA
:1000F000000000000000000000000000A91100083E
:1001000000000000A9110008A9110008A9110008A9
:1001100000000000000000000000000000000000DF
:10012000A91100088D100008A9110008A9110008E4
:10013000A9110008000000000000000000000000FD
:10014000000000000000000000000000A9110008ED
:10015000A9110008A1100008A9110008B510000895
:10016000A9110008A911000800000000000000000B
:10017000000000000000000000000000000000007F
:1001800000000000A91100080000000000000000AD
:04019000A9110008A9
:1001940010B5054C237833B9044B13B10448AFF3BD
:1001A40000800123237010BD6000002000000000C7
:1001B400444D000808B5034B1BB103490348AFF392
:1001C400008008BD0000000064000020444D0008C9
:1001D40053B94AB9002908BF00281CBF4FF0FF31AA
:1001E4004FF0FF3000F070B9ADF1080C6DE904CEAA
:1001F40000F006F8DDF804E0DDE9022304B07047FE
:100204002DE9F047089E0D4604460F46002B4AD1BF
:100214008A42944665D9B2FA82F343B102FA03FCE6
:10022400C3F120029F4020FA02F217439C404FEA98
:100234001C4E1FFA8CF5B7FBFEF1220C0EFB117756
:1002440042EA074201FB05F090420AD91CEB020284
:1002540001F1FF3780F01C81904240F2198102398C
:100264006244121AA4B2B2FBFEF00EFB102244EA5E
:10027400024400FB05F5A5420AD91CEB040400F175
:10028400FF3280F00781A54240F2048164440238C1
:1002940040EA0140641B00211EB1DC400023C6E992
:1002A4000043BDE8F0878B4208D9002E00F0ED80B2
:1002B4000021C6E900050846BDE8F087B3FA83F1DA
:1002C400002949D1AB4202D3824200F2F880841A59
:1002D40065EB030201201746002EE2D0C6E9004771
:1002E400DFE702B9FFDEB2FA82F3002B40F0908020
:1002F4008A1A4FEA1C471FFA8CFE0121B2FBF7F55C
:1003040007FB1520220C42EA00420EFB05F0904246
:1003140008D91CEB020205F1FF3802D2904200F228
:10032400CB804546121AA4B2B2FBF7F007FB1022A9
:1003340044EA02440EFB00FEA64508D91CEB040463
:1003440000F1FF3202D2A64500F2BB801046A4EBB6
:100354000E0440EA05409FE7C1F120078B4022FAD2
:1003640007FC4CEA030C05FA01F420FA07F3FD40FC
:100374004FEA1C492343B5FBF9F81FFA8CFE09FB2D
:1003840018551C0C44EA054408FB0EF5A54202FA74
:1003940001F200FA01F00BD91CEB040408F1FF3A56
:1003A40080F08880A54240F28580A8F10208644468
:1003B400641B9DB2B4FBF9F309FB134445EA0444FE
:1003C40003FB0EFEA64508D91CEB040403F1FF351C
:1003D4006CD2A6456AD9023B644443EA0843A3FBB2
:1003E4000295A4EB0E04AC42C846AE4656D353D095
:1003F40056B1B0EB080264EB0E0404FA07F7CA40E6
:10040400CC401743C6E9007418460021BDE8F087C4
:10041400C3F1200102FA03FC20FA01F225FA01F1EA
:100424009D402A434FEA1C471FFA8CFEB1FBF7F0AC
:1004340007FB1015110C41EA054100FB0EF58D4236
:1004440004FA03F408D91CEB010100F1FF382FD2A0
:100454008D422DD902386144491B92B2B1FBF7F5A4
:1004640007FB151142EA014205FB0EF1914208D93E
:100474001CEB020205F1FF3816D2914214D9023D59
:100484006244521A45EA004138E73146304608E7EB
:100494003946E6E61046FBE64845A9D2B9EB020820
:1004A40065EB0C0E013BA3E74546EAE72B4694E7D0
:1004B4004046D1E7D0467BE7023D624432E7084636
:1004C4000AE76444023842E7704700BF80B582B04F
:1004D40000AF7860054A7B68136000F045F9024676
:1004E4007B685A6000BF0837BD4680BD7C00002091
:1004F40080B584B000AF78600023FB737B68002B69
:1005040008D07B6818687B6808330122194603F019
:1005140049F901E00223FB73FB7B18461037BD4603
:1005240080BD80B588B000AF78600023BB61002334
:100534007B610123FB770023BB777B689B7C3B7348
:100544000CE0FA7FFB7F013B79680A44927C2033FC
:100554003B4403F8082CFB7F0133FB77FB7F7A686D
:1005640013441B7A412BECD107F11803184604F00D
:10057400F5F90346DBB27B73FB7F7A6813449B7CFB
:10058400BB730FE0FB7F5A1CBB7F79680A44927CE3
:1005940020333B4403F80C2CFB7F0133FB77BB7FF8
:1005A4000133BB77FB7F01337A6813449B7C452B73
:1005B400E8D107F11403184604F0D0F903469BB2BE
:1005C4003B827B685B6807F10C010622184600F049
:1005D4003DF900BF2037BD4680BD000080B582B024
:1005E40000AF7860164B1B780133DAB2144B1A70E3
:1005F400144B1A68124B1B78013B13441B7A452B8E
:100604000FD1104B1B6803F112020E4B1B68083309
:100614001946104604F032FB094B00221A7000F010
:10062400F3F9084B1A68064B1B780833134401226C
:100634001946786803F0B6F800BF0837BD4680BD98
:10064400800000207C00002080B500AF03F0CEFFC6
:1006540000BF80BD80B584B000AF78600023FB7319
:100664007B689B68184600F00DF90346002B0FD1F8
:100674007B689B68184600F08FF8B860B9687868A2
:1006840000F00DF8B86804F075F90523FB7301E078
:100694000223FB73FB7B18461037BD4680BD80B533
:1006A40084B000AF786039603B689B88B32B0DD968
:1006B4003B689B88B3F5B47F08D83B689B88DBB262
:1006C400C3F16803FB736C23BB7308E03B689B882E
:1006D400B32B04D83B689B88FB737223BB73FB7BEF
:1006E400092B10D83B685A787B681B68194610465A
:1006F40003F082FF3B685A787B685B6819461046B2
:1007040003F07AFF2CE0FB7BAA2B10D93B685A78C4
:100714007B681B681946104603F096FF3B685A78BD
:100724007B685B681946104603F08EFF18E0BB7BBC
:10073400722B09D13B6858787B681A687B685B68C0
:10074400F97B03F0F7FF0BE0BB7B6C2B08D13B6814
:1007540058787B681A687B685B68F97B03F09CFFB8
:1007640000BF1037BD4680BD80B582B000AF082001
:1007740004F0F8F803467B607B68002B01D100236A
:1007840006E07B6800221A607B6800225A607B685E
:1007940018460837BD4680BD80B584B000AF786088
:1007A400786800F06FF80346002B01D0002319E0AD
:1007B4007B681B68FB60FB689A687B681A60FB684F
:1007C4001B68BB607B681B68002B03D17B6800221D
:1007D4005A6003E07B681B6800225A60F86804F0E2
:1007E400C9F8BB6818461037BD4680BD80B584B0D3
:1007F40000AF786039600C2004F0B4F80346FB6065
:10080400FB68002B01D100231CE0FB683A681A60E6
:100814007B685A68FB685A60FB6800229A607B68B0
:100824005B68002B06D17B68FA681A607B68FA68FB
:100834005A6006E07B685B68FA689A607B68FA68CD
:100844005A60012318461037BD4680BD80B586B076
:1008540000AFF860B9601346FB71FB79184604F0E9
:1008640081F803467B61FB791A46B968786904F01C
:100874000DFA7969F868FFF7B9FF03461846183787
:10088400BD4680BD80B483B000AF78607B681B68D0
:10089400002B0CBF01230023DBB218460C37BD46E6
:1008A4005DF8047B7047000080B500AF00F07CFC6D
:1008B40000F012F80648FFF709FEFFF7C5FE0548E9
:1008C40001F0B8FF00F0ACF80148FFF711FEFEE7B5
:1008D40084000020B400002080B594B000AF07F17C
:1008E400200330220021184604F084F907F10C0398
:1008F40000221A605A609A60DA601A610023BB60B1
:10090400234B1B6C224A43F080531364204B1B6C13
:1009140003F08053BB60BB6800237B601D4B1B68E6
:1009240023F440431B4A43F400431360194B1B68F0
:1009340003F440437B607B6802233B620123FB6238
:1009440010233B630023BB6307F12003184601F027
:10095400C9FA0346002B01D000F080F80F23FB6096
:1009640000233B6100237B610023BB610023FB6107
:1009740007F10C030021184601F02CFD0346002B5F
:1009840001D000F06BF800BF5037BD4680BD00BFFA
:10099400003802400070004080B582B000AF78603B
:1009A400144B1B780133DAB2124B1A70124B1B78BA
:1009B400012B0DD0022B16D11048FFF7B2FD0E4BC0
:1009C40001221A700E4B1B6801330D4A13600DE0AF
:1009D400084B1B783C2B08D10A48FFF73BFE054B1C
:1009E40000221A7001E000BF00E000BF00BF08371A
:1009F400BD4680BDB000002000000020840000201F
:100A0400AC000020A000002080B400AF034B022201
:100A14001A7000BFBD465DF8047B704700000020DB
:100A240080B400AF084B094A1A60074B5B68084A58
:100A34009360074B074A1A60054B074A5A6000BF88
:100A4400BD465DF8047B704784000020440100200B
:100A5400A0000020540200206402002080B400AFF3
:100A640072B600BFFEE7000080B590B000AF00F0A2
:100A740051FA0023BB607E4B5B6C7D4A43F4804398
:100A840053647B4B5B6C03F48043BB60BB68002303
:100A94007B60774B1B6C764A43F080531364744B32
:100AA4001B6C03F080537B607B6807F130030022EA
:100AB4001A605A609A60DA6007F1280300221A600B
:100AC4005A606C4B4FF080421A606A4B0F225A6096
:100AD400684B00229A60674B4FF4FA62DA60654B08
:100AE40000221A61634B80229A61624801F052FE2F
:100AF4000346002B01D0FFF7B1FF4FF480533B6353
:100B040007F1300319465B4802F0B2F90346002BA3
:100B140001D0FFF7A3FF0023BB620023FB6207F1B0
:100B240028031946534802F06BFD0346002B01D0FD
:100B3400FFF794FF07F10C0300221A605A609A60D1
:100B4400DA601A615A619A614B4B4C4A1A604A4BFB
:100B54000F225A60484B00229A60474B3122DA60D8
:100B6400454B00221A61444B80229A61424801F0AD
:100B740011FE0346002B01D0FFF770FF4FF48053A2
:100B84003B6307F1300319463B4802F071F9034611
:100B9400002B01D0FFF762FF374801F0ADFE03469A
:100BA400002B01D0FFF75AFF0023BB620023FB6236
:100BB40007F128031946304802F022FD0346002BB2
:100BC40001D0FFF74BFF6023FB6018233B61002338
:100BD4007B610023FB6107F10C03002219462648C0
:100BE40002F084F80346002B01D0FFF737FF07F12A
:100BF4000C0304221946204802F078F80346002B1F
:100C040001D0FFF72BFF1E4B1E4A1A601C4B4FF4FA
:100C140016525A601A4B00229A60194B0022DA606D
:100C2400174B00221A61164B0C225A61144B0022F6
:100C34009A61134B0022DA61114802F063FD034606
:100C4400002B01D0FFF70AFF00220021392000F019
:100C5400F8FB392000F011FC00220021452000F0AF
:100C6400F0FB452000F009FC00BF4037BD4680BDC5
:100C740000380240B4000020FC00002000040040C2
:100C8400440100200014014080B584B000AF7860B6
:100C94007B681B68B3F1804F16D10023FB601B4BAC
:100CA4001B6C1A4A43F001031364184B1B6C03F0CA
:100CB4000103FB60FB68002200211C2000F0C1FB43
:100CC4001C2000F0DAFB1DE07B681B68104A93428D
:100CD40018D10023BB600D4B1B6C0C4A43F002037C
:100CE40013640A4B1B6C03F00203BB60BB68002255
:100CF40000211D2000F0A5FB1D2000F0BEFB0548CF
:100D040000F00AF800BF1037BD4680BD003802402D
:100D140000040040FC00002080B588B000AF78607B
:100D240007F10C0300221A605A609A60DA601A61B3
:100D34007B681B68124A93421DD10023BB60114B90
:100D44001B6B104A43F0020313630E4B1B6B03F03F
:100D54000203BB60BB683023FB6002233B610023BA
:100D64007B610023BB610223FB6107F10C0319467D
:100D7400054800F019FF00BF2037BD4680BD00BF05
:100D840000040040003802400004024080B58AB0EC
:100D940000AF786007F1140300221A605A609A6069
:100DA400DA601A617B681B68534A934240F09F8063
:100DB40000233B61514B1B6B504A43F48003136384
:100DC4004E4B1B6B03F480033B613B690023FB60C8
:100DD4004A4B5B6C494A43F020035364474B5B6CBA
:100DE40003F02003FB60FB680023BB60434B1B6BD9
:100DF400424A43F001031363404B1B6B03F00103AE
:100E0400BB60BB684FF4C0537B610223BB6100230A
:100E1400FB6103233B6208237B6207F11403194639
:100E2400374800F0C1FE374B374A1A60354B4FF054
:100E340020625A60334B40229A60324B0022DA60BF
:100E4400304B4FF480621A612E4B00225A612D4BB5
:100E540000229A612B4B0022DA612A4B00221A628B
:100E6400284B00225A62274800F022FB0346002B3D
:100E740001D0FFF7F3FD7B68224A9A63214A7B681D
:100E84009363224B224A1A60204B4FF020625A602F
:100E94001E4B00229A601D4B0022DA601B4B4FF45C
:100EA40080621A61194B00225A61184B00229A6120
:100EB400164B0022DA61154B00221A62134B0022F2
:100EC4005A62124800F0F4FA0346002B01D0FFF7EF
:100ED400C5FD7B680D4ADA630C4A7B689363002284
:100EE4000021472000F0ADFA472000F0C6FA00BF09
:100EF4002837BD4680BD00BF0014014000380240C1
:100F0400000002408C010020A0640240EC0100209B
:100F14002864024080B588B000AF0023BB60284B32
:100F24001B6B274A43F002031363254B1B6B03F02F
:100F34000203BB60BB6800237B60214B1B6B204A10
:100F440043F0040313631E4B1B6B03F004037B6029
:100F54007B6807F10C0300221A605A609A60DA6019
:100F64001A610223FB6001233B6100237B610023A0
:100F7400BB6107F10C031946124800F015FE042367
:100F8400FB6001233B6100237B610023BB6107F10C
:100F94000C0319460B4800F007FE4FF40053FB60A6
:100FA40001233B6100237B610023BB6107F10C0338
:100FB4001946054800F0F8FD00BF2037BD4680BD46
:100FC40000380240000402400008024080B582B0AC
:100FD40000AF78607B681B68094A93420CD07B6839
:100FE4001B68084A934207D07B681B68064A9342F1
:100FF40002D17868FFF7F2FA00BF0837BD4680BD1A
:1010040000100140004400400014014080B400AFCF
:10101400FEE780B400AFFEE780B400AFFEE780B423
:1010240000AFFEE780B400AFFEE780B400AF00BFBE
:10103400BD465DF8047B704780B400AF00BFBD4679
:101044005DF8047B704780B400AF00BFBD465DF817
:10105400047B704780B500AF00F0F8F800BF80BD96
:1010640080B500AF024801F051FD00BF80BD00BF54
:10107400B400002080B500AF024801F047FD00BF76
:1010840080BD00BFFC00002080B500AF024800F026
:101094004FFB00BF80BD00BFEC01002080B500AF56
:1010A400024800F045FB00BF80BD00BF8C0100205A
:1010B40080B500AF024802F09BFB00BF80BD00BFBB
:1010C4004401002080B586B000AF7860144A154B07
:1010D400D31A7B617B693B61134B1B68002B02D1E4
:1010E400114B124A1A60104B1A687B6813443A6910
:1010F4009A4207D203F096FD03460C221A604FF081
:10110400FF3309E0084B1B68FB60074B1A687B68D8
:101114001344054A1360FB6818461837BD4680BD62
:1011240000000120000400004C020020C003002045
:1011340080B400AF064BD3F88830054A43F47003FB
:10114400C2F8883000BFBD465DF8047B704700BF1D
:1011540000ED00E0DFF834D0FFF7EAFF0C480D495A
:101164000D4A002302E0D458C4500433C4188C42FE
:10117400F9D30A4A0A4C002301E013600432A24264
:10118400FBD303F055FDFFF78FFB704700000120F0
:101194000000002060000020904E00086000002045
:1011A400BC030020FEE7000080B500AF0E4B1B68B7
:1011B4000D4A43F4007313600B4B1B680A4A43F453
:1011C40080631360084B1B68074A43F48073136001
:1011D400032000F02BF90F2000F008F8FFF744FC7F
:1011E4000023184680BD00BF003C024080B582B099
:1011F40000AF7860124B1A68124B1B7819464FF4F3
:101204007A73B3FBF1F3B2FBF3F3184600F043F93E
:101214000346002B01D001230EE07B680F2B0AD874
:10122400002279684FF0FF3000F00BF9064A7B6822
:101234001360002300E0012318460837BD4680BD33
:10124400040000200C0000200800002080B400AF3F
:10125400064B1B781A46064B1B681344044A13605A
:1012640000BFBD465DF8047B704700BF0C00002042
:101274005002002080B400AF034B1B681846BD46E3
:101284005DF8047B704700BF5002002080B485B035
:1012940000AF78607B6803F00703FB600C4BDB68EE
:1012A400BB60BA684FF6FF031340BB60FB681A02C9
:1012B400BB68134343F0BF6343F40033BB60044A89
:1012C400BB68D36000BF1437BD465DF8047B70472C
:1012D40000ED00E080B400AF044BDB681B0A03F0B0
:1012E40007031846BD465DF8047B704700ED00E037
:1012F40080B483B000AF0346FB7197F90730002B2D
:101304000BDBFB7903F01F02074997F907305B09F0
:10131400012000FA02F241F8232000BF0C37BD4639
:101324005DF8047B704700BF00E100E080B483B047
:1013340000AF03463960FB7197F90730002B0ADBD5
:101344003B68DAB20C4997F907301201D2B20B4468
:1013540083F800230AE03B68DAB20849FB7903F01A
:101364000F03043B1201D2B20B441A7600BF0C37B0
:10137400BD465DF8047B704700E100E000ED00E04D
:1013840080B489B000AFF860B9607A60FB6803F09C
:101394000703FB61FB69C3F10703042B28BF042384
:1013A400BB61FB690433062B02D9FB69033B00E0F4
:1013B40000237B614FF0FF32BB6902FA03F3DA4387
:1013C400BB681A407B699A404FF0FF317B6901FA90
:1013D40003F3D9437B680B40134318462437BD46B7
:1013E4005DF8047B7047000080B582B000AF786080
:1013F4007B68013BB3F1807F01D301230FE00A4AEC
:101404007B68013B53600F214FF0FF30FFF78EFFE5
:10141400054B00229A60044B07221A6000231846E9
:101424000837BD4680BD00BF10E000E080B582B043
:1014340000AF78607868FFF729FF00BF0837BD4622
:1014440080BD80B586B000AF0346B9607A60FB7397
:1014540000237B61FFF73EFF78617A68B968786999
:10146400FFF78EFF024697F90F3011461846FFF733
:101474005DFF00BF1837BD4680BD80B582B000AFA8
:101484000346FB7197F907301846FFF731FF00BF99
:101494000837BD4680BD80B582B000AF78607868FB
:1014A400FFF7A2FF034618460837BD4680BD00007B
:1014B40080B586B000AF786000237B61FFF7DAFE69
:1014C40038617B68002B01D1012399E07B680222FB
:1014D40083F835207B68002283F834207B681B68FE
:1014E4001A687B681B6822F001021A600FE0FFF79C
:1014F400C1FE02463B69D31A052B08D97B6820221A
:101504005A657B68032283F83520032378E07B68DF
:101514001B681B6803F00103002BE8D17B681B6880
:101524001B687B617A69384B13407B617B685A681E
:101534007B689B681A437B68DB681A437B681B697A
:101544001A437B685B691A437B689B691A437B680F
:10155400DB691A437B681B6A13437A6913437B6113
:101564007B685B6A042B07D17B68DA6A7B681B6B38
:1015740013437A6913437B617B681B687A691A6039
:101584007B681B685B697B617B6923F007037B6174
:101594007B685B6A7A6913437B617B685B6A042BB3
:1015A40017D17B689B6A7A6913437B617B68DB6A2A
:1015B400002B0ED0786800F07BFA0346002B08D08D
:1015C4007B6840225A657B68012283F83520012319
:1015D40016E07B681B687A695A61786800F032FA11
:1015E4000346FB607B68DB6D3F229A40FB689A6090
:1015F4007B6800225A657B68012283F8352000232A
:1016040018461837BD4680BD3F8010F080B584B0C1
:1016140000AF78607B689B6DFB60FFF72BFEB860C2
:101624007B6893F83530DBB2022B08D07B688022CC
:101634005A657B68002283F83420012352E07B68DA
:101644001B681A687B681B6822F016021A607B68A4
:101654001B685A697B681B6822F080025A617B68A8
:101664001B6C002B03D17B689B6C002B07D07B6821
:101674001B681A687B681B6822F008021A607B6882
:101684001B681A687B681B6822F001021A6013E069
:10169400FFF7F0FD0246BB68D31A052B0CD97B6813
:1016A40020225A657B68032283F835207B68002258
:1016B40083F83420032315E07B681B681B6803F060
:1016C4000103002BE4D17B68DB6D3F229A40FB6869
:1016D4009A607B68012283F835207B68002283F8B6
:1016E4003420002318461037BD4680BD80B483B033
:1016F40000AF78607B6893F83530DBB2022B04D0FE
:101704007B6880225A6501230CE07B68052283F8FC
:1017140035207B681B681A687B681B6822F001020D
:101724001A60002318460C37BD465DF8047B7047E9
:1017340080B586B000AF78600023BB608E4B1B6819
:101744008E4AA2FB03239B0A7B617B689B6D3B61F2
:101754003B691B68FB607B68DB6D08229A40FB6871
:101764001340002B1AD07B681B681B6803F004032A
:10177400002B13D07B681B681A687B681B6822F0F7
:1017840004021A607B68DB6D08229A403B699A6008
:101794007B685B6D43F001027B685A657B68DB6D97
:1017A40001229A40FB681340002B12D07B681B680F
:1017B4005B6903F08003002B0BD07B68DB6D012297
:1017C4009A403B699A607B685B6D43F002027B68D8
:1017D4005A657B68DB6D04229A40FB681340002B3A
:1017E40012D07B681B681B6803F00203002B0BD02C
:1017F4007B68DB6D04229A403B699A607B685B6D71
:1018040043F004027B685A657B68DB6D10229A40C2
:10181400FB681340002B43D07B681B681B6803F0F4
:101824000803002B3CD07B68DB6D10229A403B6997
:101834009A607B681B681B6803F48023002B18D014
:101844007B681B681B6803F40023002B08D17B68AA
:101854001B6C002B24D07B681B6C786898471FE0B6
:101864007B689B6C002B1BD07B689B6C78689847CB
:1018740016E07B681B681B6803F48073002B07D198
:101884007B681B681A687B681B6822F008021A6070
:101894007B681B6C002B03D07B681B6C78689847B3
:1018A4007B68DB6D20229A40FB681340002B00F01C
:1018B4008F807B681B681B6803F01003002B00F00B
:1018C40087807B68DB6D20229A403B699A607B6845
:1018D40093F83530DBB2052B36D17B681B681A6868
:1018E4007B681B6822F016021A607B681B685A69C1
:1018F4007B681B6822F080025A617B681B6C002B9A
:1019040003D17B689B6C002B07D07B681B681A682B
:101914007B681B6822F008021A607B68DB6D3F223B
:101924009A403B699A607B68012283F835207B6882
:10193400002283F834207B681B6D002B7ED07B68EB
:101944001B6D7868984779E07B681B681B6803F413
:101954008023002B1DD07B681B681B6803F40023C5
:10196400002B0DD17B685B6C002B31D07B685B6CEA
:10197400786898472CE000BF04000020B5814E1B16
:101984007B68DB6B002B23D07B68DB6B7868984724
:101994001EE07B681B681B6803F48073002B0FD167
:1019A4007B681B681A687B681B6822F010021A6047
:1019B4007B68012283F835207B68002283F8342079
:1019C4007B68DB6B002B03D07B68DB6B7868984704
:1019D4007B685B6D002B32D07B685B6D03F0010389
:1019E400002B22D07B68052283F835207B681B6896
:1019F4001A687B681B6822F001021A60BB68013315
:101A0400BB607A699A4207D37B681B681B6803F042
:101A14000103002BF2D100E000BF7B68012283F8B0
:101A240035207B68002283F834207B68DB6C002B34
:101A340005D07B68DB6C7868984700E000BF1837F6
:101A4400BD4680BD80B485B000AF78607B681B68FC
:101A5400DBB2103B144AA2FB03231B09FB60134AAD
:101A6400FB6813441B781A467B68DA65FB68032B12
:101A740009D97B681B6823F47F7323F003031A1DC1
:101A84007B689A6507E07B681B6823F47F7323F007
:101A940003037A6893657B689B6D18461437BD46CB
:101AA4005DF8047B704700BFABAAAAAA744D000876
:101AB40080B485B000AF78600023FB737B689B6AB9
:101AC400BB607B689B69002B1FD1BB68032B56D876
:101AD40001A252F823F000BFED1A0008FF1A000813
:101AE400ED1A0008831B00087B68DB6A03F080732F
:101AF400002B46D00123FB7343E07B68DB6AB3F120
:101B0400C07F40D10123FB733DE07B689B69B3F543
:101B1400005F21D1BB68032B37D801A252F823F010
:101B2400351B00083B1B0008351B00084D1B000833
:101B34000123FB7330E07B68DB6A03F08073002BC6
:101B440025D00123FB7322E07B68DB6AB3F1C07FFD
:101B54001FD10123FB731CE0BB68022B03D9BB68B4
:101B6400032B03D018E00123FB7315E07B68DB6AC9
:101B740003F08073002B0ED00123FB730BE000BF36
:101B84000AE000BF08E000BF06E000BF04E000BFB9
:101B940002E000BF00E000BFFB7B18461437BD46DF
:101BA4005DF8047B704700BF80B489B000AF7860F3
:101BB400396000237B6100233B610023BB61002368
:101BC400FB6159E10122FB6902FA03F37B613B6883
:101BD4001B687A6913403B613A697B699A4240F019
:101BE40048813B685B6803F00303012B05D03B6825
:101BF4005B6803F00303022B30D17B689B68BB61F5
:101C0400FB695B00032202FA03F3DB43BA69134066
:101C1400BB613B68DA68FB695B0002FA03F3BA69EB
:101C24001343BB617B68BA699A607B685B68BB617C
:101C34000122FB6902FA03F3DB43BA691340BB6177
:101C44003B685B681B0903F00102FB6902FA03F3BA
:101C5400BA691343BB617B68BA695A603B685B68C5
:101C640003F00303032B17D07B68DB68BB61FB69BC
:101C74005B00032202FA03F3DB43BA691340BB613E
:101C84003B689A68FB695B0002FA03F3BA69134381
:101C9400BB617B68BA69DA603B685B6803F0030385
:101CA400022B23D1FB69DA087B68083253F822300F
:101CB400BB61FB6903F007039B000F2202FA03F3E5
:101CC400DB43BA691340BB613B681A69FB6903F0E3
:101CD40007039B0002FA03F3BA691343BB61FB6970
:101CE400DA087B680832B96943F822107B681B68FC
:101CF400BB61FB695B00032202FA03F3DB43BA69AD
:101D04001340BB613B685B6803F00302FB695B0043
:101D140002FA03F3BA691343BB617B68BA691A60B8
:101D24003B685B6803F44033002B00F0A28000237F
:101D3400FB60574B5B6C564A43F480435364544BEB
:101D44005B6C03F48043FB60FB68524AFB699B08AD
:101D5400023352F82330BB61FB6903F003039B0099
:101D64000F2202FA03F3DB43BA691340BB617B68B9
:101D7400494A934219D07B68484A934213D07B68FE
:101D8400474A93420DD07B68464A934207D07B680A
:101D9400454A934201D1042308E0072306E00323C4
:101DA40004E0022302E0012300E00023FA6902F0C8
:101DB400030292009340BA691343BB613549FB693E
:101DC4009B080233BA6941F82320384B9B68BB61F6
:101DD4003B69DB43BA691340BB613B685B6803F44E
:101DE4008013002B03D0BA693B691343BB612F4AAC
:101DF400BB6993602D4BDB68BB613B69DB43BA690C
:101E04001340BB613B685B6803F40013002B03D0F1
:101E1400BA693B691343BB61244ABB69D360234B52
:101E24005B68BB613B69DB43BA691340BB613B68D8
:101E34005B6803F40033002B03D0BA693B69134396
:101E4400BB611A4ABB695360184B1B68BB613B6991
:101E5400DB43BA691340BB613B685B6803F48033BE
:101E6400002B03D0BA693B691343BB610F4ABB69BA
:101E74001360FB690133FB61FB690F2B7FF6A2AE94
:101E840000BF00BF2437BD465DF8047B704700BF28
:101E940000380240003801400000024000040240C3
:101EA40000080240000C024000100240003C0140C7
:101EB40080B483B000AF78600B467B8013467B70A0
:101EC4007B78002B03D07A887B689A6103E07B8857
:101ED4001A047B689A6100BF0C37BD465DF8047B29
:101EE4007047000080B586B000AF78607B68002B37
:101EF40001D1012367E27B681B6803F00103002B17
:101F040075D0884B9B6803F00C03042B0CD0854BD5
:101F14009B6803F00C03082B12D1824B5B6803F41B
:101F24008003B3F5800F0BD17E4B1B6803F40033A1
:101F3400002B5BD07B685B68002B57D1012342E206
:101F44007B685B68B3F5803F06D1764B1B68754AA6
:101F540043F4803313601DE07B685B68B3F5A02F06
:101F64000CD1704B1B686F4A43F4802313606D4B94
:101F74001B686C4A43F4803313600BE0694B1B68A5
:101F8400684A23F480331360664B1B68654A23F464
:101F9400802313607B685B68002B13D0FFF76AF91A
:101FA400386108E0FFF766F902463B69D31A642BEF
:101FB40001D9032307E25B4B1B6803F40033002BB6
:101FC400F0D014E0FFF756F9386108E0FFF752F952
:101FD40002463B69D31A642B01D90323F3E1514B25
:101FE4001B6803F40033002BF0D100E000BF7B68D2
:101FF4001B6803F00203002B63D04A4B9B6803F079
:102004000C03002B0BD0474B9B6803F00C03082BED
:102014001CD1444B5B6803F48003002B16D1414B65
:102024001B6803F00203002B05D07B68DB68012BDF
:1020340001D00123C7E13B4B1B6823F0F8027B6806
:102044001B69DB00374913430B603AE07B68DB68AC
:10205400002B20D0344B01221A60FFF70BF93861B2
:1020640008E0FFF707F902463B69D31A022B01D9AE
:102074000323A8E12B4B1B6803F00203002BF0D0D1
:10208400284B1B6823F0F8027B681B69DB00254999
:1020940013430B6015E0244B00221A60FFF7EAF8A3
:1020A400386108E0FFF7E6F802463B69D31A022BD1
:1020B40001D9032387E11B4B1B6803F00203002BA8
:1020C400F0D17B681B6803F00803002B36D07B68D3
:1020D4005B69002B16D0154B01221A60FFF7CAF872
:1020E400386108E0FFF7C6F802463B69D31A022BB1
:1020F40001D9032367E10B4B5B6F03F00203002B51
:10210400F0D01BE0094B00221A60FFF7B3F83861E6
:102114000EE0FFF7AFF802463B69D31A022B07D94A
:10212400032350E10038024000004742800E47423A
:10213400884B5B6F03F00203002BEAD17B681B68BA
:1021440003F00403002B00F097800023FB75814B00
:102154001B6C03F08053002B0FD10023BB607D4B1D
:102164001B6C7C4A43F0805313647A4B1B6C03F062
:102174008053BB60BB680123FB75774B1B6803F47A
:102184008073002B18D1744B1B68734A43F480731B
:102194001360FFF76FF8386108E0FFF76BF8024649
:1021A4003B69D31A022B01D903230CE16A4B1B6848
:1021B40003F48073002BF0D07B689B68012B06D15D
:1021C400644B1B6F634A43F0010313671CE07B6895
:1021D4009B68052B0CD15F4B1B6F5E4A43F00403D5
:1021E40013675C4B1B6F5B4A43F0010313670BE0FF
:1021F400584B1B6F574A23F001031367554B1B6F52
:10220400544A23F0040313677B689B68002B15D0A2
:10221400FFF730F838610AE0FFF72CF802463B6913
:10222400D31A41F28832934201D90323CBE0494BBC
:102234001B6F03F00203002BEED014E0FFF71AF833
:1022440038610AE0FFF716F802463B69D31A41F2F7
:102254008832934201D90323B5E03E4B1B6F03F050
:102264000203002BEED1FB7D012B05D1394B1B6CF6
:10227400384A23F0805313647B689B69002B00F079
:10228400A180344B9B6803F00C03082B5CD07B6863
:102294009B69022B41D1314B00221A60FEF7EAFF01
:1022A400386108E0FEF7E6FF02463B69D31A022BC9
:1022B40001D9032387E0274B1B6803F00073002B2D
:1022C400F0D17B68DA697B681B6A1A437B685B6AB6
:1022D4009B011A437B689B6A5B08013B1B041A43FE
:1022E4007B68DB6A1B061B4913434B601B4B0122B3
:1022F4001A60FEF7BFFF386108E0FEF7BBFF024635
:102304003B69D31A022B01D903235CE0114B1B68F0
:1023140003F00073002BF0D054E0104B00221A603D
:10232400FEF7A8FF386108E0FEF7A4FF02463B6908
:10233400D31A022B01D9032345E0064B1B6803F093
:102344000073002BF0D13DE07B689B69012B07D122
:10235400012338E00038024000700040600047422A
:102364001B4B5B68FB607B689B69012B28D0FB6877
:1023740003F480027B68DB699A4221D1FB6803F095
:102384003F027B681B6A9A421AD1FA6847F6C07307
:1023940013407A68526A9201934211D1FB6803F4A4
:1023A40040327B689B6A5B08013B1B049A4207D15D
:1023B400FB6803F070627B68DB6A1B069A4201D0FB
:1023C400012300E0002318461837BD4680BD00BF36
:1023D4000038024080B584B000AF786039607B6813
:1023E400002B01D10123CCE0684B1B6803F00703E9
:1023F4003A689A420CD9654B3A68D2B21A70634B68
:102404001B6803F007033A689A4201D00123B8E03D
:102414007B681B6803F00203002B20D07B681B68D9
:1024240003F00403002B05D0594B9B68584A43F42E
:10243400E05393607B681B6803F00803002B05D00E
:10244400534B9B68524A43F460439360504B9B68E0
:1024540023F0F0027B689B684D4913438B607B68D3
:102464001B6803F00103002B44D07B685B68012BDD
:1024740007D1474B1B6803F40033002B19D1012308
:102484007FE07B685B68022B03D07B685B68032B6F
:1024940007D13F4B1B6803F00073002B09D10123C4
:1024A4006FE03B4B1B6803F00203002B01D10123B7
:1024B40067E0374B9B6823F003027B685B68344911
:1024C40013438B60FEF7D6FEF8600AE0FEF7D2FEF7
:1024D4000246FB68D31A41F28832934201D903239E
:1024E4004FE02B4B9B6803F00C027B685B689B00FE
:1024F4009A42EBD1254B1B6803F007033A689A42D2
:102504000CD2224B3A68D2B21A70204B1B6803F0EB
:1025140007033A689A4201D0012332E07B681B68C2
:1025240003F00403002B08D0194B9B6823F4E052FA
:102534007B68DB68164913438B607B681B6803F078
:102544000803002B09D0124B9B6823F460427B687C
:102554001B69DB000E4913438B6000F021F802462F
:102564000B4B9B681B0903F00F030A49CB5C22FA4F
:1025740003F3094A1360094B1B681846FEF736FE3D
:10258400002318461037BD4680BD00BF003C024002
:10259400003802405C4D00080400002008000020C0
:1025A4002DE9B04F90B000AF00237B630023FB63A1
:1025B40000233B630023BB63594B9B6803F00C036C
:1025C400082B0DD0082B00F2A180002B02D0042B85
:1025D40003D09BE0534BBB639BE0534BBB6398E03E
:1025E4004F4B5B6803F03F037B634D4B5B6803F425
:1025F4008003002B28D04A4B5B689B0900223B6276
:102604007A623B6AC3F308000021474B03FB01F2E3
:10261400002300FB03F31344434AA0FB0212FA62B3
:102624000A46BA62FA6A1344FB627B6B0022BB61FE
:10263400FA61D7E90623D7E90A01FDF7C9FD024685
:102644000B461346FB6353E0354B5B689B09002242
:102654003B617A613B69C3F3080A4FF0000B5246B1
:102664005B464FF000004FF00001590141EAD2618E
:10267400500102460B46B2EB0A0863EB0B094FF01C
:1026840000024FF000034FEA891343EA98634FEACC
:102694008812B2EB080463EB09054FF000024FF017
:1026A4000003EB0043EA5473E20014461D4614EBA6
:1026B4000A033B6045EB0B037B604FF000024FF0D5
:1026C4000003D7E9004529468B02214643EA91538A
:1026D40021468A02104619467B6B0022BB60FA60D1
:1026E400D7E90223FDF774FD02460B461346FB634C
:1026F4000B4B5B681B0C03F0030301335B003B6370
:10270400FA6B3B6BB2FBF3F3BB6302E0054BBB63B9
:1027140000BFBB6B18464037BD46BDE8B08F00BF55
:10272400003802400024F40040787D0180B400AFFA
:10273400034B1B681846BD465DF8047B704700BF19
:102744000400002080B500AFFFF7F0FF0246054B00
:102754009B689B0A03F007030349CB5C22FA03F34B
:10276400184680BD003802406C4D000880B500AFAB
:10277400FFF7DCFF0246054B9B685B0B03F0070386
:102784000349CB5C22FA03F3184680BD00380240AB
:102794006C4D000880B582B000AF78607B68002B78
:1027A40001D1012341E07B6893F83D30DBB2002B7B
:1027B40006D17B68002283F83C207868FEF764FA2F
:1027C4007B68022283F83D207B681A687B680433A7
:1027D4001946104600F03CFC7B68012283F8462031
:1027E4007B68012283F83E207B68012283F83F2026
:1027F4007B68012283F840207B68012283F8412012
:102804007B68012283F842207B68012283F84320FD
:102814007B68012283F844207B68012283F84520E9
:102824007B68012283F83D20002318460837BD4603
:1028340080BD000080B485B000AF78607B6893F8F9
:102844003D30DBB2012B01D0012344E07B6802223E
:1028540083F83D207B681B68DA687B681B6842F05C
:102864000102DA607B681B681E4A934218D07B68B9
:102874001B68B3F1804F13D07B681B681A4A9342DC
:102884000ED07B681B68194A934209D07B681B6889
:10289400174A934204D07B681B68164A934211D1AD
:1028A4007B681B689B6803F00703FB60FB68062BCF
:1028B40010D07B681B681A687B681B6842F00102B1
:1028C4001A6007E07B681B681A687B681B6842F023
:1028D40001021A60002318461437BD465DF8047BD4
:1028E400704700BF000001400004004000080040A1
:1028F400000C00400040014080B582B000AF786019
:102904007B68002B01D1012341E07B6893F83D30C3
:10291400DBB2002B06D17B68002283F83C20786868
:1029240000F039F87B68022283F83D207B681A683E
:102934007B6804331946104600F08AFB7B68012249
:1029440083F846207B68012283F83E207B680122BD
:1029540083F83F207B68012283F840207B680122B2
:1029640083F841207B68012283F842207B6801229E
:1029740083F843207B68012283F844207B6801228A
:1029840083F845207B68012283F83D200023184604
:102994000837BD4680BD80B483B000AF786000BF07
:1029A4000C37BD465DF8047B7047000080B584B0E9
:1029B40000AF786039603B68002B09D17B6893F8DD
:1029C4003E30DBB2012B14BF01230023DBB222E033
:1029D4003B68042B09D17B6893F83F30DBB2012BB1
:1029E40014BF01230023DBB215E03B68082B09D197
:1029F4007B6893F84030DBB2012B14BF0123002322
:102A0400DBB208E07B6893F84130DBB2012B14BFE2
:102A140001230023DBB2002B01D0012368E03B68D3
:102A2400002B04D17B68022283F83E2013E03B682C
:102A3400042B04D17B68022283F83F200BE03B681F
:102A4400082B04D17B68022283F8402003E07B68D2
:102A5400022283F841207B681B68012239681846EA
:102A640000F0A8FD7B681B68234A934207D17B686A
:102A74001B685A6C7B681B6842F400425A647B688A
:102A84001B681D4A934218D07B681B68B3F1804FC2
:102A940013D07B681B68194A93420ED07B681B686D
:102AA400174A934209D07B681B68164A934204D0A4
:102AB4007B681B68144A934211D17B681B689B682E
:102AC40003F00703FB60FB68062B10D07B681B68D0
:102AD4001A687B681B6842F001021A6007E07B6891
:102AE4001B681A687B681B6842F001021A600023A5
:102AF40018461037BD4680BD000001400004004068
:102B040000080040000C00400040014080B584B043
:102B140000AF78607B681B68DB68FB607B681B68C0
:102B24001B69BB60BB6803F00203002B20D0FB6869
:102B340003F00203002B1BD07B681B686FF00202BA
:102B44001A617B6801221A777B681B689B6903F012
:102B54000303002B03D0786800F05BFA05E0786883
:102B640000F04DFA786800F05EFA7B6800221A776C
:102B7400BB6803F00403002B20D0FB6803F00403BC
:102B8400002B1BD07B681B686FF004021A617B6802
:102B940002221A777B681B689B6903F44073002B3D
:102BA40003D0786800F035FA05E0786800F027FA79
:102BB400786800F038FA7B6800221A77BB6803F063
:102BC4000803002B20D0FB6803F00803002B1BD064
:102BD4007B681B686FF008021A617B6804221A770D
:102BE4007B681B68DB6903F00303002B03D0786860
:102BF40000F00FFA05E0786800F001FA786800F058
:102C040012FA7B6800221A77BB6803F01003002BCA
:102C140020D0FB6803F01003002B1BD07B681B68DB
:102C24006FF010021A617B6808221A777B681B68B0
:102C3400DB6903F44073002B03D0786800F0E9F9F2
:102C440005E0786800F0DBF9786800F0ECF97B685F
:102C540000221A77BB6803F00103002B0CD0FB6839
:102C640003F00103002B07D07B681B686FF001029F
:102C74001A617868FDF790FEBB6803F08003002BAF
:102C84000CD0FB6803F08003002B07D07B681B6823
:102C94006FF080021A61786800F02AFDBB6803F0C7
:102CA4004003002B0CD0FB6803F04003002B07D03B
:102CB4007B681B686FF040021A61786800F0BDF908
:102CC400BB6803F02003002B0CD0FB6803F0200347
:102CD400002B07D07B681B686FF020021A617868AC
:102CE40000F0FCFC00BF1037BD4680BD80B586B047
:102CF40000AFF860B9607A600023FB75FB6893F855
:102D04003C30012B01D10223AEE0FB68012283F8A1
:102D14003C207B680C2B00F29F8001A252F823F028
:102D2400592D00085D2E00085D2E00085D2E000858
:102D3400992D00085D2E00085D2E00085D2E000808
:102D4400DB2D00085D2E00085D2E00085D2E0008B6
:102D54001B2E0008FB681B68B968184600F004FACB
:102D6400FB681B689A69FB681B6842F008029A6159
:102D7400FB681B689A69FB681B6822F004029A616D
:102D8400FB681B689969BB681A69FB681B680A437E
:102D94009A6164E0FB681B68B968184600F04AFA57
:102DA400FB681B689A69FB681B6842F400629A61BD
:102DB400FB681B689A69FB681B6822F480629A614D
:102DC400FB681B689969BB681B691A02FB681B686E
:102DD4000A439A6143E0FB681B68B968184600F02F
:102DE40095FAFB681B68DA69FB681B6842F0080205
:102DF400DA61FB681B68DA69FB681B6822F004026D
:102E0400DA61FB681B68D969BB681A69FB681B68CF
:102E14000A43DA6123E0FB681B68B968184600F0CE
:102E2400DFFAFB681B68DA69FB681B6842F400621E
:102E3400DA61FB681B68DA69FB681B6822F480624C
:102E4400DA61FB681B68D969BB681B691A02FB68F5
:102E54001B680A43DA6102E00123FB7500BFFB68CB
:102E6400002283F83C20FB7D18461837BD4680BD00
:102E740080B584B000AF786039600023FB737B6851
:102E840093F83C30012B01D10223B4E07B6801228A
:102E940083F83C207B68022283F83D207B681B6812
:102EA4009B68BB60BB6823F07703BB60BB6823F4FB
:102EB4007F43BB607B681B68BA689A603B681B6889
:102EC400B3F5005F3ED0B3F5005F00F28780B3F541
:102ED400805F00F08680B3F5805F7FD8702B1AD0B6
:102EE400702B7BD8602B50D0602B77D8502B3CD0E4
:102EF400502B73D8402B58D0402B6FD8302B64D034
:102F0400302B6BD8202B60D0202B67D8002B5CD0C3
:102F1400102B5AD062E07B6818683B6899683B685C
:102F24005A683B68DB6800F025FB7B681B689B687C
:102F3400BB60BB6843F07703BB607B681B68BA68FF
:102F44009A604FE07B6818683B6899683B685A68E8
:102F54003B68DB6800F00EFB7B681B689A687B6843
:102F64001B6842F480429A603CE07B6818683B68C6
:102F740059683B68DB681A4600F082FA7B681B6874
:102F84005021184600F0DBFA2CE07B6818683B6897
:102F940059683B68DB681A4600F0A1FA7B681B6835
:102FA4006021184600F0CBFA1CE07B6818683B6887
:102FB40059683B68DB681A4600F062FA7B681B6854
:102FC4004021184600F0BBFA0CE07B681A683B68A5
:102FD4001B681946104600F0B2FA03E00123FB73A4
:102FE40000E000BF7B68012283F83D207B6800225B
:102FF40083F83C20FB7B18461037BD4680BD80B467
:1030040083B000AF786000BF0C37BD465DF8047B29
:10301400704780B483B000AF786000BF0C37BD4602
:103024005DF8047B704780B483B000AF786000BF64
:103034000C37BD465DF8047B704780B483B000AFA5
:10304400786000BF0C37BD465DF8047B7047000014
:1030540080B485B000AF786039607B681B68FB6022
:103064007B683A4A93420FD07B68B3F1804F0BD010
:103074007B68374A934207D07B68364A934203D031
:103084007B68354A934208D1FB6823F07003FB60E8
:103094003B685B68FA681343FB607B682B4A934286
:1030A4001BD07B68B3F1804F17D07B68284A9342CA
:1030B40013D07B68274A93420FD07B68264A9342F9
:1030C4000BD07B68254A934207D07B68244A9342FD
:1030D40003D07B68234A934208D1FB6823F44073EE
:1030E400FB603B68DB68FA681343FB60FB6823F012
:1030F40080023B685B691343FB607B68FA681A6073
:103104003B689A687B68DA623B681A687B689A62F3
:103114007B680E4A934203D13B681A697B681A6341
:103124007B6801225A617B681B6903F00103012B50
:1031340005D17B681B6923F001027B681A6100BF1B
:103144001437BD465DF8047B704700BF00000140A2
:103154000004004000080040000C00400040014012
:10316400004401400048014080B487B000AF78605B
:1031740039607B681B6A7B617B681B6A23F00102F0
:103184007B681A627B685B683B617B689B69FB6058
:10319400FB6823F07003FB60FB6823F00303FB6010
:1031A4003B681B68FA681343FB607B6923F00203E6
:1031B4007B613B689B687A6913437B617B681C4A2B
:1031C40093420CD17B6923F008037B613B68DB6885
:1031D4007A6913437B617B6923F004037B617B6819
:1031E400134A934211D13B6923F480733B613B69D9
:1031F40023F400733B613B685B693A6913433B61A9
:103204003B689B693A6913433B617B683A695A603E
:103214007B68FA689A613B685A687B685A637B6882
:103224007A691A6200BF1C37BD465DF8047B70479B
:103234000000014080B487B000AF786039607B68DB
:103244001B6A7B617B681B6A23F010027B681A622D
:103254007B685B683B617B689B69FB60FB6823F46C
:10326400E043FB60FB6823F44073FB603B681B682E
:103274001B02FA681343FB607B6923F020037B6124
:103284003B689B681B017A6913437B617B681E4A18
:1032940093420DD17B6923F080037B613B68DB683B
:1032A4001B017A6913437B617B6923F040037B61D3
:1032B4007B68154A934213D13B6923F480633B61D5
:1032C4003B6923F400633B613B685B699B003A699B
:1032D40013433B613B689B699B003A6913433B6121
:1032E4007B683A695A607B68FA689A613B685A68F5
:1032F4007B689A637B687A691A6200BF1C37BD4693
:103304005DF8047B704700BF0000014080B487B0C3
:1033140000AF786039607B681B6A7B617B681B6ADD
:1033240023F480727B681A627B685B683B617B680C
:10333400DB69FB60FB6823F07003FB60FB6823F030
:103344000303FB603B681B68FA681343FB607B69FB
:1033540023F400737B613B689B681B027A69134307
:103364007B617B681D4A93420DD17B6923F4006322
:103374007B613B68DB681B027A6913437B617B6971
:1033840023F480637B617B68144A934213D13B69C5
:1033940023F480533B613B6923F400533B613B6856
:1033A4005B691B013A6913433B613B689B691B01E1
:1033B4003A6913433B617B683A695A607B68FA68EF
:1033C400DA613B685A687B68DA637B687A691A62F7
:1033D40000BF1C37BD465DF8047B70470000014008
:1033E40080B487B000AF786039607B681B6A3B614A
:1033F4007B681B6A23F480527B681A627B685B6873
:103404007B617B68DB69FB60FB6823F4E043FB6062
:10341400FB6823F44073FB603B681B681B02FA687B
:103424001343FB603B6923F400533B613B689B6897
:103434001B033A6913433B617B68104A934209D1E9
:103444007B6923F480437B613B685B699B017A69F8
:1034540013437B617B687A695A607B68FA68DA6136
:103464003B685A687B681A647B683A691A6200BFD1
:103474001C37BD465DF8047B704700BF0000014067
:1034840080B487B000AFF860B9607A60FB681B6AEB
:103494007B61FB681B6A23F00102FB681A62FB680C
:1034A4009B693B613B6923F0F0033B617B681B0133
:1034B4003A6913433B617B6923F00A037B617A69B0
:1034C400BB6813437B61FB683A699A61FB687A695C
:1034D4001A6200BF1C37BD465DF8047B704780B498
:1034E40087B000AFF860B9607A60FB681B6A7B61E3
:1034F400FB681B6A23F01002FB681A62FB689B6975
:103504003B613B6923F470433B617B681B033A696D
:1035140013433B617B6923F0A0037B61BB681B0100
:103524007A6913437B61FB683A699A61FB687A693B
:103534001A6200BF1C37BD465DF8047B704780B437
:1035440085B000AF786039607B689B68FB60FB687E
:1035540023F07003FB603A68FB68134343F00703EE
:10356400FB607B68FA689A6000BF1437BD465DF85B
:10357400047B704780B487B000AFF860B9607A60AC
:103584003B60FB689B687B617B6923F47F437B61C1
:103594003B681A027B681A43BB6813437A69134376
:1035A4007B61FB687A699A6000BF1C37BD465DF891
:1035B400047B704780B487B000AFF860B9607A606C
:1035C400BB6803F01F03012202FA03F37B61FB686B
:1035D4001A6A7B69DB431A40FB681A62FB681A6A41
:1035E400BB6803F01F03796801FA03F31A43FB680D
:1035F4001A6200BF1C37BD465DF8047B70470000AB
:1036040080B485B000AF786039607B6893F83C3053
:10361400012B01D1022350E07B68012283F83C2076
:103624007B68022283F83D207B681B685B68FB6033
:103634007B681B689B68BB60FB6823F07003FB60BE
:103644003B681B68FA681343FB607B681B68FA6875
:103654005A607B681B681C4A934218D07B681B68BD
:10366400B3F1804F13D07B681B68184A93420ED085
:103674007B681B68164A934209D07B681B68154A0D
:10368400934204D07B681B68134A93420CD1BB68F5
:1036940023F08003BB603B685B68BA681343BB607C
:1036A4007B681B68BA689A607B68012283F83D20B6
:1036B4007B68002283F83C20002318461437BD465B
:1036C4005DF8047B704700BF000001400004004027
:1036D40000080040000C00400040014080B483B06A
:1036E40000AF786000BF0C37BD465DF8047B7047BF
:1036F40080B483B000AF786000BF0C37BD465DF87E
:10370400047B704780B582B000AF78607B68002B83
:1037140001D1012342E07B6893F84130DBB2002BF6
:1037240006D17B68002283F840207868FDF72EFBE1
:103734007B68242283F841207B681B68DA687B68F5
:103744001B6822F40052DA60786800F0DBFC7B68C6
:103754001B681A697B681B6822F490421A617B68B3
:103764001B685A697B681B6822F02A025A617B68CD
:103774001B68DA687B681B6842F40052DA607B6875
:1037840000225A647B68202283F841207B6820222F
:1037940083F842207B6800225A63002318460837C6
:1037A400BD4680BD80B584B000AFF860B9601346F3
:1037B400FB80FB6893F84230DBB2202B12D1BB684C
:1037C400002B02D0FB88002B01D101230BE0FB6806
:1037D40000221A63FB881A46B968F86800F0BAFA3E
:1037E400034600E0022318461037BD4680BD0000A2
:1037F40080B5BAB000AF78607B681B681B68C7F8F7
:10380400E4307B681B68DB68C7F8E0307B681B68C2
:103814005B69C7F8DC300023C7F8D8300023C7F849
:10382400D430D7F8E43003F00F03C7F8D830D7F812
:10383400D830002B0FD1D7F8E43003F02003002B4D
:1038440009D0D7F8E03003F02003002B03D07868C8
:1038540000F099FB5BE2D7F8D830002B00F0DE8053
:10386400D7F8DC3003F00103002B06D1D7F8E030A1
:1038740003F49073002B00F0D180D7F8E43003F008
:103884000103002B0BD0D7F8E03003F48073002B36
:1038940005D07B685B6C43F001027B685A64D7F8FF
:1038A400E43003F00403002B0BD0D7F8DC3003F032
:1038B4000103002B05D07B685B6C43F002027B683C
:1038C4005A64D7F8E43003F00203002B0BD0D7F886
:1038D400DC3003F00103002B05D07B685B6C43F004
:1038E40004027B685A64D7F8E43003F00803002B21
:1038F40011D0D7F8E03003F02003002B05D1D7F81E
:10390400DC3003F00103002B05D07B685B6C43F0D3
:1039140008027B685A647B685B6C002B00F0F281C0
:10392400D7F8E43003F02003002B08D0D7F8E030B8
:1039340003F02003002B02D0786800F024FB7B689E
:103944001B685B6903F04003402B0CBF0123002379
:10395400DBB2C7F8D4307B685B6C03F00803002B40
:1039640003D1D7F8D430002B4FD0786800F02CFA6C
:103974007B681B685B6903F04003402B41D17B6883
:103984001B681433C7F89C30D7F89C3053E8003FC9
:10399400C7F89830D7F8983023F04003C7F8D030F0
:1039A4007B681B681433D7F8D020C7F8A820C7F861
:1039B400A430D7F8A410D7F8A82041E80023C7F80A
:1039C400A030D7F8A030002BD9D17B68DB6B002B5B
:1039D40013D07B68DB6B7E4A1A657B68DB6B184609
:1039E400FDF784FE0346002B16D07B68DB6B1B6D52
:1039F4007A68D26B104698470EE0786800F094F924
:103A04000AE0786800F090F906E0786800F08CF934
:103A14007B6800225A6475E100BF73E17B681B6B0D
:103A2400012B40F04F81D7F8E43003F01003002B52
:103A340000F04881D7F8E03003F01003002B00F0C9
:103A440041810023BB607B681B681B68BB607B688B
:103A54001B685B68BB60BB687B681B685B6903F0C1
:103A64004003402B40F0B6807B68DB6B1B685B68CF
:103A7400A7F8BE30B7F8BE30002B00F045817B6854
:103A84009B8DB7F8BE209A4280F03E817B68B7F8E0
:103A9400BE20DA857B68DB6BDB69B3F5807F00F0E1
:103AA40088807B681B680C33C7F88830D7F8883067
:103AB40053E8003FC7F88430D7F8843023F4807388
:103AC400C7F8B8307B681B680C33D7F8B820C7F840
:103AD4009420C7F89030D7F89010D7F8942041E894
:103AE4000023C7F88C30D7F88C30002BD9D17B68F1
:103AF4001B6814337B677B6F53E8003F3B673B6F66
:103B040023F00103C7F8B4307B681B681433D7F87B
:103B1400B420C7F88020FB67F96FD7F8802041E80C
:103B24000023BB67BB6F002BE1D17B681B68143398
:103B34003B663B6E53E8003FFB65FB6D23F040039F
:103B4400C7F8B0307B681B681433D7F8B020FA6626
:103B5400BB66B96EFA6E41E800237B667B6E002B70
:103B6400E3D17B68202283F842207B6800221A6319
:103B74007B681B680C33FB64FB6C53E8003FBB643D
:103B8400BB6C23F01003C7F8AC307B681B680C33A4
:103B9400D7F8AC20BA657B65796DBA6D41E800232E
:103BA4003B653B6D002BE3D17B68DB6B1846FDF76F
:103BB4002DFD7B6802225A637B689A8D7B68DB8DBE
:103BC4009BB2D31A9BB21946786800F0B7F89BE011
:103BD400933E00087B689A8D7B68DB8D9BB2D31A79
:103BE400A7F8CE307B68DB8D9BB2002B00F08E8073
:103BF400B7F8CE30002B00F089807B681B680C334B
:103C0400BB63BB6B53E8003F7B637B6B23F4907314
:103C1400C7F8C8307B681B680C33D7F8C8207A64AF
:103C24003B64396C7A6C41E80023FB63FB6B002B2B
:103C3400E3D17B681B6814337B627B6A53E8003FE3
:103C44003B623B6A23F00103C7F8C4307B681B68FE
:103C54001433D7F8C4203A63FB62F96A3A6B41E83B
:103C64000023BB62BB6A002BE3D17B68202283F86C
:103C740042207B6800221A637B681B680C333B611B
:103C84003B6953E8003FFB60FB6823F01003C7F86F
:103C9400C0307B681B680C33D7F8C020FA61BB6165
:103CA400B969FA6941E800237B617B69002BE3D1A0
:103CB4007B6802225A63B7F8CE301946786800F060
:103CC4003DF823E0D7F8E43003F08003002B09D05B
:103CD400D7F8E03003F08003002B03D0786800F0BD
:103CE400EAF814E0D7F8E43003F04003002B0ED0D8
:103CF400D7F8E03003F04003002B08D0786800F0D8
:103D04002AF904E000BF02E000BF00E000BFE8378A
:103D1400BD4680BD80B483B000AF786000BF0C376F
:103D2400BD465DF8047B704780B483B000AF786013
:103D340000BF0C37BD465DF8047B704780B483B088
:103D440000AF78600B467B8000BF0C37BD465DF842
:103D5400047B704780B485B000AFF860B960134647
:103D6400FB80FB68BA689A62FB68FA889A85FB68EC
:103D7400FA88DA85FB6800225A64FB68222283F8F9
:103D84004220FB681B69002B07D0FB681B68DA68BC
:103D9400FB681B6842F48072DA60FB681B685A692E
:103DA400FB681B6842F001025A61FB681B68DA6811
:103DB400FB681B6842F02002DA60002318461437BF
:103DC400BD465DF8047B704780B495B000AF786061
:103DD4007B681B680C337B637B6B53E8003F3B635E
:103DE4003B6B23F49073FB647B681B680C33FA6CA5
:103DF4003A64FB63F96B3A6C41E80023BB63BB6B29
:103E0400002BE5D17B681B6814333B623B6A53E8A3
:103E1400003FFB61FB6923F00103BB647B681B6803
:103E24001433BA6CFA62BB62B96AFA6A41E80023D5
:103E34007B627B6A002BE5D17B681B6B012B19D15C
:103E44007B681B680C33FB60FB6853E8003FBB6076
:103E5400BB6823F010037B647B681B680C337A6CAB
:103E6400BA617B617969BA6941E800233B613B69C6
:103E7400002BE5D17B68202283F842207B68002256
:103E84001A6300BF5437BD465DF8047B704780B5A4
:103E940084B000AF78607B689B6BFB60FB6800229A
:103EA400DA85FB680022DA84F868FFF73DFF00BF7B
:103EB4001037BD4680BD80B485B000AF78607B68A4
:103EC40093F84130DBB2212B3ED17B689B68B3F57C
:103ED400805F14D17B681B69002B10D17B681B6A3F
:103EE400FB60FB681B881A467B681B68C2F30802E8
:103EF4005A607B681B6A9A1C7B681A6208E07B68BC
:103F04001B6A591C7A6811621A787B681B685A60AC
:103F14007B68DB8C9BB2013B9BB27A681946D184E7
:103F2400002B0FD17B681B68DA687B681B6822F062
:103F34008002DA607B681B68DA687B681B6842F081
:103F44004002DA60002300E0022318461437BD461D
:103F54005DF8047B704780B582B000AF78607B6801
:103F64001B68DA687B681B6822F04002DA607B68B1
:103F7400202283F841207868FFF7CCFE00231846FE
:103F84000837BD4680BD80B58CB000AF78607B68D3
:103F940093F84230DBB2222B40F0AE807B689B6802
:103FA400B3F5805F17D17B681B69002B13D1002305
:103FB400FB627B689B6ABB627B681B685B689BB225
:103FC400C3F308039AB2BB6A1A807B689B6A9A1C83
:103FD4007B689A6226E07B689B6AFB620023BB6273
:103FE4007B689B68B3F5805F07D07B689B68002B78
:103FF4000AD17B681B69002B06D17B681B685B6850
:10400400DAB2FB6A1A7008E07B681B685B68DBB293
:1040140003F07F03DAB2FB6A1A707B689B6A5A1C4E
:104024007B689A627B68DB8D9BB2013B9BB27A68AA
:104034001946D185002B5DD17B681B68DA687B68E3
:104044001B6822F02002DA607B681B68DA687B68F0
:104054001B6822F48072DA607B681B685A697B688B
:104064001B6822F001025A617B68202283F84220F7
:104074007B6800225A637B681B6B012B35D17B68FC
:1040840000221A637B681B680C337B617B6953E8ED
:10409400003F3B613B6923F010037B627B681B6834
:1040A4000C337A6A3A62FB61F9693A6A41E800239F
:1040B400BB61BB69002BE5D17B681B681B6803F0FF
:1040C4001003102B0AD10023FB607B681B681B685C
:1040D400FB607B681B685B68FB60FB687B689B8D8F
:1040E40019467868FFF72AFE02E07868FCF76EFF4D
:1040F400002302E0002300E0022318463037BD46C7
:1041040080BD00002DE9B04FC0B000AFC7F8F40087
:10411400D7F8F4301B681B6923F44050D7F8F43007
:10412400D968D7F8F4301A6840EA01031361D7F864
:10413400F4309A68D7F8F4301B691A43D7F8F4308E
:104144005B691A43D7F8F430DB691343C7F8F830D6
:10415400D7F8F4301B68DB6823F4164121F00C0116
:10416400D7F8F4301A68D7F8F8300B43D360D7F88F
:10417400F4301B685B6923F44070D7F8F430996914
:10418400D7F8F4301A6840EA01035361D7F8F430E1
:104194001A688F4B9A4205D0D7F8F4301A688D4BC1
:1041A4009A4204D1FEF7E2FAC7F8FC0003E0FEF7F6
:1041B400C9FAC7F8FC00D7F8F430DB69B3F5004F4F
:1041C40040F00C81D7F8FC300022C7F8E830C7F87B
:1041D400EC20D7E93A4522462B469118B9655B4154
:1041E400FB65D7E91623214612EB0108294643EB68
:1041F40001094FF000024FF000034FEAC90343EAFC
:1042040058734FEAC80290469946234618EB0303B5
:10421400C7F8E0302B4649EB0303C7F8E430D7F87E
:10422400F4305B680022C7F8D830C7F8DC20D7E93F
:1042340036120B46DB183B65134642EB03037B65E2
:10424400D7E91423D7E93801FBF7C2FF02460B462E
:10425400614BA3FB02235B091C01D7F8FC3000224D
:10426400C7F8D030C7F8D420D7E9348942464B4642
:104274009118B9645B41FB64D7E91223414612EB00
:10428400010A494643EB010B4FF000024FF00003D3
:104294004FEACB0343EA5A734FEACA0292469B465B
:1042A40043461AEB0303C7F8C8304B464BEB0303F2
:1042B400C7F8CC30D7F8F4305B680022C7F8C030B8
:1042C400C7F8C420D7E930120B46DB183B64134609
:1042D40042EB03037B64D7E91023D7E93201FBF7F0
:1042E40077FF02460B4611463B4BA3FB01235B09B8
:1042F400642202FB03F3CB1ADB0003F13202364BD8
:10430400A3FB02235B095B0003F4F8731C44D7F896
:10431400FC300022C7F8B830C7F8BC20D7E92E8992
:1043240042464B469118B9635B41FB63D7E90E23C0
:1043340041465118396349464B417B634FF00002B3
:104344004FF00003D7E90CAB5946CB00514643EA82
:1043540051735146CA0010461946034642469B18FB
:10436400C7F8B0304B460A4642EB0303C7F8B430F3
:10437400D7F8F4305B680022C7F8A830C7F8AC203F
:10438400D7E92A120B46DB18BB62134642EB030340
:10439400FB62D7E90A23D7E92C01FBF719FF024690
:1043A4000B460D4BA3FB02135B09642101FB03F3D2
:1043B400D31ADB003233084AA2FB03235B0903F060
:1043C4000702D7F8F4301B6822449A6006E100BF64
:1043D40000100140001401401F85EB51D7F8FC3058
:1043E4000022C7F8A030C7F8A420D7E9288942469C
:1043F4004B46911839625B417B62D7E908234146F9
:104404005418494643EB01054FF000024FF00003F6
:10441400EB0043EA5473E20014461D464346E31896
:10442400C7F898304B4645EB0303C7F89C30D7F8E0
:10443400F4305B680022C7F89030C7F894204FF03E
:1044440000024FF00003D7E9244529468B0021469A
:1044540043EA917321468A00D7E92601FBF7B8FEA7
:1044640002460B46604BA3FB02235B091C01D7F8F1
:10447400FC300022C7F88830C7F88C20D7E922899D
:1044840042464B469118B9615B41FB61D7E906236B
:1044940041465118396149464B417B614FF0000256
:1044A4004FF00003D7E904AB5946CB00514643EA29
:1044B40051735146CA0010461946034642469B189A
:1044C400C7F880304B460A4642EB0303C7F88430F2
:1044D400D7F8F4305B680022BB67FA674FF000023C
:1044E4004FF00003D7E91E8949468B00414643EA51
:1044F400917341468A00D7E92001FBF769FE024621
:104504000B461146384BA3FB01235B09642202FBD3
:1045140003F3CB1A1B013233334AA2FB03235B0997
:1045240003F0F0031C44D7F8FC3000223B677A67A1
:10453400D7E91C8942464B469118B9605B41FB6040
:10454400D7E9022341465118396049464B417B6003
:104554004FF000024FF00003D7E900AB5946CB00FF
:10456400514643EA51735146CA0010461946034660
:1045740042469B18BB664B460A4642EB0303FB6666
:10458400D7F8F4305B6800223B667A664FF000028D
:104594004FF00003D7E9188949468B00414643EAA6
:1045A400917341468A00D7E91A01FBF711FE0246CE
:1045B4000B460D4BA3FB02135B09642101FB03F3C0
:1045C400D31A1B013233084AA2FB03235B0903F00D
:1045D4000F02D7F8F4301B6822449A6000BF07F535
:1045E4008077BD46BDE8B08F1F85EB5180B500AF25
:1045F40000F084F900BF80BD80B584B000AF0346ED
:104604003960FB710023FB73FB791946386800F0AD
:10461400DFF80346002B02D00223FB730FE03B6854
:1046240098683B689B8901221946FDF741FC3B6869
:104634001A683B68DB8919461046FEF7B7F9FB7B1D
:1046440018461037BD4680BD80B584B000AF034620
:104654003960FB710023FB73FB791946386800F05D
:10466400B7F80346002B02D00223FB730FE03B682C
:1046740098683B689B8900221946FDF719FC3B6842
:104684001A683B68DB8919461046FEF78FF9FB7BF5
:1046940018461037BD4680BD80B586B000AFBA60FD
:1046A4007B600346FB730B46BB730023FB75BB7B2C
:1046B4005A2B1AD8FB7BBA7B02FB03F31C4A82FBFE
:1046C40003121A449211DB17D31ABB82FB7BB9681D
:1046D4001846FFF791FFBB8ADBB2FA7BD31ADBB231
:1046E40079681846FFF788FF1CE0BB7B5A2B19D961
:1046F400BB7BB42B16D8FB7BBA7B02FB03F30C4ABF
:1047040082FB03121A44D211DB17D31ABB82FB7B40
:10471400B9681846FFF770FFBB8ADBB279681846A0
:10472400FFF792FFFB7D18461837BD4680BD00BFDA
:10473400B7600BB680B586B000AFBA607B60034645
:10474400FB730B46BB730023FB75BB7B5A2B1AD838
:10475400FB7BBA7B02FB03F31C4A82FB03121A4461
:104764009211DB17D31ABB82FB7B79681846FFF7DB
:1047740043FFBB8ADBB2FA7BD31ADBB2B9681846B3
:10478400FFF73AFF1CE0BB7B5A2B19D9BB7BB42B38
:1047940016D8FB7BBA7B02FB03F30C4A82FB0312A1
:1047A4001A44D211DB17D31ABB82FB7B79681846F3
:1047B400FFF722FFBB8ADBB2B9681846FFF744FF54
:1047C400FB7D18461837BD4680BD00BFB7600BB6E9
:1047D40080B584B000AF78600B46FB700023FB7398
:1047E400FB78642B02D90223FB733AE07B685B6895
:1047F4009B68002B0ED17B685B681B68602B09D11A
:104804007B685B689B68022B15D17B685B681B68BF
:10481400702B10D1FB787A681268D26802FB03F31C
:10482400124AA2FB03235B09BB81BB891946786842
:1048340000F01EF815E07B681B68DB689AB2FB7811
:1048440079680968C96801FB03F30849A1FB0313EC
:104854005B099BB2D31ABB81BB891946786800F007
:1048640007F8FB7B18461037BD4680BD1F85EB510A
:1048740080B483B000AF78600B467B807B68DB89B3
:104884000C2B35D801A252F823F000BFC54800080C
:10489400F5480008F5480008F5480008D148000824
:1048A400F5480008F5480008F5480008DD48000808
:1048B400F5480008F5480008F5480008E9480008EC
:1048C4007B681B681B687A885A6311E07B681B68E5
:1048D4001B687A889A630BE07B681B681B687A887C
:1048E400DA6305E07B681B681B687A881A6400BF7A
:1048F40000BF0C37BD465DF8047B704780B400AF41
:10490400124B134A1A60134B114A1A600F4B5B681F
:1049140060221A600F4B5B6800229A600B4B0E4AB0
:104924009A600A4B02229A81084B0022DA81094BD1
:10493400094A9A60074B04229A81064B0422DA81C1
:1049440000BFBD465DF8047B704700BF54020020E1
:10495400FC00002064020020000402400A2200211E
:1049640000F03EB9024B0146186800F02BB800BFB6
:104974005C000020024B0146186800F095B900BFA6
:104984005C00002070B50E4E0C463168054611B926
:1049940000F038F930602146284600F033F9431C12
:1049A4000AD0C41C24F00304A04207D0211A2846CC
:1049B40000F028F9013001D14FF0FF34204670BDDA
:1049C400780200202DE9F843CD1C25F003050835B5
:1049D4000C2D38BF0C25002D074601DBA94205D953
:1049E4000C233B6000263046BDE8F883DFF8D08016
:1049F40000F068F8D8F800301C465CBB29463846FD
:104A0400FFF7C0FF431C044655D1D8F800402646A2
:104A1400002E45D1002C48D023683146384604EB9B
:104A2400030900F0EFF881453FD121686D1A29464A
:104A34003846FFF7A7FF013037D023682B442360A3
:104A4400D8F80030002B38D05A68A2422BD100226B
:104A54005A600FE02268521B1FD40B2A17D9611920
:104A6400A342256018BF5960636808BFC8F80010E6
:104A740062514B60384604F10B0600F029F826F029
:104A84000706231DF21AAED09B1BA350ABE7A3422B
:104A94006268DDD1C8F80020ECE723466468ACE71F
:104AA40034467668B4E71346CCE70C233B603846BB
:104AB40000F00EF897E72560DCE75B60FFDE00BFDF
:104AC40074020020014800F0D7B800BFB8030020EA
:104AD400014800F0D2B800BFB8030020012B2DE933
:104AE400F04701D0242B06D900F09CF8162303606C
:104AF4000020BDE8F087DFF8E4C00D462E4615F827
:104B0400014B1CF8047017F00807F7D12D2C32D193
:104B14002C780127B51C002B5BD0102B09D1302C2D
:104B240007D12C7804F0DF04582C4DD16C78102375
:104B3400023507F1004808F1FF384FF0000EB8FBCA
:104B4400F3F9764603FB198AA4F1300CBCF1090F82
:104B540016D86446A34224DDBEF1FF3F08D0B14518
:104B64001CD301D1A24519DB06FB03464FF0010E0D
:104B740015F8014BE8E72B2C04BF2C78B51CCAE7C9
:104B8400A4F1410CBCF1190F01D8373CE2E7A4F1C0
:104B9400610CBCF1190F04D8573CDBE74FF0FF3E22
:104BA400E6E7BEF1FF3F05D122230360464642B942
:104BB40030469EE707B17642002AF9D0BEF1000FD5
:104BC40000D0691E1160F3E73024002BB1D1082313
:104BD400AFE7302CA5D00A23ABE700BF7D4D00081A
:104BE40013460A46014602480068FFF777BF00BF34
:104BF4005C00002002440346934200D1704703F84E
:104C0400011BF9E738B5064D0023044608462B601E
:104C1400FCF758FA431C02D12B6803B1236038BD5A
:104C2400B4030020014B1868704700BF5C000020EB
:104C340070B50D4D0D4C641BA4100026A64209D17D
:104C44000B4D0C4C00F07CF8641BA4100026A6420B
:104C540005D170BD55F8043B98470136EEE755F889
:104C6400043B98470136F2E7884E0008884E000856
:104C7400884E00088C4E000870477047034611F8B0
:104C8400012B03F8012B002AF9D170470A44914201
:104C940000F1FF3300D1704710B511F8014B03F850
:104CA400014F9142F9D110BD37B5002944D051F8D4
:104CB400043C0190002BA1F10404B8BFE418FFF7F1
:104CC40001FF1E4A0198136833B96360146003B08E
:104CD400BDE83040FFF7FCBEA34208D9256861193E
:104CE4008B4201BF19685B6849192160EDE71A46D8
:104CF4005B680BB1A342FAD911685518A5420BD1D0
:104D0400246821445418A3421160E0D11C685B68F4
:104D140053600C441460DAE702D90C230360D6E72D
:104D2400256861198B4204BF19685B68636004BF1E
:104D3400491921605460CAE703B030BD74020020F1
:104D4400F8B500BFF8BC08BC9E467047F8B500BF74
:084D5400F8BC08BC9E46704744
:104D5C00000000000000000001020304060708091F
:104D6C0000000000010203040006101600061016D5
:104D7C00002020202020202020202828282828201F
:104D8C002020202020202020202020202020202017
:104D9C00208810101010101010101010101010107F
:104DAC00100404040404040404040410101010106F
:104DBC001010414141414141010101010101010139
:104DCC00010101010101010101010101101010108B
:104DDC00101042424242424202020202020202020B
:104DEC00020202020202020202020202101010105F
:104DFC002000000000000000000000000000000087
:104E0C000000000000000000000000000000000096
:104E1C000000000000000000000000000000000086
:104E2C000000000000000000000000000000000076
:104E3C000000000000000000000000000000000066
:104E4C000000000000000000000000000000000056
:104E5C000000000000000000000000000000000046
:104E6C000000000000000000000000000000000036
:044E7C000000000032
:084E800084B3FF7F0100000074
:044E8800B901000864
:044E8C009501000884
:104E9000030000000024F4001000000001000000E6
:104EA000000000007C020020E40200204C030020EF
:104EB00000000000000000000000000000000000F2
:104EC00000000000000000000000000000000000E2
:104ED00000000000000000000000000000000000D2
:104EE0000000000000000000000000001000002092
:040000050800115985
:00000001FF
